:020000022000DC
:1060000000000120B5620200DD620200DF620200D2
:10601000E1620200E3620200E562020000000000AB
:10602000000000000000000000000000E762020025
:10603000E962020000000000EB620200ED62020073
:1060400091B00200EF62020071B90200EF6202003B
:10605000EF620200EF62020029B40200EF62020068
:10606000EF620200EF620200EF620200EF620200E4
:10607000EF620200EF620200EF620200EF620200D4
:10608000EF620200D1740200EF620200EF620200D0
:1060900071750200EF62020079420300EF620200B4
:1060A000EF620200EF620200EF620200EF620200A4
:1060B000EF620200EF62020000000000000000003A
:1060C000EF620200EF620200EF620200EF62020084
:1060D000EF620200EF620200EF62020000000000C7
:1060E00000000000000000000000000000000000B0
:1060F00000000000000000000000000000000000A0
:10610000000000000000000000000000000000008F
:10611000000000000000000000000000000000007F
:10612000000000000000000000000000000000006F
:10613000000000000000000000000000000000005F
:10614000000000000000000000000000000000004F
:10615000000000000000000000000000000000003F
:10616000000000000000000000000000000000002F
:10617000000000000000000000000000000000001F
:10618000000000000000000000000000000000000F
:1061900000000000000000000000000000000000FF
:1061A00000000000000000000000000000000000EF
:1061B00000000000000000000000000000000000DF
:1061C00000000000000000000000000000000000CF
:1061D00000000000000000000000000000000000BF
:1061E00000000000000000000000000000000000AF
:1061F000000000000000000000000000000000009F
:1062000010B5054C237833B9044B13B10448AFF3F0
:1062100000800123237010BD98350020000000008D
:10622000245B030008B5034B1BB103490348AFF3DC
:10623000008008BD000000009C350020245B0300A6
:10624000154B002B08BF134B9D46A3F5803A002148
:106250008B460F461348144A121A0EF00AFA0F4BD7
:10626000002B00D098470E4B002B00D09847002001
:10627000002104000D000D48002802D00C48AFF3A7
:1062800000800EF07FF92000290006F061FF0EF07B
:1062900065F900BF000008000000012000000000B8
:1062A0000000000098350020EC49002000000000AC
:1062B000000000000649074A074B9B1A03DD043B18
:1062C000C858D050FBDC04F029FBFFF7B9FF0000F1
:1062D000805C0300582D002098350020FEE7FEE783
:1062E000FEE7FEE7FEE7FEE7FEE7FEE7FEE7FEE786
:1062F000F0B595B0002415460F4608461E4604F03A
:10630000FFF9384623460895082205A91A9D0996E3
:106310000D950A948DF82C400C9404F045FA9DF8E4
:1063200014308DF81140DDE9061003F00302012A54
:10633000CDE9020127D0022A04D0384604F0E4F95E
:1063400015B0F0BDBDF81650C3F3C2038DF8103080
:10635000AD090826082D2C4628BF082433462246BE
:106360000EA9384604F020FA2D1B214608AB02AADC
:106370000EA8264400F066FE002DEBD1384604F04E
:10638000C3F915B0F0BDBDF81460059DC6F38316C2
:10639000C3F3C204B2000EA9384608238DF810409A
:1063A000C5F3952504F000FA08AB324628460EA93D
:1063B000009302AB00F0A0FD384604F0A5F915B03B
:1063C000F0BD00BF014B01221A707047F835002064
:1063D000704700BF00B583B0044B0093044A4023CC
:1063E000FFF786FF03B05DF804FB00BFF563020012
:1063F000B835002038B50E480E4D03780E4CEB5CD6
:106400000025D2B2257053B90C3005F0FFFC58B905
:106410000A4B1B7813B12378002BFCD038BD043015
:1064200005F038FF0028F3D001F00CF8F0E700BFCA
:10643000582D0020E8490020F8350020B435002010
:1064400070B51348134A0378D35C88B0DBB90C30BD
:1064500005F076FC104D0FCD6C460FC495E80F008B
:1064600008AD062645F8206D84E80F002946002275
:10647000074804F09FFD08B100F0E4FF074B00223D
:106480001A7008B070BD043005F09CFEE2E700BF52
:10649000582D0020E8490020C8490300B4350020E9
:1064A00070B50D4D0FCD88B06C460FC495E80F0048
:1064B00008AD062645F8206D84E80F002946074AF6
:1064C000074804F077FD08B100F0BCFF054B01223E
:1064D0001A7008B070BD00BFC8490300C563020050
:1064E000582D0020B435002010B5054CFFF7D8FF1B
:1064F0002046042100F0BEFC0123637210BD00BFE2
:106500006C2D0020F0B5314D85B005F5836002F0AB
:10651000E5FF05F2144002F0E1FFD5E9012702EAA8
:106520000704E31C05EB830319788E0701F00400D0
:106530000ED0C8B101F00301012935D0022902F1C2
:106540000200EED15A8800EB921202EA0704E8E753
:10655000561C0028EED159881A8806EB911606EBD6
:10656000921202EA0704DCE705EB8404531CE1689D
:1065700001913B4005EB830301F003010129DE6833
:1065800002F102041AD0022916D1BDF806309B0987
:106590000333360C04EB93040D4802F0ABFF00B15B
:1065A0006C60304605B0F0BD1B880232C3F3831324
:1065B0001A4402EA0704B4E70646EDE7BDF80430E2
:1065C000C3F38313360C1C44E6E700BFCC3600202F
:1065D000E03A002008B50E4B0E480022FF21C3F818
:1065E00018249960C3E90022C3F8142483F82024F6
:1065F00004F042F858B9084A084BD21AD20806D01B
:106600000749034621F8233001339A42FAD108BDE5
:10661000CC360020385C0300385C0300A05B03002C
:106620003435002021B9134A02EBC00000687047DE
:1066300030B411490F4C091BC90816D00F4B5A88AA
:10664000824218BF002205D111E0DD88854203F1A6
:10665000040305D001329142F7D1002030BC7047CD
:1066600004EBC200006830BC70470846F6E72046DD
:10667000F8E700BFA05B0300385C0300343500205E
:10668000094B013903EBC00003290BD8DFE801F007
:10669000020806040220704740797047007970476D
:1066A0000420704700207047A05B03002DE9F043F1
:1066B00083B002AB002203F8012DDFF8DC9007461F
:1066C00018468846D9F8084001F012FAD9E9013293
:1066D000D9F80060134401339B1B012B58D809F2F1
:1066E0001C450121284602F0D5FEFFF70BFF0146AD
:1066F000284602F0CFFED9E90132D9F80010134440
:1067000001335B1A012BECD90A4003320523023115
:106710009DF8070049F82230C9F8001001F00EFA80
:1067200000211C4802F07CFE80F31000731C234003
:1067300009EB830300043440033440EA1740D86077
:1067400019F8243067F3C50309F8243039F82430E8
:106750006FF3891329F8243059F8242068F39F2215
:106760001346012161F301036FF3820349F82420EA
:1067700009F8243099F820341BB906E000F00EF82F
:1067800018B1D9E900329A42F8D103B0BDE8F083DC
:106790003146B9E7E83A0020CC3600202DE9F04731
:1067A0008F4D002384B0C5F81834BFF34F8FD5E95F
:1067B00001462B680CE037B301F0030101294FD0EB
:1067C000022903D15288023404EB9214A34215D952
:1067D00004EA0600C21C05EB8202117811F0030FD7
:1067E00001F00407E7D1002FE6D151881288013467
:1067F00004EB911404EB9214A342E9D800206B60DF
:1068000004B0BDE8F08705EB8000631CC26801920C
:10681000334005EB830302F00302DB680293022A94
:1068200004F1020800F08380012A1FD0D5F810443B
:1068300034B1236820469B6898476468002CF8D1DF
:10684000684B69491888000440F00200FFF72EFFEA
:10685000D5E90030C01A18BF012004B0BDE8F087A8
:1068600012880234C2F383121444AFE7BDF8042047
:106870005E48C2F38313062B28BF062363F38912F5
:1068800002339900ADF8042003F0F8FE8146002899
:10689000CCD003F035FF3B46082201A9484603F05F
:1068A00055FFBDF8043013F4707F00F097806FF04F
:1068B000010AAAEB040A082406EA08010331234668
:1068C000042205EB8101484603F040FFBDF8043087
:1068D00008F101070AEB0702C3F383139342B8469A
:1068E00004F10404E8D8D5F81834002B6BD1D5F89E
:1068F000104454B1637A20464946002B5FD0236888
:106900001B6898476468002CF4D1484603F0FCFEED
:1069100004A8002300F80D3D01F0EAF8D5F818347A
:1069200003B96F609DF8030001F008F990E7BDF826
:1069300006302E489C09502CA24628BF4FF0500A22
:106940006AF38F130AF10801ADF8063003F096FEE2
:10695000814600283FF46AAF03F0D2FE3B4626EAA8
:1069600008070137082201A94846BF0003F0EEFEE0
:10697000BA4519D95FFA8AF34FB306EA0801DB1B5F
:10698000033105EB8101DEB23A460823484603F0A5
:10699000DDFE324607F108031549484603F0D6FEEE
:1069A000033408EB94079EE706EA0801033105EB80
:1069B000810152460823484603F0C8FEF0E76468A8
:1069C000002C97D1A1E7484603F09EFE40E75246CF
:1069D00008230749484603F0B9FEE1E7474682E746
:1069E000CC36002048350020F4490300385C030011
:1069F000D83600202DE9F04782B002AB002403F81E
:106A0000014DDFF8ECA00746184691468846DAF8B3
:106A1000084001F06DF8DAE90132DAF80060134459
:106A200001339B1B022B5ED80AF21C45012128462C
:106A300002F030FDFFF766FD0146284602F02AFD10
:106A4000DAE90132DAF80010134401335B1A022B41
:106A5000ECD90A400332033145239DF807004AF878
:106A60002230CAF8001001F069F8B31C23400AEB89
:106A7000830300211D48C3F80C9002F0D1FC80F381
:106A80001000731C23400AEB8303000434400334DA
:106A900040EA1740D8601AF8243067F3C5030AF8B3
:106AA00024303AF82430012161F389132AF8243084
:106AB0005AF8242068F39F22134661F301036FF311
:106AC00082034AF824200AF824309AF820341BB9AB
:106AD00006E0FFF763FE18B1DAE900329A42F8D116
:106AE00002B0BDE8F0873146B3E700BFE83A0020C6
:106AF000CC3600202DE9F04F83B002AD002405F81C
:106B0000014D3B4C8046284693469A468946A568E7
:106B100000F0EEFFD4E90132276813440133DB1B98
:106B2000032B63D804F21C460121304602F0B2FC6C
:106B3000FFF7E8FC0146304602F0ACFCD4E9013234
:106B40002168134401335B1A032BEDD90A40033249
:106B5000852344F8223004319DF80700216000F0BD
:106B6000EDFFBA1CFB1C2A402B4004EB820204EB15
:106B7000830300211F48C2F80CB0C3F80CA002F038
:106B80004FFC80F310007B1C2B4004EB83030004BC
:106B90003D40033540EA1840D86014F8253068F3CA
:106BA000C50304F8253034F82530022262F3891336
:106BB00024F8253054F8252069F39F22134601213B
:106BC00061F301036FF3820344F8252004F82530B4
:106BD00094F820341BB906E0FFF7E0FD18B1D4E9C2
:106BE00000329A42F8D103B0BDE8F08F3946ADE7E4
:106BF000CC360020E83A00202DE9F04F83B002AEF9
:106C0000002406F8014D3E4C8046304693469A4695
:106C1000A568894600F06CFFD4E901322768134467
:106C20000133DB1B042B69D804F21C4601213046DA
:106C300002F030FCFFF766FC0146304602F02AFC09
:106C4000D4E901322168134401335B1A042BEDD9D6
:106C50000A400332C52344F8223005319DF807006D
:106C6000216000F06BFFB81CFA1C28402A403B1D35
:106C70002B4004EB800004EB820204EB8303C0F89A
:106C80000CB00021C2F80CA01E480C9ADA6002F089
:106C9000C7FB80F310007B1C2B4004EB8303000434
:106CA0003D40033540EA1840D86014F8253068F3B9
:106CB000C50304F8253034F82530032262F3891324
:106CC00024F8253054F8252069F39F22134601212A
:106CD00061F301036FF3820344F8252004F82530A3
:106CE00094F820341BB906E0FFF758FD18B1D4E939
:106CF00000329A42F8D103B0BDE8F08F3946A7E7D9
:106D0000CC360020E83A00202DE9F04F89B008AEDB
:106D1000002406F8194DCDE902239946139B4D4CEA
:106D20000593149B129F06938046159B049730464B
:106D300092460793A5688B4600F0DAFED4E901324B
:106D4000276813440133DB1B072B00F2818004F218
:106D50001C460121304602F09DFBFFF7D3FB0146A4
:106D6000304602F097FBD4E9013221681344013325
:106D70005B1A072BEDD90A40033240F2851344F821
:106D8000223008319DF80700216000F0D7FEBB1CBF
:106D90002B4004EB8303F91C07F1040CC3F80CA08F
:106DA00029400CEA050C7E1DFB1D2B402E4004EBF8
:106DB000810104EB8C0CBA1D04EB830E2A40129B5C
:106DC000C1F80C9004EB8606CCF80C3004EB820280
:106DD000139BF360149BD3600021159B1E48CEF8D3
:106DE0000C3002F01DFB80F310007B1C2B4004EBE9
:106DF000830300043D40033540EA1840D86014F88E
:106E0000253068F3C50304F8253034F82530062210
:106E100062F3891324F8253054F825206BF39F2260
:106E20001346012161F301036FF3820344F8252027
:106E300004F8253094F820341BB906E0FFF7AEFCC7
:106E400018B1D4E900329A42F8D109B0BDE8F08F08
:106E5000394690E7CC360020E83A0020044BD3E9CD
:106E600000239A4201D0FFF799BC0020704700BF71
:106E7000CC36002030B4154DD5F81044002154B163
:106E8000237A8B4213D0234602E01A7A8A420ED02C
:106E90005B68002BF9D10172D5F810347BB15B68C7
:106EA0004360D5F81034586030BC08467047013153
:106EB0000A29E4D14FF0FF31084630BC7047C5F8CD
:106EC0001004436030BC0846704700BFCC36002039
:106ED00038B5084BD3F81044012583F820543CB151
:106EE0002368657220465B6898476468002CF7D178
:106EF00038BD00BFCC3600202DE9F04784B01D46D8
:106F00000C9C002394F80C802373EB8881460E467A
:106F10001746002B40D1297A05290ED06B7AA88814
:106F200073BB404B53F821A00021FFF77BFB524677
:106F300003463D49204602F055FB062F09D8DFE8FD
:106F400007F0046A4249525D33004946204602F088
:106F500049FB2B7A052B05D06B7A5BB93349204668
:106F600002F040FB204602F031FB84F80C8004B0B4
:106F7000BDE8F0872E4A2F49204602F033FBEDE7AB
:106F8000FFF77EFB2C4B2B4953F82020204602F0C4
:106F900029FB297AA888C4E7254A00922749284A6C
:106FA000204602F01FFBB6E7D6E90410D6E900231D
:106FB0000390D6E902070291CDE900074946204631
:106FC00002F010FBC5E74946D6E90023204602F04F
:106FD00009FBBEE7B168D6E9002320460091494687
:106FE00002F000FBB5E7D6E90201D6E900230191E2
:106FF00000904946204602F0F5FAAAE7D6E9037167
:10700000B068D6E900230291CDE900074946204641
:1070100002F0E8FA9DE732684946204602F0E2FABB
:1070200097E700BF904A0300844A0300045403001A
:10703000784A0300804A0300204A0300604A0300A4
:10704000584A0300082900D970472DE9F04F1D4622
:10705000904600232A7B2B7385B0B8F80630039244
:1070600007460E46002B78D198F80810052911D054
:1070700098F80930B8F80400002B60D13B4B53F866
:1070800021400021FFF7CEFA224603463849284620
:1070900002F0A8FADFF8F8B0DFF8F890002405E075
:1070A0003A5D013402F09EFA082C09D0A642494606
:1070B0002846F5D85946013402F094FA082CF5D147
:1070C0002C49DFF8D490DFF8D4B0284602F08AFAD1
:1070D000002411E017F804A00DF078FA5044594646
:1070E000437813F0970F14BF52462E2228460134DE
:1070F00002F078FA082C08D0A64249462846E9D87A
:10710000013402F06FFA082CF6D198F80830052BFC
:1071100002D098F8093063B91749284602F062FA9C
:10712000284602F053FA9DF80C302B7305B0BDE8E9
:10713000F08F124A1249284602F054FAECE7FFF7A2
:107140009FFA104B0E4953F82020284602F04AFAC5
:1071500098F80810B8F8040090E7084A00920A4925
:107160000A4A284602F03EFA7EE700BF904A030032
:10717000844A0300504A030004540300784A030081
:10718000804A0300204A0300604A0300584A030073
:107190004C4A0300444A03008C4A0300544A03004B
:1071A000434B1978002900F081802DE9F04F00242D
:1071B00087B001258E4603E00134E4B2744560D205
:1071C0003C4B27B21E6816F837C0ACF1200205FA16
:1071D00002F9394ACCF12003D2E9000125FA03F380
:1071E00049EA030905FA0CF800EA080201EA090372
:1071F000134306EBC70BDFD021EA09032E4920EA2F
:1072000008026046C1E9002304F004F916F837C00B
:10721000ACF1200205FA02F201920199CCF12003AF
:10722000C6B225FA03F3ACF12002194306FA02F3C1
:107230000393224B0191D3E90023CDE9042305FAFE
:107240000CF30093CCF12001039B26FA01F10B43D0
:10725000039306FA0CF30293DDE90467DDE90023EA
:1072600016401F4032463B46DDE90267BB4208BF7D
:10727000B24209D00E4B013493F800E0E4B27445F9
:107280009ED307B0BDE8F08F9BF80110DBF8043007
:10729000A1F10101B1FA81F14909091AB1FA81F1AB
:1072A0004909002BE6D060469847E3E7704700BFE6
:1072B000F03A0020283B0020203B0020183B002013
:1072C0002DE9F84F0646244800F0D8FBD8B9234FE3
:1072D0000123A6F1200103FA01FBC6F12002D7E940
:1072E000000123FA02F24BEA020B03FA06FA00EA63
:1072F0000A0201EA0B03134307D020EA0A0421EA39
:107300000B05C7E90045BDE8F88F304604F082F868
:10731000134ED6E90089C8B148EA0A0349EA0B04CA
:107320009846A146D7E900234BEA03050D4B0A48CE
:1073300019684AEA02044B464246C6E90023C7E9F7
:1073400000450022BDE8F84F00F042BB28EA0A08D9
:1073500029EA0B09E6E700BFF83A0020203B0020AD
:10736000183B0020F43A0020042A36D92DE9F041D8
:1073700082B00E460546144603F002FF002836D0C0
:107380001D491E4A1E4B0D601E481F491C60167089
:1073900000230022741EC0E90023C1E90023E4B2E7
:1073A000EEB105EBC404194F083D4FF00008032669
:1073B00001E0AC4213D0A37820788DF806803A46DD
:1073C00001A98DF804608DF8053003F0E3FE083C58
:1073D0000028EED002B0BDE8F081072070470C4ACB
:1073E0000C48002100F0E2FA02B0BDE8F08103F0A1
:1073F00081FE0028C4D0EDE7283B0020F03A0020B1
:10740000F43A0020183B0020203B0020C17202000B
:10741000A1710200FC4A030070B5084D2B785BB1E6
:10742000074E00243368012113F8340003F090FF65
:107430002B780134A342F5D8002070BDF03A00202B
:10744000283B002000B585B000230390194601AA0F
:1074500044F20100CDE9013300F004F805B05DF815
:1074600004FB00BF10B572B6FFF732FDFFF7F6FC64
:107470000028FBD1104C11492088000440F0010085
:10748000FFF714F90E4B1B68DB0700D500BE208800
:107490000C49000440F00200FFF708F9BFF34F8FDA
:1074A00009490A4BCA6802F4E0621343CB60BFF398
:1074B0004F8F00BFFDE700BF48350020004B0300A1
:1074C000F0ED00E00C4B030000ED00E00400FA05D5
:1074D000F8B5204A204B0024C2F84041C2F844418C
:1074E000C2F84841C2F84C41C2F80041C2F8044118
:1074F0001B6833B31949D2F804550A68AD1A1A68E3
:1075000025F07F45AA4227460DD8197CDE69AD1AC1
:10751000144419B11F74D3E9052090471EB13346B6
:107520001A68AA42F1D90E490E4A0B7812789A428B
:1075300008D00D490D4A41F823404FF48013C2F89A
:107540000031F8BD531CDBB2022B08BF00230B70C7
:10755000EFE700BF001001404C3C0020483C0020F9
:10756000453C0020443C00203C3C002000E100E081
:107570002DE9F04F8C4A8D4913780978DFF8508255
:10758000994285B0D8F800A000F07B810133DBB2CE
:10759000022B08BF002386481370864A076852F8FA
:1075A00023107B1823F07F430024036053462646B4
:1075B0002046A446ABB11A688A4200F26581DC68B5
:1075C000C3F800C0891A1044DA6934B13D1825F0B7
:1075D0007F45C3E90154DE611E4613460124002B9A
:1075E000E9D1002C40F07C8101230093724B734F52
:1075F000DFF8E09143F00103019355464FF0000B93
:1076000046B3D6E901C13446F669694B6C481A683D
:10761000ACEB020323F07F43834248D80B44236042
:1076200000220121C4E90122E2612174002D5DD014
:107630002A689A424DD2284603E00A689A424FD2FD
:107640000846C1699B1A0029F7D12360E161C46132
:10765000002ED6D178783978884264D00B4603EB77
:1076600043034C1CBA7807EBC303E1B28A421A7990
:10767000397004BF00213970022A9C6844D0032A63
:1076800038D0012AE8D1227C002AE5D1D3F80CC0F9
:10769000C4F804C01969A1605869E06099F8000055
:1076A0009B69A3610028B0D062609446ADE7A2EB6D
:1076B0000C0222F07F428A4202D28B1A2360AFE78B
:1076C00000230122C4E90033A360E36122746DB199
:1076D0002A68C8F80040D31A2B60E56125468FE779
:1076E000D21A0A602360E161C461B1E7C8F80040C2
:1076F000254685E7002DAFD000232B74ED69002DC2
:10770000FBD1C8F80050A5E74DB1AC422B4603D1E0
:10771000E4E094422FD01346DA69002AF9D100231D
:10772000237488429AD1BBF1000F01D1554553D043
:10773000002D56D1234E244A1F4C4FF480334FF472
:1077400000310127C2F880103C43C6F848334FF49B
:107750003C60C6F808337760A047154BB7604FF41C
:107760003C601D60A047194B1D70002389F8003054
:1077700005B0BDE8F08FA34200F09180E069216878
:10778000D861002800F086802A4603680B44036015
:10779000AA424FF000033978787823741CBF15464D
:1077A0004FF0010BBDE700BF443C0020453C0020EA
:1077B000483C00203C3C0020204B03002C3B002098
:1077C000FEFF7F000010014000E100E0393C002096
:1077D0004C3C0020383C0020009B002BC5D0002DE5
:1077E000A8D0434B434A1C68D2F80465424FD5F8F1
:1077F00000A03978331B23F07F43DD1CB9B93F4922
:107800003F4B4FF48030C2F844034FF00108C2F8F8
:1078100004034FF40030C1F8800143F00103086015
:10782000C2F800804FF43C60984787F80080AA4572
:107830002CBF04EB0A0363192E4923F07F43C1F8E0
:107840004035D1F80425921B9B1B22F07F4223F088
:107850007F4303329A4288D9294BD1F80425C1F8D5
:10786000402543F001034FF43C609847234B4FF40D
:107870000032C3F80021002389F8003005B0BDE8CC
:10788000F08F00260096B1E674BB521A1A600123ED
:107890000093ABE6002339787878237441E71946E2
:1078A000EA69C8F8002092B9CDE90231114BDFF83E
:1078B00040C001209860019B89F80000CCF80020AE
:1078C0004FF43C609847DDE90231D8F80020C869E0
:1078D0000968D86100287FF458AF59E72946DFE7E7
:1078E000C8F800309A467FE6C8F800309A46CCE7E0
:1078F000483C002000100140393C002000E100E03D
:10790000204B03002DE9F8431F4D204E204FDFF898
:1079100098804FF480334FF400324FF00109002477
:10792000C6F8802047EA0907C5F848334FF43C60A1
:10793000C5F80833C5F80490B847C5F808904FF467
:107940003C60C8F80040B847124A134B13491C600A
:107950001470134B134A0C700B2114701C80997017
:107960004FF48012E023C6F8802186F81433326089
:10797000C5F8084586F81133D5F80435C8F8003045
:107980002046BDE8F88300BF0010014000E100E0A0
:10799000204B0300393C00204C3C0020443C00209C
:1079A0002C3B0020453C0020483C0020074B9B78A6
:1079B0004BB132B128B10368187C20B959745A61AF
:1079C0007047072070470820704700BF2C3B0020FD
:1079D0002DE9F047264CA37882B0002B3CD000283C
:1079E0003AD004293CD94369002B35D0814602A8FE
:1079F00099F811300026012B00F8016D0CBF884664
:107A0000B04617468A4600F073F86378A17822786A
:107A10009DF807005D1CEDB2A94208BF3546AA4299
:107A200022D003EB430304EBC3030121114AC3F843
:107A300008901971D2F804256570C3E9032AC3E9D7
:107A4000058700F07BF80C4B4FF480123046C3F8EA
:107A5000002102B0BDE8F087082002B0BDE8F08741
:107A6000072002B0BDE8F08700F068F80420F0E7D6
:107A70002C3B00200010014000E100E0F0B51A4C62
:107A8000A37883B043B338B343692BB3064602A847
:107A9000002500F8015D357400F02AF86278A778B7
:107AA00021789DF80700531CDBB29F4208BF2B468C
:107AB000994214D002EB420204EBC202022196600A
:107AC0001171637000F03AF8084B4FF480122846A9
:107AD000C3F8002103B0F0BD082003B0F0BD00F0F2
:107AE0002DF80420F9E700BF2C3B002000E100E066
:107AF00070B4EFF3108472B60D4B9A68AAB90D49B1
:107B00000D4E01259D60D1F8805035401D60C1F8B3
:107B10008060D1F884505D604FF0FF33C1F884304D
:107B2000027004B962B670BC704701230370F8E7B5
:107B3000DC49002000E100E0FC06FFBD094B9A682B
:107B40007AB170B910B4EFF3108272B606491C68AE
:107B50000C605C684C60986002B962B65DF8044BDA
:107B600070477047DC49002000E100E0F0B4436852
:107B70001BB1384AD468A34246D20023364F0B804B
:107B80007A684FF0010C02F580544FF6FF76083208
:107B900094420ED8BCF1020FA1F800C007F11407FF
:107BA00054D07A6802F58054083294424FF0020CA7
:107BB000F0D913680133EDD05388033302EB83030C
:107BC0009C42E7D39588B5420AD0158845B195689F
:107BD00003689D4211D05388033302EB8302D7E739
:107BE0009C42D7D91A6801321A46D3D05D88033532
:107BF00003EB85039C42E5D2CCE7184B42601B891E
:107C000003810120F0BC704712699342B5D813F08C
:107C10000305B2D1114A048912899442ADD1046896
:107C20009A689442A9D10C484268934203D902F55C
:107C30008052934207D38269934207D902F580525A
:107C4000934203D201250D800120DBE70020F0BC28
:107C5000704700BF80350020903C0020743C00201D
:107C6000F0B5334C334DB4F802C062684FEA8C066D
:107C700006EB0C0305EB830383B0596801F58050D4
:107C8000002A52D05388033302EB8302904213D868
:107C9000664405EB8605EB68002B3DD0264B274854
:107CA000196802229A80052500230122257003B05D
:107CB000BDE8F04002F0CCB813680133E8D0538837
:107CC000033302EB83038342E2D84FF6FF7E9788AB
:107CD000774514D0178897B162605388164D1748BE
:107CE000AE882968033300259BB200959B0001EB09
:107CF00086010325257002F017F803B0F0BD984205
:107D0000C6D91A6801321A46C2D05F88033703EB1E
:107D100087039842DBD2BBE708480425012225707F
:107D200003B0BDE8F04002F093B801F10802ADE7FE
:107D3000743C0020903C0020483D0020803500200D
:107D40002DE9F04FAC4E89B004464FF6FF77356809
:107D5000002D00F0D9802A78531E052B67D8DFE864
:107D600003F05931311D1D03002C40F0C380DFF8B2
:107D7000B0C29CF80C209CF80030002A00F0528120
:107D8000013B8CF80C40062B51D8DFE813F0E703D9
:107D9000F8020302D8015000FB02C802002C40F098
:107DA000A9802B79012B00F04A81C0F0DE800DF113
:107DB0000C08022B0394C8E90244C8F810403ED1D5
:107DC00020463DE0B5F81490AB7D002C00F0A38078
:107DD000022BEA8840F2C4804FEA8904DFF8388237
:107DE00004EB090108EB8101D31C0A8913440B81C0
:107DF000EA884C4408EB84040DF10C086389033BCA
:107E00009B1A00226381C8F808200392C8E9032264
:107E1000012015E0002C40F097802B79032B00F215
:107E2000DF80DFE813F080013D0155016001002390
:107E30000DF10C08C8E90333C8F8083003930F208C
:107E400004902B78023B042B0AD8DFE803F0472F7D
:107E50002303430004238DF80C30EB88ADF8183071
:107E6000664C04F1100554F8043B404603B19847B2
:107E7000A542F8D1624963480024346001F05EFAFB
:107E80000121614801F012FB00287FF460AF09B0C6
:107E9000BDE8F08F03238DF80C30EB88ADF8183077
:107EA0002B89ADF81A30EB680593D9E702238DF8DA
:107EB0000C302B89ADF81830AB88ADF81A30EB6870
:107EC0000593AB7DA3F10603B3FA83F35B098DF849
:107ED0001C30C5E705238DF80C30C1E701238DF870
:107EE0000C302B89ADF81830AB88ADF81A30EB6840
:107EF0000593B5E70DF10C080023C8F8083003938B
:107F0000C8E9033301209BE73D493E4801F0E8F909
:107F1000054630601FE74FEA8904DFF8FC8004EB78
:107F2000090108EB8101B1F808A0496801EB8A0A50
:107F3000062B00F2B682DFE813F0CC019301A50115
:107F4000B80141016C0186010DF10C082F4A002394
:107F500053600393C8E90233C8F8103001206FE77B
:107F6000DFF8B4804FEA890443E702232B71CDE99F
:107F700004440DF10C08EB68039340460DF10A012F
:107F8000FFF7F4FD002800F0C1810499204A8B8896
:107F9000EB800B882B811F4800940423BDF80A4016
:107FA00001F0C2FE002840F0DE821B4B04EB84048B
:107FB00003EB84040123237469E701239A001A4424
:107FC00008EB8203002059680090082308F822007B
:107FD000124A104801F0A8FE00283FF458AF356857
:107FE0000A4A0DF10C08002353600393C8E90233D9
:107FF000C8F810300E2023E78C3C00205C3C0020A9
:10800000843C0020782D0020443D00206C3C002062
:10801000284B030080350020903C00202C4B0300AF
:10802000743C0020072B00F28382DFE813F0FA0192
:10803000810281029D01E60178017801C001BF4BF8
:108040001B78002B00F05381DFF8F4E2BEF80490B7
:10805000B9F1010F15D8DFF80C8309EB890208EBA1
:108060008202043212F8043C002B00F0088209F16D
:10807000010399B201299946AEF8043002F11402C5
:10808000F0D90DF10C0808220021AD480CF0F1FAEE
:108090000020C8F808000390C8E903003568CFE65F
:1080A000DFF8C08298F80030022B00F0688298F860
:1080B0001430022B81D0A14B0DF10C0800200122BD
:1080C0001A7003905860C8E90200C8F81000B7E6BB
:1080D0009C4A9D481168002302242B719480012240
:1080E00001F0B6FE78E7974C984A21689648DFF889
:1080F00074824FF0000985F804900823CDF80090B1
:1081000001F012FE924B25685B88A18803EB830384
:1081100008EB830208F8239053682360022355601C
:108120001181A38058E7874B8A4A19688648012342
:108130002B7100230093082301F0F6FD4CE7BCF8F7
:108140000230DFF8208203EB830308EB8308D8F8C2
:108150000C30002B00F0DC817A4B7B48196802223E
:108160009A8005228CF800200023012201F070FE85
:1081700000283FF48CAE0DF10C08002341F61D528F
:108180003568C8F808300393C8E90333904208BF44
:10819000184655E6DCF804206A485388848801684C
:1081A000694801EB84010333002400949BB203244B
:1081B0009B008CF8004001F0B7FDD9E7664BAA6937
:1081C00066491A604FF0000B1846C3F804B0FFF779
:1081D000CDFC002800F0CA810223AB750423514670
:1081E000CDF800B0EA18584801F09EFD00283FF491
:1081F0004EAEAB7DEA88022B4FF00E0026D84C44E1
:1082000008EB8408B8F80A30033B9B1AA8F80A3038
:10821000B1E7524B504AB3F800A051684A48504A5F
:1082200000234FF0060C85F816C00093042301F0DC
:108230007BFD0028DDD10AEB8A0A08EB8A080123BE
:1082400088F8103023E6EA8841F61D5004EB090156
:1082500008EB8101D31C0A8913440B81EA88CEE71D
:10826000032A0CBF052306230022AB750AF1040183
:108270000092042305F10802334801F055FD00285F
:10828000B7D104E62B693048002B14BF0323012328
:108290000022AB750AF108010092042305F10C02DB
:1082A00001F042FD0028A4D1F1E5EB882A692648B7
:1082B0004FF0010C85F816C04FF0000C0AF10C01CC
:1082C0009B00CDF800C001F02FFD00283FF4DFAD8A
:1082D0008FE702230022AB75042300925146EA186F
:1082E000194801F021FD00283FF4D1AD81E70DF1DF
:1082F0000C080822214612480CF0BBF90394C8E987
:108300000244C8F810403568022099E50A2000238D
:10831000C8E90033C8E90233C8F8103090E5094BCA
:108320000C4A1968084800230093CCF8043007234E
:108330008CF80030082301F0F7FC19E76C3C0020B2
:10834000583D0020483D0020803500202C4B030084
:10835000743C0020344B0300503C0020543D00206E
:10836000284B0300903C0020884ADCF804109388D6
:10837000498803330B44022193808CF80010FFF7E7
:108380006FFCF5E6BCF80220DFF81082930013447E
:1083900008EB830806200023D8F804107C4A0093D9
:1083A0008CF8000008237B4801F0BEFCE0E60123C6
:1083B0008CF800309CF80A304BB1DFF8E081D8F837
:1083C0000C3000228CF80A20002B00F0AB809CF8C7
:1083D0000B30002B43D0DFF8C481D8F820300022C6
:1083E0008CF80B20002B3AD198F82430BBB3012332
:1083F000ACF80230FFF734FCBAE6BCF80220DFF834
:108400009C81624C9300991808EB810120684D68AB
:10841000B4F804E0486002202560A1F808E0A080DC
:10842000B5E7DFF87881BCF8081098F8142098F8C0
:108430000030B2FA82F252090131B3FA83F35B09D8
:108440008CF80B20ACF80810002201218CF80A30BF
:10845000ACF802208CF80C208CF80010ACE70DF181
:108460000C080020C8F808008CF80000ACF80200E6
:10847000CCF804000390C8E903003568E0E4136811
:10848000DEF8001003F5805C03F1080A002968D0CB
:108490004B88033301EB83018C4505D8CEF80040AF
:1084A000E5E5EA880F20D1E60B680133F6D04B886A
:1084B000033301EB83039C45F0D38888B8421AD07C
:1084C000B1F800B0BBF1000F15D0EB88CEF800106A
:1084D0008342DBD1002300932F4A2E48042301F06E
:1084E00023FC00284DD109EB890908EB89080123F9
:1084F00088F81030CBE49C45D0D919680131194671
:10850000CCD05888033003EB80039C45D5D2C5E717
:1085100004228CF80020D8F804101E48012201F033
:1085200097FC25E698F81020002A3FF450AF5FE74B
:10853000013B062B3FF67BAC01A252F823F000BFB3
:108540005D8502007F830200958102003F81020069
:108550002F7E0200858302001F8302009CF80A30F0
:108560002AE7514698E735680E20D0E60DF10C0851
:108570000390C8E90200C8F810000A2060E4002354
:108580001CE535680E200DF10C08C0E6483D0020C2
:108590002C4B030080350020284B0300903C00202A
:1085A0004068FFF7CDBB00BF38B5084B1A68042AF6
:1085B0000AD01D68064C02460121184644F82520C1
:1085C00000F068FF002038BD0C2038BD503D002071
:1085D0005C3C00202DE9F04FA34C8BB022780023A7
:1085E000CDE90533CDE90733099372B19F4C04F10E
:1085F000100554F8043B05A803B19847A542F8D1EB
:10860000002528460BB0BDE8F08F201D02F0FF06C4
:1086100000F058FF07460028F2D14FF010234FF02A
:1086200080525B6911695269DFF86482581C08BF87
:1086300002FB01F3C8F810308D49A3F540534046C2
:108640000022C8F80C3001F045FB05460028D8D1BF
:108650001C238C2287498848DFF838A200F0CAFD25
:10866000D8F80C90DFF83082029609F5405348465E
:108670004FF0030B2A469946002800F099800368C2
:108680007E498B4240F0948043687D498B4200F0E4
:10869000058101318B4240F08B80029B63B102EB7C
:1086A000820C08EB8C0102260132DAF8003008F85F
:1086B0002C6092B24B600E818168CAF800004FF0C6
:1086C000020C0131AAF804C000F5805300F108063D
:1086D0002CD04189033106EB81008342C0F0A58094
:1086E00060464FF6FF7E0192B6F804C0F4450FD005
:1086F000B6F800C0BCF1000F0AD0624AD6F808C034
:108700001268944504D95F4AC2F800C071880331E9
:10871000084480B2AAF804007188033106EB810690
:10872000B34277D80228019A40F01F8104210F43F9
:1087300099451846A0D1BBF1010F7CD9FFB2022F99
:1087400079D0062F00F08180002F74D004A94A4808
:1087500000F08AFD1C22044600210BF08AFF002C49
:1087600000F001810123013F23700A2F09D8DFE8BF
:1087700007F019081908160816081C061C00022321
:10878000237104A93C4800F09BFD01213E4800F004
:1087900075FE00287FF434AFFFF7D2FA31E70123EA
:1087A0002371EEE700232371EBE703232371E8E74E
:1087B00000F58053014601E08B4214D00E6801366B
:1087C00001F10401F8D002EB820108EB81060BF104
:1087D000FF3B01324FF0030C1FFA8BFB92B208F8FB
:1087E00021C07060A4E7DAF8001031B3274E02EB25
:1087F000820108EB810C7280022602F1010E08F85A
:1088000021601FFA8EF2CCF80400ACF8086047F043
:1088100001078DE73168013184D07188033106EB9F
:10882000810C6345BFF460AF019A4FF48061AAF8F0
:10883000041008217BE70B25E3E60221AAF80410C7
:108840000121CAF800000291E1E7084D012200234E
:10885000227005F11006636055F8043B05A803B1CA
:108860009847AE42F8D1CBE66C3C00205C3C00203F
:10887000584D0300B83C0020782D0020DEC0ADDE4E
:10888000FE011EF1883C0020443D0020743C002085
:1088900080350020483D0020903C00209300039349
:1088A000134408EB830C002108F823104FF0020357
:1088B000ACF80830CCF804008668013600F5805327
:1088C00000F1080140D0408900F1030E01EB8E0E4B
:1088D00073452FD302260192E646B1F804C04FF645
:1088E000FF72944537D0B1F800C0BCF1000F32D010
:1088F0001F4AD1F808C01268944505D91C4ABEF831
:108900000860C2F800C0488806440336B6B2AEF824
:1089100008604888033001EB80018B4219D9086850
:10892000013016D0488800F1030C01EB8C0C634534
:10893000D3D2019A0399114408EB81014FF480606E
:108940004FF001060E740881013292B247F002071F
:10895000EEE6019AF8E74FF001028EF81020488801
:10896000BEF80860D0E708254BE60821DFE600BF27
:10897000883C002008B301B370B582B00C460DF1FD
:1089800006010546FFF7F2F8A0B1BDF806000C4B52
:108990006E6800EB800003EB800001210C3000F0DA
:1089A00079FD26606B6801220C3300206360AA7297
:1089B00002B070BD0A2002B070BD0520704700BF34
:1089C000903C0020E8B110B582B00DF106010446DC
:1089D000FFF7CCF890B1BDF806300C4A03EB8303E7
:1089E00002EB8303DA6872B1A27A62B1DA6800211D
:1089F000013A0846DA60A17202B010BD0A2002B046
:108A000010BD05207047062002B010BD903C00202C
:108A10001E4B1B78C3B1D0B1CB1C9BB240F2FD32D0
:108A2000934222D8F0B41A4A16783EB9558914896F
:108A30002C441C44A4B2B4F5806F19D3147D4CB1FE
:108A400007231846F0BC70470223184670470523D9
:108A500018467047D58B948B2C441C44A4B2B4F5B3
:108A6000806FEDD20126374603E009231846704790
:108A70003746BC003C4402EB84022B445381068001
:108A8000418000231846F0BC704700BF6C3C0020BA
:108A9000903C0020134B1A78D2B1034600B30288F1
:108AA000022A17D810B41048598802EB820200EB52
:108AB00082028C1C508984420EDAC1F57F41FD315F
:108AC0000024014451811C6020465DF8044B70472E
:108AD000022070470420704704205DF8044B704763
:108AE000052070476C3C0020903C0020484B1B78D0
:108AF000002B32D0002934D00A884FF6FF739A42F7
:108B000029D04B883BB34B689B072CD12DE9F04310
:108B1000B1F8088008F103039BB240F2FD329342A2
:108B200083B01CD83B4A17783FB95689148934441E
:108B30001C44A4B2B4F5806F17D3147D3CB9D68B16
:108B4000948B34441C44A4B2B4F5806F5DD30720E9
:108B500003B0BDE8F083042070470220704709206D
:108B6000F6E70520704703207047BC464FEA8C09A2
:108B7000E14402EB890933440C46054601A9264825
:108B8000A9F80A3000F070FB1C22064600210BF009
:108B900070FD5EB302234FF00009B782337086F890
:108BA00016906368336101211C4800F073FCF0608B
:108BB000238833816388B38001A9A6F80A90A6F8B8
:108BC0000680154800F07CFB45B1C5F80490F268BA
:108BD000134B2A601B8985F80A902B8101211148CB
:108BE00000F04CFC044660B10020B1E7B9F80A304F
:108BF000C8F57F4808F1FD089844A9F80A800820C4
:108C0000A6E7FFF79DF82046A2E70127BC46ADE79F
:108C10006C3C0020903C0020782D0020883C0020F7
:108C2000743C0020443D0020002A50D0364B1B7875
:108C3000002B4AD000294AD02DE9F0430C884FF68A
:108C4000FF739C4283B046D04B88002B43D04F68C3
:108C500017F003073DD10C46064601A92B48B2F890
:108C60000090B2F8028000F0FFFA1C220546394657
:108C70000BF0FFFC002D32D00223AF75A5F8149045
:108C80002B7063682B610121214800F003FCE86030
:108C900023882B816388AB8001A9A5F806806F81AA
:108CA0001A4800F00DFB36B17760EA68194B326064
:108CB0001B89B77233810121174800F0DFFB04469E
:108CC000E8B1002003B0BDE8F08302207047052022
:108CD00070470320F6E7042003B0BDE8F0830F4B94
:108CE00009EB890903EB8909C8F57F48B9F80A300F
:108CF00008F1FD089844A9F80A800820E2E7FFF788
:108D00001FF82046DEE700BF6C3C0020782D0020D5
:108D1000883C0020743C0020443D0020903C002012
:108D2000002836D0484B1B78002B30D0002930D09B
:108D30000A884FF6FF739A422FD04B886BB34B686B
:108D40009B0728D12DE9F043B1F8089009F10303FE
:108D50009BB240F2FD32934283B020D83B4A157853
:108D60003DB9578914893C441C44A4B2B4F5806FC2
:108D700017D3147D3CB9D78B948B3C441C44A4B2CC
:108D8000B4F5806F5BD3072003B0BDE8F083022009
:108D90007047052070470320704704207047092062
:108DA000F2E7A846AC464FEA8C05654402EB850520
:108DB0003B4406460C4626486B8101A900F054FA54
:108DC0001C22074600210BF054FC57B30025032357
:108DD000A7F814803B70BD7563683B6101211D4895
:108DE00000F058FBF86023883B816388BB80042334
:108DF000A7F80690BB753368BB6101A97D81144853
:108E000000F05EFA7560FA68134B32601B89B57228
:108E100033810121114800F031FB044658B1284646
:108E2000B2E76B89C9F57F4909F1FD099944A5F8B5
:108E30000A900820A8E7FEF783FF2046A4E74FF03A
:108E40000108C446AFE700BF6C3C0020903C002006
:108E5000782D0020883C0020743C0020443D0020F8
:108E6000184B1B7823B34FF6FF7398421ED070B592
:108E700082B001A90446144800F0F6F91C22054608
:108E800000210BF0F6FBADB105230126EC8001A912
:108E90002B702E710C4800F013FA31460B4800F08D
:108EA000EDFA044648B1002002B070BD04207047BE
:108EB00002207047082002B070BDFEF741FF204637
:108EC00002B070BD6C3C0020782D0020443D002095
:108ED000194B1B78EBB110B582B001A9174800F00F
:108EE000C3F91C22044600210BF0C3FB0CB306237C
:108EF000237001A9114800F0E3F9114B1A7852B917
:108F00000121104800F0BAFA044668B1002002B00E
:108F100010BD02207047012201210A481A7300F097
:108F2000ADFA04460028F1D1FEF70AFF204602B050
:108F300010BD082002B010BD6C3C0020782D002030
:108F4000743C0020443D00202DE9F043344C24784B
:108F5000002C60D03AB333B39F88012F5ED8314CD8
:108F600007EB870C013704EB8C0CBFB24FF6FF7E8A
:108F70004FF000089CF8004074B91C68DCF80450FD
:108F800005F58056002C43D06588033504EB850435
:108F9000B4420BD3C3F80080022F9F800CF1140C55
:108FA0003CD00227E6E70520BDE8F08325680135BF
:108FB000F0D06588033504EB8505AE42EAD3B4F8FA
:108FC0000490F14515D0B4F80090B9F1000F10D01D
:108FD0001C60A5888542D1D125888D42CED1A1685B
:108FE00011601968104B51601B8913810020BDE886
:108FF000F083AE42CED92C6801342C46CAD0B5F8E5
:10900000029009F1030905EB8905AE42D7D2C1E709
:1090100005F10804BCE70220BDE8F0830A20C3E79D
:109020006C3C0020903C0020743C0020334B1B78AB
:10903000002B5CD051B34AB32DE9F0419588012D46
:109040005AD82F4F05EB850307EB830701353B7893
:10905000ADB24FF6FF7C4FF0000E43B1022D95806C
:1090600007F1140748D03B780225002BF6D113688E
:109070007C6804F58056002B3BD05C88033403EBFE
:109080008403B34204D3C2F800E0E7E70520704749
:109090001C680134F7D05C88033403EB8404A642D7
:1090A000F1D3B3F80480E04512D0B3F80080B8F1F2
:1090B000000F0DD013601C888442D9D19B680B60CF
:1090C0001268104B4A601B890B810020BDE8F081BB
:1090D000A642D8D9236801332346D4D0B4F80280FD
:1090E00008F1030804EB8804A642DAD2CBE7022099
:1090F000704704F10803C4E70A20E7E76C3C00204E
:10910000903C0020743C0020334B1B78002B5CD03B
:1091100051B34AB32DE9F0419588012D5AD82F4F0C
:1091200005EB850307EB830701353B78ADB24FF6BE
:10913000FF7C4FF0000E43B1022D958007F114071C
:1091400048D03B780225002BF6D113687C6804F5E3
:109150008056002B3BD05C88033403EB8403B3427E
:1091600004D3C2F800E0E7E7052070471C6801342B
:10917000F7D05C88033403EB8404A642F1D3B3F840
:109180000480E04512D0B3F80080B8F1000F0DD094
:1091900013609C888442D9D19B680B601268104B85
:1091A0004A601B890B810020BDE8F081A642D8D916
:1091B000236801332346D4D0B4F8028008F10308B1
:1091C00004EB8804A642DAD2CBE70220704704F110
:1091D0000803C4E70A20E7E76C3C0020903C00202D
:1091E000743C002020B119B103680B600020704767
:1091F0000520704799B110B4B2FBF3F403FB1424BB
:10920000A4B244B9C0E9001484608281C3812046BD
:109210005DF8044B704709205DF8044B70470E2041
:10922000704700BF82B050E8022FC188B2EB324FC6
:109230004FF0000317BF92B241EA014142EA0141F7
:1092400004E04268B2EB324F08BF012340E802124B
:10925000002AE8D18DF807309DF80730002B0CBFAD
:109260001120002002B0704730B482B050E8013FB6
:109270009DB2C48925448489A54228BF2D1B048939
:10928000A54202BFBFF32F8F002207E0C5EA030506
:1092900040E80154002CE9D14FF001028DF8032081
:1092A0000193019B9DF803200B602AB10B88006895
:1092B000184402B030BC704702F0FF031846F8E7CC
:1092C0000A884B889A4201D00020704750E8012F4D
:1092D000C2EA024240E80123002BF7D10120704787
:1092E00030B482B050E8023F1FFAA3F5C488A5420B
:1092F00002BFBFF32F8F00220DE0C489254484896B
:10930000A54228BF2D1BC3EA054540E80254002CA6
:10931000E8D14FF001028DF803200193019B9DF8E5
:1093200003200B602AB14B880068184402B030BC9F
:10933000704702F0FF031846F8E700BF0A884B8821
:109340009A4201D00020704750E8022FC2EA224220
:1093500040E80223002BF7D10120704701F01F02E3
:109360004B09012100EB8300914000F06FB800BF72
:1093700001F01F0201234909934000EB8100D9430A
:1093800000F070B84B0901F01F0150F82300C840ED
:1093900000F00100704700BF2DE9F84F01F1FF39DF
:1093A0004FEA591300F104090F46064609EB8309F9
:1093B000044600254FF0010823686FEA030B9BFA6F
:1093C000ABFBBBFA8BFBBBF1200F20D0AB445F455E
:1093D0000CD81CE02368DB4393FAA3F3B3FA83F3BE
:1093E000202B05EB030B12D05F4510D90BF01F0AA1
:1093F0004FEA5B1008FA0AF106EB800000F01AF859
:1094000020FA0AF0C307E5D45846BDE8F88F0434C3
:109410004C4505F12005CFD1BB465846BDE8F88F35
:1094200050E8002F0B4640E8003C9CF0000FF7D1BD
:109430001046704750E8002F42EA010340E8003C24
:109440009CF0000FF6D11046704700BF50E8003F77
:1094500043EA010240E8002C9CF0000FF6D11046D0
:10946000704700BF50E8003F03EA010240E8002CCB
:109470009CF0000FF6D11046704700BF50E8002F57
:1094800002EB010340E8003C9CF0000FF6D11046CF
:10949000704700BF50E8003F03EB010240E8002C9A
:1094A0009CF0000FF6D11046704700BF50E8003F17
:1094B000A3EB010240E8002C9CF0000FF6D110460F
:1094C000704700BF012350E800CF4CEA030240E898
:1094D000002191F0000FF6D160467047012350E85B
:1094E000002F42EA030C40E800C191F0000FF6D1D2
:1094F00060467047002350E800CF0CEA030240E8C2
:10950000002191F0000FF6D160467047B8B130B439
:10951000D0E90112521A0468D2B2531E2160DBB2A4
:1095200042B101680A685C1E551C0D601370E3B2FD
:10953000FF2BF6D103680020187130BC70470E2055
:10954000704700BFF0B583B002AB002503F8015DA2
:1095500004461846FEF7CCFAD4E900311A688A426C
:1095600010D9511E19602168A3680F6812F8015CB8
:109570000A79A68AE068DB1BDBB29A4206FB050586
:1095800038BF0B719DF80700FEF7D8FA284603B0E4
:10959000F0BD00BF30B583B002AB002203F8012D4F
:1095A000054618460C46FEF7A3FA2A681368591CAC
:1095B0001160E968AA8A641AB4FBF2F41C709DF881
:1095C0000700FEF7BBFA03B030BD00BF826842B1AE
:1095D00010B5044643690168006998470023A360F9
:1095E00010BD70470EB400B582B0039929B102AA2C
:1095F00004AB42F8043D00F08BF802B05DF804EBD8
:1096000003B070472DE9F84F884690451746054648
:109610001E46DDE90AB175D343464FF00109B3FB9D
:10962000F7F39F4209F10109F9D9B14538BFB146B5
:1096300011F0010AAA6802D1BBF1000F43D1012445
:1096400002E0013E07FB04F4012EFAD8B8FBF4F166
:109650008F42F7D92D4E05E0B4FBF7F4A4B1B8FB67
:10966000F4F1AA68705C531CAB602B689854D5E980
:1096700001329A4204FB1188EED32846FFF7A6FF79
:10968000B4FBF7F4002CEAD1BAF1000F15D0BBF10E
:10969000000F12D0CB4510D92024AB682A68591C82
:1096A000A960D454D5E901329A420BF1FF3B06D2AE
:1096B000BBF1000F01D0CB45EFD1BDE8F88F2846B4
:1096C000FFF784FFF4E78B0717D42024CB45B6D9E6
:1096D0002B68511CA9609C54D5E901329A420BF1C8
:1096E000FF3B05D2BBF1000FA9D0CB45F0D1A6E7D7
:1096F0002846FFF76BFFAA68F4E7002E0CBF302462
:109700002024E3E74FF001098FE700BF4C4B030033
:10971000002900F0F4812DE9F04F054685B092460E
:109720000C460B78DFF8A8B501E0237893B101343B
:1097300083B1252B15D0AA682968501CA8608B54CA
:10974000D5E901329A42F0D32846FFF73FFF23784C
:10975000002BECD12B7B002B40F0148105B0BDE831
:10976000F08F2146002711F8012B2D2A00F0E1800F
:10977000302A00F0E2802B2A00F0D2802A2A00F062
:10978000E080A2F13006F3B2092B03D9B8E1A3F1CE
:1097900030060146084606EB860310F8012BA2F1BD
:1097A0003004092C02EB4303F1D92E2A00F0D580B6
:1097B0000023013101E011F8012B02F0FB006828C1
:1097C0000C46F8D0253A532AAFD801A151F822F01F
:1097D000919902002B9702002B9702002B97020011
:1097E0002B9702002B9702002B9702002B97020069
:1097F0002B9702002B9702002B9702002B97020059
:109800002B9702002B9702002B9702002B97020048
:109810002B9702002B9702002B9702002B97020038
:109820002B9702002B9702002B9702002B97020028
:109830002B9702002B9702002B9702002B97020018
:109840002B9702002B9702002B9702002B97020008
:109850002B9702002B9702002B9702002B970200F8
:109860002B9702002B9702002B9702002B970200E8
:109870002B9702002B9702002B9702002B970200D8
:109880002B9702002B9702002B9702002B970200C8
:109890002B9702002B9702002B970200AB99020036
:1098A0002B9702002B9702002B9702002B970200A8
:1098B0002B9702002B9702002B9702002B97020098
:1098C0002B9702002B970200C5990200E79902002E
:1098D0002B9702002B9702002B9702002B97020078
:1098E000E79902002B9702002B9702002B970200AA
:1098F0002B9702002B9702002B970200379A020049
:109900002B9702002B970200AB9A02002B970200C4
:10991000E59A02002B9702002B970200AB990200F8
:1099200047F004070C46214611F8012B2D2A7FF43D
:109930001FAF47F001070C46F5E747F002070C465A
:10994000F1E7DAF800301A1DCAF8002062781E68C4
:109950002E2A04F102007FF42BAF4A78A2F13003E3
:10996000092B00F25081002303EB830302EB430336
:1099700010F8012FA2F130010929A3F13003F3D926
:10998000014616E7284605B0BDE8F04FFFF71EBEBA
:10999000AB682A68591CA9604FF02501D154D5E95C
:1099A00001329A42FFF4C1AECEE6DAF80020111D72
:1099B000CAF8001011682846CDE900671022FFF7A9
:1099C00021FEB2E6DAF80020131DCAF80030AB68B9
:1099D00029681278581CA860CA54D5E901329A4205
:1099E000FFF4A3AEB0E6DAF80020111DCAF80010AB
:1099F000D2F8008088EAE872A2EBE872092A4FF0F8
:109A0000010107DDB148A0FB0202D208092A01F1D9
:109A10000101F7DC994238BF1946894607F0020276
:109A2000002E71D12AB1002B00F04B81FA0700F112
:109A30008D8000268AE0DAF80020131DCAF8003075
:109A4000AB6829681768581C3022A860CA54D5E949
:109A50000123934280F02C812A68581C7821A86049
:109A6000D154D5E90123934280F01D810F2F03D9F2
:109A70003A4612090F2AFCD84FF0805603E0360907
:109A80003FF453AEAB682968B7FBF6F2581CA860E8
:109A90001BF80200C854D5E90131994206FB127740
:109AA000EDD32846FFF792FDE9E7DAF800301A1DFA
:109AB000CAF80020D3F80080FB077ED54746A7EB05
:109AC000080917F8013B002B5DD0AA682968501CD3
:109AD000A8608B54D5E901329A42F0D32846FFF7AB
:109AE00075FDECE7DAF80020111DCAF800101168C6
:109AF0002846CDE900670A22FFF784FD15E6704786
:109B000008460026214650E6B8F1000F01DB780731
:109B100000D5013E02B1CBB1F90717D4002E88D091
:109B2000B14513D220220393A9682B68481CA86072
:109B30005A54D5E90131994206F1FF365DD2002E23
:109B400000F0C180B145EFD1039B4E46B8F1000F44
:109B5000C0F296807A070AD5A9684A1CAA602A68CA
:109B60002B205054D5E90121914280F0968007F0D6
:109B70000302022A5FD0CDE9006741460A22284647
:109B8000FFF740FDD1E54E457FF6CFAD202705E03C
:109B90004E453FF4CAAD002E3FF4C7ADAB682A680E
:109BA000591CA960D754D5E901329A4206F1FF3613
:109BB000EED32846FFF70AFDEAE7B8F1000F24D0FC
:109BC00040460AF05EFD0746BE4220D9FEB14FF086
:109BD000200902E0BE421AD0CEB1AB682A68591CF7
:109BE000A96002F80390D5E901329A4206F1FF36E6
:109BF000F0D32846FFF7EAFCECE728460292FFF78D
:109C0000E5FC029A9BE70146D2E54746DCE708F10E
:109C1000FF3818F8013F002B3FF487ADAA68296888
:109C2000501CA8608B54D5E901329A42F1D32846E2
:109C3000FFF7CCFCEDE7002B9DD1002E3FD0B145C6
:109C400099D2029323464C46B1461E46AA682B6819
:109C5000501C4FF03001A8609954D5E901329A4266
:109C600009F1FF3908D2B9F1000F26D04C45EDD1EA
:109C70003446029B4E467EE72846FFF7A7FCF2E7F4
:109C8000A9684A1CAA602A682D205054D5E90121F0
:109C90009142C8F10008FFF46AAF28460293FFF72B
:109CA00095FC029B63E72846FFF790FCAB68DDE676
:109CB0002846FFF78BFCAB68CEE6029B34460026B5
:109CC00059E71E4642E7039BB3E600BFCDCCCCCCA0
:109CD0004C4B030010B582B038B1A9B101600B68DC
:109CE000114602B0BDE8104018470A4A0A4B1088D6
:109CF0000A4A0B490E24000440F001000094FCF7CE
:109D00007BFF0E2002B010BD024A034B1088054AAB
:109D1000EFE700BF6C3500205C4B0300104C0300E4
:109D2000184C0300444C03002DE9F04182B0002898
:109D300050D0002A5ED0D0F800C0BCF1000F63D034
:109D40001C46002B31D04768D7F80480B3FBF8F7E6
:109D500008FB1737002F38D18F0721D112F0030FDE
:109D60004DD1C768B9420FD22E4A2F4B10882F4AC7
:109D70002F491024000440F001000094FCF73CFF40
:109D8000204602B0BDE8F0814E1E05693444AC4265
:109D9000EAD8DCF80C40A44602B0BDE8F0416047C8
:109DA000204A214B1088234AE2E71E4A1E4B1088A6
:109DB000214A1F490924000440F001000094FCF7E7
:109DC0001BFF204602B0BDE8F081164A164B1088F2
:109DD0001A4AEEE7134A144B1088194A14490E2404
:109DE000000440F001000094FCF706FF204602B09A
:109DF000BDE8F0810B4A0C4B1088124AEEE7094A85
:109E0000094B1088104AB3E7064A074B10880849E7
:109E10000E4A0824000440F001000094FCF7ECFE18
:109E20002046AEE76C350020704B0300144D030054
:109E3000184C0300D84C0300544C0300AC4C0300F6
:109E4000104C0300A44C0300F04C0300984C03009A
:109E5000F0B583B000283FD0D0F800C0BCF1000FAF
:109E600048D02AB34768D7F800E00EF1FF370F4219
:109E70002DD1C768B9420ED2254A264B1088264AF2
:109E800026491024000440F001000094FCF7B4FEC1
:109E9000204603B0F0BD4D1E04690EFB0255A542DD
:109EA000EAD8DCF81040A44603B0BDE8F0406047B3
:109EB000174A184B10881949194A0924000440F020
:109EC00001000094FCF798FE204603B0F0BD104A54
:109ED000104B1088134AD3E70D4A0E4B10880F49D8
:109EE000114A0E24000440F001000094FCF784FEA7
:109EF0002046CEE7064A074B108808490B4A08243B
:109F0000000440F001000094FCF776FE2046C0E714
:109F10006C350020844B0300C04B0300184C030039
:109F2000544C0300984B0300104C0300984C030062
:109F300018B103680BB1DB69184770B50D4C0E4DB5
:109F40000E4B2D1BA3FB05352D0910D005EB850508
:109F500004EB850501E0AC4209D0236820461434A7
:109F6000002BF8D0DB6998470028F4D070BD0020A2
:109F700070BD00BF8035002094350020CDCCCCCC06
:109F800029DF704728DF7047084670470020704778
:109F9000024B187A003018BF01207047EC3D0020BA
:109FA000034B187A0122B0FA80F05A7440097047C6
:109FB000EC3D002008B510461A460AF036FB00209A
:109FC00008BD00BF08B51422002104480AF051FB67
:109FD0000348FFF727F9002008BD00BFEC3D002033
:109FE0008C2D002010B5094C094B43602046FFF72B
:109FF00069FA40B90AF03AF91C2320748C22054909
:10A000000548FFF7F7F8002010BD00BFEC3D002029
:10A010004C4D0300603D00208C2D002030B55E4C7F
:10A02000237A87B0002B3AD05C4B1B680222227245
:10A030001A79002A3ED0012A0CD1D3E90302104438
:10A04000FFF7A0FF002849D0112803D10123237274
:10A0500007B030BD19688A68C2B100226846009214
:10A06000C0E902220325026101959A6805921A79D6
:10A07000002A4BD0012A07D102228DF80020DA688D
:10A08000120302925B6904938B689847002344494A
:10A09000444823726360FFF751F907B030BD40496F
:10A0A0004048FFF71DF93D4A034610600028BDD126
:10A0B0006060F2E7D3E90525521BB2F5805F28BF47
:10A0C0004FF48052D3E903109208012A38BF0122CD
:10A0D00029442844FFF754FF0028B5D1227C002AE8
:10A0E000DBD1227A002AD8D0022A0AD1E0601A797C
:10A0F000DAB1012A05D1D3E9042101328A421A6179
:10A100001FD0637C73B10AF0A1F8C6E701228DF875
:10A1100000201A690292DA6803925B6904938B68E3
:10A120009847B3E7FFF77AFFB7E7D3E90512881A34
:10A13000B0F5805F94BF121802F5805291429A6187
:10A14000DFD10022227219688868A8B1684600929F
:10A15000C0E90122C0E903229A6805921A7982B106
:10A16000012A07D102228DF80020DA681203029238
:10A170005B6904938B68984709490A48FFF7DEF842
:10A18000BFE701228DF800201A690292DA68039273
:10A190005B690493EEE700BFEC3D0020043E002025
:10A1A000003E00208C2D00202DE9F04782B0824631
:10A1B0008946174801A990461F46FFF755F810B386
:10A1C000044600211C220D46124E0AF052FA0A9B48
:10A1D000C4F800A0A360C4E90389676101A92571DF
:10A1E0000B48FFF76DF8301DFFF76CF938B9747C38
:10A1F00034B9FFF713FF204602B0BDE8F0872846C8
:10A2000002B0BDE8F087042002B0BDE8F08700BFCF
:10A210008C2D0020EC3D00202DE9F04383B08146D9
:10A220000D46164801A917469846FFF71DF808B3D2
:10A2300004461C2200210AF01CFA114EC4F80090BA
:10A2400001232D0BC4E90285676101A923710B4825
:10A25000FFF736F8301DFFF735F938B9747C34B99B
:10A26000FFF7DCFE204603B0BDE8F083002003B01A
:10A27000BDE8F083042003B0BDE8F0838C2D0020FE
:10A28000EC3D002000F0FD03012B00D0704730B5FD
:10A29000604CA0F10100B0FA80F0237A400900225E
:10A2A00087B020746274002B3AD05B4B1B6802228B
:10A2B00022721A79002A3ED0012A0CD1D3E9030276
:10A2C0001044FFF75FFE002849D0112803D1012375
:10A2D000237207B030BD19688A68C2B1002268468F
:10A2E0000092C0E902220325026101959A68059255
:10A2F0001A79002A4BD0012A07D102228DF80020BA
:10A30000DA68120302925B6904938B689847002312
:10A310004249434823726360FFF710F807B030BD2D
:10A320003E493F48FEF7DCFF3B4A034610600028E9
:10A33000BDD16060F2E7D3E90525521BB2F5805F1D
:10A3400028BF4FF48052D3E903109208012A38BF86
:10A35000012229442844FFF713FE0028B5D1227CAE
:10A36000002ADBD1227A002AD8D0022A0AD1E06062
:10A370001A79CAB1012A05D1D3E9042101328A42EE
:10A380001A611DD0637C63B109F060FFC6E701224A
:10A390008DF800201A690292DA6803925B690493CF
:10A3A000B3E7FFF73BFEB9E7D3E90512881AB0F52A
:10A3B000805F94BF121802F5805291429A61E1D1F8
:10A3C0000022227219688868A8B168460092C0E924
:10A3D0000122C0E903229A6805921A7982B1012A02
:10A3E00007D102228DF80020DA68120302925B691D
:10A3F00004938B68984709490948FEF79FFFC1E716
:10A4000001228DF800201A690292DA6803925B69D2
:10A410000493EEE7EC3D0020043E0020003E0020C7
:10A420008C2D0020831E012B00D9704730B58E4C37
:10A43000237A87B0002B31D0022B2BD103286BD18C
:10A44000E3680133082B79D9884B00221B68E2604E
:10A4500022720D2519688A68C2B1002268460092EE
:10A46000C0E90222026101959A6805921A79002AD0
:10A4700000F0B980012A07D102228DF80020DA68A5
:10A48000120302925B6904938B6898477849794874
:10A49000FEF754FF637C1BB109F0D8FE07B030BD56
:10A4A000237A002B5BD0714B1B68022222721A792F
:10A4B000002A5FD0012A0BD1D3E903021044FFF731
:10A4C00061FD002869D0112802D101232372E5E73C
:10A4D00019688A68C2B1002268460092C0E9022267
:10A4E0000325026101959A6805921A79002A70D0B5
:10A4F000012A07D102228DF80020DA6812030292A5
:10A500005B6904938B689847002359495948237223
:10A510006360FEF713FFC1E7544B00221B68E26043
:10A520001A796AB1012AB5D1D3E9042101328A42EC
:10A530001A6111D0637C002BAED1B4E7E360F9E778
:10A54000D3E90512881AB0F5805F94BF121802F59E
:10A55000805291429A61EDD1002525727AE74449F3
:10A560004448FEF7BDFE414A0346106000289CD1D6
:10A57000606093E7D3E90525521BB2F5805FD3E90C
:10A58000031028BF4FF480529208012A38BF0122DD
:10A5900029442844FFF7F4FC93E7227C002A7FF447
:10A5A0007DAF227A002A3FF479AF022A0AD1E06017
:10A5B0001A7912B3012A05D1D3E9042101328A4262
:10A5C0001A6126D0637C002B7FF466AFFFF726FD6F
:10A5D00064E701228DF800201A690292DA6803927A
:10A5E0005B6904938EE701228DF800201A690292BC
:10A5F000DA6803925B69049346E7D3E90512881A87
:10A60000B0F5805F94BF121802F5805291429A61B2
:10A61000D8D10022227219688868A8B168460092D1
:10A62000C0E90122C0E903229A6805921A7982B131
:10A63000012A07D102228DF80020DA681203029263
:10A640005B6904938B68984709490A48FEF776FED0
:10A65000B8E701228DF800201A690292DA680392A5
:10A660005B690493EEE700BFEC3D0020043E002050
:10A67000003E00208C2D0020FEF748BF2DE9F04160
:10A68000858ACE1C043D2E440746B6FBF5F6FEF740
:10A6900059FF78B3F6B24FF48073013E0446C5808B
:10A6A0000760838027D08046002509E06379AE42A9
:10A6B00003F101036371C8F80000076080461AD0F7
:10A6C0003846FEF73FFF01350028EFD16679721E4C
:10A6D00014D02346013082421B68FBD11F684EB163
:10A6E000002523682146013538461C46FEF752FFF7
:10A6F000AE42F6D100242046BDE8F0812768EFE79E
:10A7000004300121FEF7C6BEF8B50121044604302D
:10A71000FEF7CCFEC0B200B1F8BD6679721E12D051
:10A720002346013082421B68FBD11F68002EF3D004
:10A73000002523682146013538461C46FEF72AFFCE
:10A74000AE42F6D1F8BD2768F2E700BF2DE9F84325
:10A750000446181DE688B0FBF6F30F46904606FB4C
:10A76000130013B1013B2468FCD1351A454528BFBD
:10A770004546B8F1000F15D04FF000090430A8EBA2
:10A78000050820442A4607EB090109F04EFF46451B
:10A79000A944246835464FF0000028BF4546B8F16B
:10A7A000000FEBD1BDE8F8832DE9F843C6880433E8
:10A7B00004460F46B3FBF6F0904606FB103110B18D
:10A7C00001382468FCD1751A454528BF4546B8F1C3
:10A7D000000F15D04FF0000904312144A8EB050803
:10A7E0002A4607EB090009F020FF4645A9442468E2
:10A7F00035464FF0000128BF4546B8F1000FEBD1B8
:10A80000BDE8F88341DF7047064A074B10B50024C6
:10A8100014701C60BFF35F8F0449054800F032F8E4
:10A82000204610BD103E0020143E0020884D03003D
:10A83000083E002000B583B002A8002300F8013DC7
:10A84000FDF756F9F1EE103A23F09F03E1EE103ACE
:10A85000BFF35F8F0A4B4022C3F884219DF80700A5
:10A86000FDF76CF909F002FD28B920BF40BF20BFF9
:10A8700003B05DF804FBFFF7C5FF03B05DF804FB10
:10A8800000E100E001600B6843604A68934204BF46
:10A8900000234360704700BF436843B1026891687A
:10A8A0000B4443605268934204BF002343607047E7
:10A8B00030B4184DA5F59472AB1ADB1003EBD373CB
:10A8C0005B1002EBC30152F83330984228BF0C46AC
:10A8D00005D311E052F8333098420CD221468B1A3E
:10A8E000DB1003EBD3735B108A4202EBC304F1D39A
:10A8F000094830BC70470D46984204D904F108025B
:10A90000AA42D9D3F4E76068034B002808BF184671
:10A91000EFE700BFDC4E0300A04D030030B4904BC6
:10A920001B78062B20D08F4B1B68062B00F08580F0
:10A930008D4AD2F8883043F47003C2F88830BFF3F0
:10A940004F8FBFF36F8F4FF01023D3F80022002AF0
:10A95000C0F28681D3F80432002BC0F28181834B90
:10A96000834A1A6030BC7047824B1B681D07DAD1DE
:10A97000814B1B6803F0F002302A00F09E8003F048
:10A98000E003402B00F099807B4B1B6803F0F00341
:10A99000302B00F0B980784B1B6803F0F002302AAE
:10A9A00056D003F0E003402B52D0734B1B6803F0EA
:10A9B000F003302B00F0B6806F4B1B6803F0F00201
:10A9C000302A66D003F0E003402B62D06A4B1B684C
:10A9D00003F0F003302B00F0B580674B1B6803F0E9
:10A9E000F003302B79D0644B1B6803F0F003502B3D
:10A9F00000F0E480604B1B6803F0F002302A37D08F
:10AA000003F0E003402B33D05B4B1B6803F0F002F4
:10AA1000302A03D003F0E003402B84D14FF0804371
:10AA2000D3F80024D20744BF6FF00102C3F800241A
:10AA30004C4B1B68062B7FF47BAF504B1B68062BDF
:10AA40007FF476AF4E4A136843F4806313606FE778
:10AA50004C4B434A1B6812784B49C3F34233062AD6
:10AA60000B6048D1434B1B6819077FF45CAF9CE730
:10AA7000464A3B4B12681B78454902F04F02062BB1
:10AA80000A607FF450AF3B4B1B6819077FF44BAF54
:10AA9000BAE74FF080430022C3F80C21C3F810211D
:10AAA000C3F838252E4B1B78062B7FF43CAF314B77
:10AAB0001B681B077FF437AF88E7364B284A1B68B3
:10AAC00012783549C3F30423062A0B60EAD1294BD7
:10AAD0001B681C077FF427AF56E7304C204A3049EB
:10AAE00012783048304B0525256001250D60002483
:10AAF0003F2104601960062A7FF415AF1D4B1B68C7
:10AB00001C077FF410AF6EE7154B284A1B782849C5
:10AB10001160062B7FF407AF164B1B6818077FF4F4
:10AB200002AF38E723490E4BCA681B7822F08072C7
:10AB3000062BCA607FF4F7AE0E4B1B681A077FF432
:10AB4000F2AE39E7064B1C4A1B780321062B116035
:10AB50007FF4E9AE074B1B681D077FF4E4AE3CE7CA
:10AB6000E00F00F03001001000ED00E0A02D00200B
:10AB70000090D003E40F00F0E80F00F03401001063
:10AB80003C170040440200103C05004058020010F1
:10AB9000E40E0040240300104035014010560040F0
:10ABA00088560040185600401456004074C00740B4
:10ABB0000DF0ADBAF0ED00E0A00500404FF080537D
:10ABC000404AD3F80414C2F82015D3F80814C2F888
:10ABD0002415D3F80C14C2F82815D3F81014C2F8B1
:10ABE0002C15D3F81414C2F83015D3F81814C2F881
:10ABF0003415D3F81C14C2F84015D3F82014C2F849
:10AC00004415D3F82414C2F84815D3F82814C2F810
:10AC10004C15D3F82C14C2F85015D3F83014C2F8E0
:10AC20005415D3F83414C2F86015D3F83814C2F8A8
:10AC30006415D3F83C14C2F86815D3F840142248C0
:10AC4000C2F86C15D3F844140378C2F87015062BBB
:10AC50007FF469AE1D4B1B6818077FF464AEC9E62C
:10AC60001B4B0122C3F80425D3F80024002AFBD093
:10AC70004FF0102315221649C3F80022D1F80034F2
:10AC8000002BFBD04FF010221521114BC2F80412FB
:10AC9000D3F80024002AFBD000220D49C3F8042574
:10ACA000D1F80034002BFBD0BFF34F8F09490A4B7A
:10ACB000CA6802F4E0621343CB60BFF34F8F00BF5A
:10ACC000FDE700BF00C00040E00F00F0E40F00F01F
:10ACD00000E0014000ED00E00400FA05054A4FF0F5
:10ACE000A043105CD3F8043523FA00F0C04300F011
:10ACF00001007047CC520300044B195C4FF0A04296
:10AD000001238B40C2F80C35704700BFCC520300C2
:10AD1000044B195C4FF0A04201238B40C2F8083568
:10AD2000704700BFCC5203004FF0A04310B44FF463
:10AD300080204FF400344FF400214FF48012C3F808
:10AD40000845C3F80805C3F80815C3F808255DF8D9
:10AD5000044B70474FF0A04310B44FF480204FF4E1
:10AD600000344FF400214FF48012C3F80C45C3F8AF
:10AD70000C05C3F80C15C3F80C255DF8044B70479F
:10AD8000074B4FF0A041185CD1F8043501228240F6
:10AD900022EA03001340C1F80805C1F80C357047DA
:10ADA000CC520300054A4FF0A043105CD3F8103595
:10ADB00023FA00F0C04300F001007047C8520300BE
:10ADC0000D2809D00E2809D00F2809D010280CBF53
:10ADD00003204FF0FF30704700207047012070477C
:10ADE00002207047C20730B41AD54FF0A0430322A7
:10ADF000C3F844274FF40035C3F848274FF48024A4
:10AE0000C3F84C274FF40021C3F850274FF48012A9
:10AE1000C3F80855C3F80845C3F80815C3F8082552
:10AE200083070AD54FF0A0430C22C3F83427C3F898
:10AE30003827C3F83C27C3F8402730BC704700BF11
:10AE400010B570B101280BD10D4C2369A0703BB136
:10AE5000D3E900230120226198472369002BF7D111
:10AE600010BD074CA36801226270002BF8D0D3E913
:10AE700000230020A2609847A368002BF7D1EFE7DA
:10AE8000183E002070B910B5074CA368012262700B
:10AE90003BB1D3E900230020A2609847A368002BB0
:10AEA000F7D110BD704700BF183E002030B5012813
:10AEB00083B01CD015D3032811D100F0C9F802A823
:10AEC00000231F4C00F8013DFCF712FEE368013B34
:10AED000E360E56865B39DF80700FCF72FFE03B05B
:10AEE00030BD184B0122C3F8802003B030BD02A84A
:10AEF0000023134C00F8013DFCF7FAFD237853B111
:10AF0000E3689DF8070001330122E360A270FCF7BB
:10AF100015FE03B030BD0C486360A3602361E3609D
:10AF200000F088F809F0A2F930B101232370E7E7B7
:10AF300000F0A2F8A570CEE700F08AF8F5E700BFB0
:10AF4000183E002000E100E041AE020030B585B0BF
:10AF50000478094A094B45688DF80040047AC068B6
:10AF6000039053F8213001958DF8084052F82110D4
:10AF70006846984705B030BD2C3E0020303E00208A
:10AF800030B585B0047845688DF80040D0E90240BE
:10AF9000064A074B039053F8213001958DF808407D
:10AFA00052F821106846984705B030BD2C3E00206D
:10AFB000303E0020F0B51A4B06781A4D0C6991F816
:10AFC0001DE045F826400746174803F806E040F81C
:10AFD00026200C4694460FCC89B06D460FC594E8E8
:10AFE0000F0085E80F000496BEF1000F0BD0BCF1F6
:10AFF000000F0E4A694607F1040008BF002200F066
:10B00000FFFF09B0F0BDBCF1000F094A694607F126
:10B010000C0008BF002200F0C1FD09B0F0BD00BF68
:10B02000E84900202C3E0020303E00204DAF0200B9
:10B0300081AF0200054A13792BB9012110605371C9
:10B040001846117170478520704700BF343E0020BC
:10B05000084B1A68D20706D40122E02183F80013B6
:10B06000C3F880211A604FF080430122C3F81825ED
:10B07000704700BF00E100E0044B01221A604FF06E
:10B080008042D2F81834DB03FBD470470C00004038
:10B0900010B5154B1A6882B07AB10021134A1960B5
:10B0A0001B68507900934FF080410123009CC1F848
:10B0B000083310B91168537188470D4B1A6882B173
:10B0C00000221A601B6801934FF080420221074B57
:10B0D0000198C2F808131B68012002B0BDE81040B7
:10B0E000184702B010BD00BF00010040343E0020F0
:10B0F0000401004070B51E4C94F8585082B0A5BBB6
:10B100004FF0FF332946042204F15400C4E9003310
:10B11000C4E90233C4E90433C4E90633C4E908339B
:10B12000C4E90A33C4E90C33C4E90E33C4E910336B
:10B13000C4E91233236509F09CFA0E4B0E4A0F4EF8
:10B140001560E02183F806134021C3F880111960CF
:10B150001368019301994FF000430122284684F8B7
:10B160005820C6F8043302B070BD082002B070BD8C
:10B170003C3E002000E100E07C61004000600040B7
:10B18000034B93F85800003018BF0120704700BFF0
:10B190003C3E0020F0B56C4B1C1894F93050002D4B
:10B1A00068DA8E78C6F340069646002E5CD11D6A9A
:10B1B000013500F0B58009240C2553F824700137BF
:10B1C0005BD004F1010C53F82C70013700F0B38010
:10B1D000A71CAF4246D253F82720013200F0AD80C1
:10B1E00004F1030CAC453DD253F82C70013700F04C
:10B1F000A28004F1040CAC4534D253F82C70013712
:10B2000000F0998004F1050CAC452BD253F82C705A
:10B21000013700F0908004F1060CAC4522D253F8BF
:10B220002C70013700F0878004F1070CAC4519D26F
:10B2300053F82C7001377ED004F1080CAC4511D2C4
:10B2400053F82C70013776D004F1090CAC4509D2C3
:10B2500053F82C7001376ED00A34AC4202D2DC6A4B
:10B26000013409D00420F0BD1D68013567D00124E8
:10B270000825A2E70820F0BD0B241F1865B243F88B
:10B2800024E087F83050002E51D08A78540714D427
:10B29000D6073BD44C784FF0A04600F5E072A400EE
:10B2A00046F82240294EC40800F0070C375D012201
:10B2B00002FA0CF23A4332558A780C7812F0020204
:10B2C00009D1083D2B44104693F8502042EA8414DB
:10B2D00083F85040F0BDAB0003F1804303F5C04359
:10B2E0000202D3F8101521F4473121F44071C3F85C
:10B2F00010152404D3F8101504F4403402F4F85265
:10B3000022430A43C3F810250020F0BD820002F159
:10B31000A042D2F8004724F00204C2F80047C1E777
:10B32000082684F83060C3F820E0354634461C44D3
:10B3300084F84800A9E764469FE73C469DE700255E
:10B340001A6084F83050A0E73C3E0020903E002078
:10B3500070B42E4D2E1883B096F93030072B1CDDBB
:10B360002B4493F848309B09032B41D0012B14BF89
:10B370004FF440314FF40031800000F1A040D0F88C
:10B38000002722F44032C0F80027D0F800370B43E2
:10B39000C0F8003703B070BC7047DAB2072AF9D89A
:10B3A000980000F1804000F5C04003F14002D0F861
:10B3B0001045920092B244F0010402F18042C0F8BC
:10B3C000104502F5C04200200190019C1060002948
:10B3D000E0D096F9302055F82220002ADAD0012258
:10B3E0000B4902FA03F3C1F8043303B070BC704791
:10B3F0004FF0A043D3F81035C34013F0010F0CBF3A
:10B400004FF400314FF44031B6E700BF3C3E00201E
:10B41000006000404FF0A043D3F8103523FA00F04D
:10B4200000F00100704700BF2DE9F04186B0002315
:10B43000A14A01931668012E00F054811E469F4BCD
:10B440001A68012A00F05D819D4B1A68012A00F0FC
:10B450006A819C4B1A68012A00F077819A4B1A681E
:10B46000012A00F08481994B1A68012A00F0918129
:10B47000974B1A68012A00F09E81964B1A68012AA0
:10B480000CD0954B1B68012B00F0A58116F0FF0F27
:10B4900015D1002E30DB06B0BDE8F0818F4AD2F81E
:10B4A00004231706EDD500221A601A68049260334F
:10B4B000049A1B68012B46F0800600F08C81884FAF
:10B4C00000240125A30003F18043354203F5C04366
:10B4D0004FEA45050BD0D3F8100557F82420D3F8D0
:10B4E0001015C0F30420C1F3014102B190470134AB
:10B4F000082CE7D1002ECEDA00224FF0FF33CDE941
:10B500000223774C012602AF94F950305D1C2CD0F9
:10B51000DBB223F0C00006AA4FEAD00C02EB0C0EFF
:10B5200003F007021EF80C1C06FA02F211421CD0AE
:10B530002518990995F9303054F82330002B00F084
:10B540009881032900F098814FEA800C0CF1A04CFF
:10B550001EF8145CDCF800E71540CEF3014E40F015
:10B560005C81BEF1030F00F0DE81002594F95130BB
:10B57000581C2DD0DBB223F0C00006AA4FEAD00839
:10B5800002EB080E03F007011EF80C2C06FA01FC72
:10B5900012EA0C0F1CD02218990992F9303054F895
:10B5A0002330002B00F05B81032900F05B818200D7
:10B5B00002F1A0421EF8148CD2F800E718EA0C0F32
:10B5C000CEF3014E40F03681BEF1030F00F0A681AC
:10B5D00094F95230591C2DD0DBB223F0C00006AADA
:10B5E0004FEAD00802EB080E03F007011EF80C2CFE
:10B5F00006FA01FC12EA0C0F1CD02218990992F9E4
:10B60000303054F82330002B00F03C81032900F047
:10B610003C81820002F1A0421EF8148CD2F800E7AF
:10B6200018EA0C0FCEF3014E40F0E380BEF1030F99
:10B6300000F06E8194F953305A1C2DD0DBB223F008
:10B64000C00006AA4FEAD00802EB080E03F007017B
:10B650001EF80C2C06FA01FC12EA0C0F1CD0221862
:10B66000990992F9303054F82330002B00F0ED8026
:10B67000032900F0ED80820002F1A0421EF8148C34
:10B68000D2F800E718EA0C0FCEF3014E40F0BC8070
:10B69000BEF1030F00F00081002D3FF4FCAE4FF02F
:10B6A000A043019AD3F8103593423FF4F4AE029AC6
:10B6B0000193039228E700BF00610040046100404D
:10B6C000086100400C6100401061004014610040BE
:10B6D000186100401C6100407C6100400060004037
:10B6E0003C3E00209A49D1F8041311F0010170D0BA
:10B6F000136013680493049B964B1A68012A7FF425
:10B70000A3AE934AD2F8042397077FF59DAE00229B
:10B710001A601B680493049B8F4B1A68012A46F039
:10B7200002067FF496AE8A4AD2F8042355077FF5C5
:10B7300090AE00221A601B680493049B874B1A6822
:10B74000012A46F004067FF489AE814AD2F8042328
:10B7500014077FF583AE00221A601B680493049BD4
:10B760007F4B1A68012A46F008067FF47CAE784ABF
:10B77000D2F80423D0067FF576AE00221A601B684B
:10B780000493049B774B1A68012A46F010067FF455
:10B790006FAE6F4AD2F8042391067FF569AE00229E
:10B7A0001A601B680493049B6F4B1A68012A46F0C9
:10B7B00020067FF462AE664AD2F8042352067FF573
:10B7C0005CAE00221A601B680493049B46F040069E
:10B7D00053E60E4633E6654B00221A601B6805935C
:10B7E0004FF0A043059AD3F81035019346F0004678
:10B7F0004CE6BEF1020F7FF41DAF032963D0002B8E
:10B800003FF418AF984715E7BEF1020F7FF444AF3D
:10B81000032969D0002B54D13EE7BEF1020F7FF41B
:10B82000A4AE032900F091800025002B3FF49EAECA
:10B8300098479BE6BEF1020F7FF4CAAE032956D0AB
:10B84000002B3FF4C5AE9847C2E603297FF424AF2E
:10B8500017F8082042EA0C0207F808200BE7032932
:10B860007FF4B6AE17F8082042EA0C0207F8082069
:10B870009DE603297FF479AE17F80C50154307F8BD
:10B880000C5061E603297FF4D5AE17F8082042EA90
:10B890000C0207F80820BCE60329BBD14FF4003E98
:10B8A000D2F800C72CF4403CC2F800C7D2F800C759
:10B8B00001354CEA0E0CEDB2C2F800C7002B3FF484
:10B8C000EEAE9847E8E64FF4403ED2F800C72CF4BD
:10B8D000403CC2F800C7D2F800C701354CEA0E0C54
:10B8E000EDB2C2F800C78AE74FF4403ED8E74FF404
:10B8F000403ED2F800C72CF4403CC2F800C7D2F852
:10B9000000C701354CEA0E0CEDB2C2F800C797E74C
:10B9100003297FF474AF4FF4003ED6E703298FD19B
:10B920004FF4003EE5E703297FF47FAF4FF4003585
:10B93000DCF8002722F44032CCF80027DCF800279E
:10B940002A43CCF8002701256FE74FF44035EFE795
:10B950000060004004610040086100400C6100404C
:10B960001061004014610040186100407C6100409B
:10B97000014B1B68184700BF983E0020104B9842AF
:10B9800001D00020704730B583B002A8002300F832
:10B99000013D0D46FCF7ACF80A4B1C7934B19DF81B
:10B9A0000700FCF7CBF8112003B030BD01229DF851
:10B9B00007001D601A71FCF7C1F82046F4E700BFCC
:10B9C00000200040983E0020034B984203D1034BD7
:10B9D00000221A601A71704700200040983E002033
:10B9E00030B56C4AD2F8043399058BB066D5D2F8DD
:10B9F0002431002B62D00023C2F82431D2F8243144
:10BA000003934FF40171644B0398C2F8081393F841
:10BA1000291009B9012151605E4902228DF81820D0
:10BA2000D1F88024C1F880249869D968099200224D
:10BA3000CDE90710C3E90622D3E9001406A8A04700
:10BA4000544AD2F81C31BBB1534B186A5969884229
:10BA500069D350480022C0F81C21D0F81C01019085
:10BA6000019849B198688DF8182008915A6107909B
:10BA7000D3E9001206A89047464AD2F84431DBB118
:10BA80000021454BC2F84411D2F8440193F8291023
:10BA90000090009809B1012111609A6962B10022F9
:10BAA000586AD9689A610122CDE907108DF81820EB
:10BAB00006A8D3E9001290470BB030BD354AD2F842
:10BAC00004335B07BCD5D2F80831002BB8D0324B19
:10BAD000996900293CD00021C2F80811D2F8081158
:10BAE00004910499D868596AD2F8182542545A6AC0
:10BAF000996901325A625A6A8A42A1D1DA6919688F
:10BB0000002A2ED0D8685D6A1C699A6107900022CD
:10BB10000120DC60DA615A628DF8180008955B68D4
:10BB200006A898478CE793F8280000F0FF04002847
:10BB30008FD1C2F81C41D2F81C11029102999C6865
:10BB4000186A196A205C01311962C2F81C0593E772
:10BB5000C2F80811D2F8080105900598D2F8182506
:10BB6000C9E793F8292012B90A4A01205060094A0E
:10BB70004FF40170C2F80803586ADA68089000248C
:10BB8000012007928DF818005A689C6106A890471A
:10BB900056E700BF00200040A03E00202DE9F04104
:10BBA000DFF8988107792C2606FB078682B096F885
:10BBB0002A30002B40F08F800D4604465C49006817
:10BBC0001646FFF7DBFE002840F081802B68591CE9
:10BBD0000CD001224FF0A04102FA03F3C1F808355E
:10BBE0002B6803F5E073032241F823206B685A1C8D
:10BBF00006D003F5E0734FF0A042002142F8231075
:10BC00002368AA69C3F82425297D6B7D22680B432C
:10BC1000C2F86C35D5E900122368C3F81425C3F8BF
:10BC20000C152B7D012B5AD02C2303FB07F308EBBB
:10BC3000030256602A6948F80320002E34D0226897
:10BC40002B7F3C4D0021C2F81C11D2F81C21009220
:10BC50002268009EC2F84411D2F844112268019172
:10BC60000199C2F804532168090B4AB25B01002A0A
:10BC7000DBB256DB02F1604202F5614282F800332A
:10BC80002268120B42F3C40323F0604323F0030342
:10BC900003F1604303F5614302F01F02012101FA41
:10BCA00002F2C3F880211A602C23246803FB078367
:10BCB000002204250121C4F8005583F82A10C3E9A5
:10BCC000062283F829205A6102B0BDE8F0811120D4
:10BCD00002B0BDE8F081082002B0BDE8F081AB6899
:10BCE000591C06D003F5E0734FF0A042002142F842
:10BCF0002310EB685A1C0DD001224FF0A04102FA2C
:10BD000003F3C1F80835EB6803F5E073032241F84B
:10BD10002320EB682268A968C2F80835C2F810151C
:10BD200082E7054A01F00F010A441376A8E700BF35
:10BD3000E1B9020080000200FCEC00E0A03E00201F
:10BD4000F8B52F4D047902682C2303FB045300211E
:10BD50005B68C2F8001583B103682A4AC3F8082358
:10BD60000368294E1B0B5AB25209203203F01F03FD
:10BD7000012101FA03F346F8223003684FF0FF3245
:10BD8000D3F80CC5D3F81475D3F80815D3F810659B
:10BD9000C3F81425C3F80C2503689445C3F8082597
:10BDA000C3F8102506D00CF5E07C4FF0A04302222A
:10BDB00043F82C207B1C06D007F5E0774FF0A0431A
:10BDC000022243F82720721C06D006F5E0764FF0D9
:10BDD000A043022243F826204B1C06D001F5E07157
:10BDE0004FF0A043022243F821200068FFF7ECFD4A
:10BDF0002C2303FB0454002384F82A306360F8BD2D
:10BE0000A03E00208402020000E100E0F0B5314EC7
:10BE100005792C2303FB056385B05C69002C53D1A5
:10BE20001C62996083F828405A610268C2F81C417C
:10BE3000D2F81C11026802910121029F91600268F0
:10BE4000D3F808C0C2F81C41D2F81C110191019925
:10BE5000D3F820E0196A5F681CF80EE0013119621E
:10BE6000C2F81CE517B1204605B0F0BD1A6A5C693E
:10BE70000168944203D819E093F828203ABBD1F81E
:10BE80001C21002AF8D0C1F81C71D1F81C210392A2
:10BE9000039AD3F820E01A6A1CF80EE001321A6205
:10BEA000C1F81CE51A6AA242E9D30168D1F81C3135
:10BEB000002BFBD00123CB6000202C2303FB056566
:10BEC00000236B6105B0F0BD112005B0F0BD0F205F
:10BED000F3E700BFA03E0020F0B5474BD3F8242184
:10BEE00089B0002A54D00021C3F82411D3F82421AA
:10BEF000029202228DF81020029AD3F880043F4A61
:10BF0000C3F880040790D3F83C05D3688DF8180077
:10BF1000C2E9061105931168536804A89847364B87
:10BF2000D3F84421BAB10020344AC3F84401D3F80D
:10BF3000444191690194019C69B1D3F83C458DF865
:10BF40001840D368906101240593116853688DF8F7
:10BF5000104004A89847284BD3F82021B2B1002103
:10BF6000264AC3F82011D3F8204150690094009C60
:10BF700060B1D3F84C0593688DF818008DF8101057
:10BF80005161059304A8D2E90013984709B0F0BDA8
:10BF9000D3F810110029C2D0C3F81021D3F8101122
:10BFA0001648039103998169D3F83C458C42B6D178
:10BFB000C569C768D0E90016E4B295B1D3F800C2EC
:10BFC00085612CF02005C261C3F800520369C3608B
:10BFD00001228DF8184005978DF8102004A8B0476D
:10BFE0009DE7012385618DF8184005978DF8103085
:10BFF00004A8B04793E700BF00200040CC3E0020DB
:10C000002DE9F04307796B4E4FEAC70808EB0703A9
:10C0100006EB830385B093F82030002B40F09E8020
:10C020000D460446644900689146FFF7A7FC0028C6
:10C0300040F090802B68591C0CD001224FF0A04199
:10C0400002FA03F3C1F808352B6803F5E073032205
:10C0500041F823206B685A1C06D003F5E0734FF0BB
:10C06000A042002142F823102368AA69C3F82425BE
:10C07000297D6A7D23680A43C3F86C25D5E9003120
:10C080002268C2F80C35C2F814152B7D012B69D03B
:10C0900008EB07029200B318C3F804902B69B35061
:10C0A000B9F1000F45D021682B7F444D0022C1F823
:10C0B0001021D1F8101100912168DDF800C0C1F8FD
:10C0C0002021D1F8201101912168DDF804C0C1F8C8
:10C0D0002421D1F8241102912168DDF808C0C1F8AB
:10C0E0004421D1F84411226803910399C2F8045302
:10C0F0002168090B4AB25B01002ADBB254DB02F172
:10C10000604202F5614282F800332268120B42F36A
:10C11000C40323F0604323F0030303F1604303F5FA
:10C12000614302F01F02012101FA02F2C3F88021EB
:10C130001A604744226806EB870600230124082181
:10C1400086F82040C2F80015C6E90633736105B0D1
:10C15000BDE8F083112005B0BDE8F083082005B0EC
:10C16000BDE8F083AB68591C06D003F5E0734FF0CF
:10C17000A042002142F82310EB685A1C0DD0012286
:10C180004FF0A04102FA03F3C1F80835EB6803F55C
:10C19000E073032241F82320EB682268A968C2F803
:10C1A0000835C2F8101573E7054A01F00F010A447B
:10C1B0001376AAE7CC3E0020D9BE0200100302008D
:10C1C000FCEC00E0F8B506792F4C0268F500AB19DD
:10C1D00004EB830300215B68C2F8001583B1036898
:10C1E0002A4AC3F808230368294F1B0B5AB2520985
:10C1F000203203F01F03012101FA03F347F8223034
:10C2000003684FF0FF32D3F80CE5D3F814C5D3F828
:10C210000815D3F81075C3F80C25C3F81425036866
:10C220009645C3F80825C3F8102506D00EF5E07E24
:10C230004FF0A043022243F82E20BCF1FF3F06D06E
:10C240000CF5E07C4FF0A043022243F82C207A1C2E
:10C2500006D007F5E0774FF0A043022243F82720ED
:10C260004B1C06D001F5E0714FF0A043022243F8C9
:10C270002120354404EB85040068FFF7A5FB00236B
:10C2800084F820306360F8BDCC3E0020100302002B
:10C2900000E100E001F06043B3F1005F2CD1F0B5A4
:10C2A0000679234F4FEAC60C0CEB060407EB840417
:10C2B00083B0636913BBA16062610568C5F8203172
:10C2C000D5F820E10568CDF804E0DDF804E0C5F814
:10C2D0005831D5F858E10568CDF800E0DDF800E008
:10C2E000C5F84415C5F848250268012191606268C7
:10C2F0003AB1184603B0F0BD10207047112003B0CA
:10C30000F0BD036800E08AB9D3F82011D3F85821B2
:10C310000029F8D0002A14BF0F2000200CEB0603E0
:10C3200007EB830300225A6103B0F0BD0F20F5E74D
:10C33000CC3E00200220FEF723BD00BF2DE9F047D0
:10C340000D460646FEF73CFD03281ED8012D044687
:10C350001DD00ED3022D18D11B4B00EB40041C4402
:10C36000657895B1194B1B687BB12846BDE8F0474D
:10C3700018471748FBF782FB134B164A04EB44019E
:10C380000B44125D9D78AA42EBD0BDE8F0870E4FBA
:10C390004FEA400808EB0003FA18FD5C53782BB90C
:10C3A000A04447440B4BBA781A55DAE7DFF82890D7
:10C3B00007484A464FF40041FBF70AFB0028EFD13B
:10C3C00089F80060ECE700BF543F0020683F002080
:10C3D000143F0020703F0020F03E002010B5007890
:10C3E000FEF7EEFC03280BD8064B00EB4000184488
:10C3F000407828B1044B1B6813B1BDE810401847C2
:10C4000010BD00BF543F0020683F0020B24B1B68A6
:10C41000DB0700D4704770B5B04DB14E2B7834783F
:10C420006BB1B04B1B7800202870002B4BD0FEF76F
:10C430006FFC0120FEF76CFC0320FEF769FC172C53
:10C4400040D8DFE814F0B500F000F000D800040197
:10C45000C6000F01EA005000430050004300610095
:10C4600018001800180018001800660077008B00EC
:10C470009F005D005D009C48FBF700FBD4F11104B8
:10C48000054600F0FC80002840F0F980012C13D014
:10C49000C82303FB04F44FF4FA704FF40043002167
:10C4A000C3FB04014FF47A72002308F001F92A4615
:10C4B00001468D48FBF78CFA0220FEF71DFC894BE4
:10C4C00001221A7070BDFEF72FFCB8E70123184651
:10C4D0002B70FEF755FC00224FF480418348BDE8E5
:10C4E0007040FBF775BA012318462B70FEF748FC25
:10C4F000002240F6CD417D48BDE87040FBF768BAA8
:10C50000FEF728FC347070BDFEF724FC0C2333705A
:10C5100070BD744B1B78002B00F0BB800020FEF731
:10C52000F7FB0120FEF7F4FB0320FEF7F1FB1223DB
:10C53000337070BD6B4B1B78002B00F0AD8000207A
:10C54000FEF7E6FB0120FEF7E3FB0320FEF7E0FB2E
:10C550000020FEF7D1FB1323337070BD614B1B78B5
:10C56000002B00F0A9800020FEF7D2FB0120FEF78F
:10C57000CFFB0320FEF7CCFB0120FEF7BDFB14230D
:10C58000337070BD574B1B78002B7FD00020FEF717
:10C59000BFFB0120FEF7BCFB0320FEF7B9FB002028
:10C5A000FEF7AAFB0120FEF7A7FB1523337070BD31
:10C5B0004C4B1B78002B00F087800020FEF7A8FB77
:10C5C0000120FEF7A5FB0320FEF7A2FB002333703A
:10C5D00070BD0020FEF782FB002860D00020FEF72F
:10C5E00097FB05233370002241F69A113F48BDE8BE
:10C5F0007040FBF7EDB90020FEF770FB00285ED01D
:10C600000020FEF785FB46F26661032333700022AB
:10C610003648BDE87040FBF7DBB90020FEF76CFB45
:10C620000723337070BD0020FEF758FBD0B3002005
:10C63000FEF76EFB022C4EF2666118BF4FF400311C
:10C64000347000222948BDE87040FBF7C1B90020D2
:10C65000FEF744FBD8B30020FEF75AFB4FF400313D
:10C660000423D3E70020FEF78BFB06233370002260
:10C6700040F6CD411D48BDE87040FBF7A9B9022046
:10C68000FEF746FB174B00221A7070BDFEF74CFBFD
:10C6900085E7FEF749FB4AE7FEF746FB58E7FEF75A
:10C6A0002BFB9EE7FEF728FB43F2333141F69A134A
:10C6B000022C08BF1946C3E7FEF736FB5CE7FEF71E
:10C6C0001BFB41F69A11A0E7FEF72EFB7EE7FEF773
:10C6D00013FB43F23331C3E7603F0020643F002087
:10C6E0006C3F0020F13E0020F43E0020343F00204B
:10C6F000032801D900207047FEF754BB38B5244BFE
:10C70000244A19608307106000F0010503D4CDB9F5
:10C710002C46204638BD204B20480E240F221021E5
:10C720001C701124DA7099715C7240F26662042107
:10C73000FAF71AFE0446B8B115B10120FEF752FB14
:10C74000204638BD0120FEF74DFB154A1548002153
:10C75000FBF72CF904460028F2D1134A13480121B3
:10C76000BDE83840FBF722B9FAF756FE0446002828
:10C77000E2D101460E4A0F48FBF718F90446002D96
:10C78000DED00120FEF72EFB002CD9D1DDE700BF63
:10C79000683F0020603F0020543F0020FC5203000F
:10C7A0000DC402002453030035C302001C530300D0
:10C7B000DDC3020020530300032811D8012A0BD047
:10C7C000012919D00ED302290AD10E4B00EB4000EB
:10C7D000034400205A70704701290AD00022EFE775
:10C7E00007207047074B00EB4000034400209A707D
:10C7F000704700F10E02D2B200EB40030149002065
:10C80000CA547047543F002010B50388102B07D03E
:10C81000112B04D1254B18680138186030B110BDB8
:10C82000224C216881B10131216010BD0122022119
:10C83000FFF7C2FF38B3072825D01D4B1B68002B1C
:10C84000EDD0BDE81040184701220846FFF7B4FFBD
:10C8500038B1072805D0164B1B6803B198472168EB
:10C86000E1E7072202210120FFF7A6FF08B1072810
:10C87000F1D1042202210020FFF79EFF0028EED014
:10C880000728E8D1EBE7072202210120FFF794FFF8
:10C8900008B10728D1D1002108460A22FFF78CFFF2
:10C8A0000028BCD00728C8D110BD00BF783F0020A9
:10C8B000743F0020184B10B5186031B101200C46B0
:10C8C000FFF716FFF8B102232370144B186808B164
:10C8D000002010BD01220221FFF76EFF08B10728DA
:10C8E000F7D1072202210120FFF766FF08B10728D0
:10C8F000EFD1002108460A22FFF75EFF0028E7D0AB
:10C900000728E5D010BDFFF7F3FE08B92070DCE77B
:10C910000B232370D9E700BF743F0020783F00202D
:10C9200075DF704776DF70477ADF70477CDF7047CE
:10C930008ADF70478BDF70478CDF70478FDF70476F
:10C94000FAF780BD10B501460446044806F0E0FE43
:10C9500021460348BDE8104007F006BAA840002071
:10C96000F440002070B50B78012B84B00C4631D018
:10C97000022B2DD12C4B0A8918882C49000440F039
:10C980000300FAF737F8A379217960792289A6891B
:10C99000A57A8DF802308DF8001023698DF801001A
:10C9A00069462348ADF80420ADF808608DF80650BC
:10C9B000039307F05FF930F0080209D020F002027B
:10C9C000112A05D043F20142904201D0FAF73AFD14
:10C9D00004B070BD174E32884FF6FF739A42F7D1FC
:10C9E000114B4A881449328005461888000440F0EB
:10C9F0000300F9F7FFFF221D3188284607F048FAA7
:10CA000060B93088002105F09FF830F0080308D1A4
:10CA1000284607F0CDFA0028DAD0D7E7FAF712FD5A
:10CA2000EFE7FAF70FFDF3E748350020D85503008C
:10CA3000D8400020AE2D00209455030070B50B782F
:10CA4000012B0C461DD0022B21D1234B8A8818883C
:10CA50002249000440F00300F9F7CCFFA1882048E8
:10CA600006F0B6FD30F0080211D020F00202112AC3
:10CA70000DD043F20142904209D0BDE87040FAF770
:10CA8000E1BC184E32884FF6FF739A4200D070BD59
:10CA9000114B4A881449328005461888000440F03A
:10CAA0000300F9F7A7FF221D3188284606F086FF0C
:10CAB00060B93088002105F047F830F0080308D14C
:10CAC000284606F037FF0028D7D170BDFAF7BAFC28
:10CAD000EFE7FAF7B7FCF3E748350020B854030056
:10CAE00058400020AC2D00209454030008B570B1CC
:10CAF000032811D10B4B0C491888000440F00300A7
:10CB0000F9F7D4FD0220BDE80840FEF7F5B803218F
:10CB1000064801F0FFF900B908BDBDE80840FAF782
:10CB200091BC00BF48350020145503007C3F002015
:10CB3000FAF788BCF0B5044687B0808801F0C6FDDE
:10CB400080B2012800F0A8802388262B00F0A48062
:10CB5000022803D01D2B01D007B0F0BDB2492046FA
:10CB600006F06AFEB149204607F09CF92388103B85
:10CB7000462BF1D801A252F823F000BF63CD02008A
:10CB8000D5CD020059CB020059CB020059CB02008F
:10CB900059CB020059CB020059CB020059CB0200FD
:10CBA00059CB020059CB02000DCE020059CB020036
:10CBB00061CE020059CB020051CD020059CB0200D8
:10CBC000F3CC020059CB020059CB020059CB020032
:10CBD00059CB020059CB020059CB020059CB0200BD
:10CBE00059CB020059CB020059CB020059CB0200AD
:10CBF00059CB020059CB020059CB020059CB02009D
:10CC000059CB020059CB020059CB020059CB02008C
:10CC100059CB020059CB020059CB020059CB02007C
:10CC200059CB020059CB0200BBCC020059CB020009
:10CC300059CB020059CB020059CB020059CB02005C
:10CC400059CB020059CB020059CB020059CB02004C
:10CC500059CB020059CB020059CB020059CB02003C
:10CC600059CB020059CB020059CB020059CB02002C
:10CC700059CB020059CB020059CB020059CB02001C
:10CC800059CB020059CB020059CB020059CB02000C
:10CC900059CB0200BBCC02006549204606F03CFBA4
:10CCA0006449204606F09AFE2388212B21D00FD913
:10CCB0003B2B02D0562B7FF44FAFA0881321FFF7F8
:10CCC00031FE00283FF448AFFAF7BCFB07B0F0BDD7
:10CCD000102B19D0112B7FF43FAF574B57491888B1
:10CCE000000440F00300F9F7E1FC0320FEF710F820
:10CCF00032E706A9002321F8043DA088FFF71EFEB5
:10CD000000283FF429AFDFE74B4B4D49188800045A
:10CD100040F00300F9F7CAFC0220FDF7F9FF0320F9
:10CD2000FDF7EAFF474842884FF6FF739A4208D062
:10CD3000C2899A4200F06D81428B9A427FF40CAF17
:10CD40001830A18803F03AFE00283FF405AFBBE796
:10CD500004F10801A088FFF7E3FD00283FF4FCAED2
:10CD6000B2E7354D38492888000440F00300F9F750
:10CD70009DFC364B1A884FF6FF739A4200F00681ED
:10CD8000334A12889A4200F001812E4842884FF6B9
:10CD9000FF739A4200F03481C2899A4200F04881C0
:10CDA000428B9A4200F02B810120FDF7A5FF01F094
:10CDB000BFFC02284FF0000025D0FDF79DFFFFF7D4
:10CDC000B9FD24492448FFF7B3FD30F008033FF4D0
:10CDD000C3AE79E71D4FA3883A88934200F0AD8037
:10CDE0001B4E31888B4200F016814FF6FF7399423B
:10CDF00000F0BF809A4200F0BC8001F099FC00284E
:10CE00007FF4AAAE0120FDF783FFA5E6237A022B6B
:10CE10007FF4A2AE084B11491888000440F00300CB
:10CE2000F9F744FC98E600BFA8400020F440002039
:10CE300058400020D84000204835002048530300C7
:10CE400030530300B440002060530300AC2D002099
:10CE5000AE2D002048330020D0540300745403004A
:10CE600006AE002726F8047D256AA18C32462846A6
:10CE7000092300F065FDBDF8142012B1002840F030
:10CE8000B3806C4D6C492888000440F00300F9F72A
:10CE90000DFC277C2888E17B237BE27A0397A77B24
:10CEA0000291617B0091000440F003000197634907
:10CEB000F9F72AFF624807F0E4FBC8B1604AA18C89
:10CEC000206A00F085FD002874D05E4A5E4904F1B6
:10CED0000A000123FFF730FD024600283FF43CAE74
:10CEE00028885A49000440F00300F9F783FD33E62F
:10CEF000574BA18C206AD3E90023049204AA05931E
:10CF000000F0A0FD28B1534B1A884FF6FF739A42E8
:10CF100057D03246A18C206A00F094FD28B14E4BC8
:10CF20001A884FF6FF739A424BD04C490020FFF706
:10CF3000FFFC00283FF410AEC6E63E4D464E288862
:10CF4000227A4749000440F00300F9F753FD328884
:10CF5000A3884FF6FF719A4239800AD12888227A35
:10CF60004049000440F00300F9F744FD4FF6FF7319
:10CF70003380FFF7DFFC39493348FFF7D9FC30F045
:10CF800008034AD10020FDF7B7FE36E72888A288BB
:10CF90003549000440F00300F9F72CFDA18833481F
:10CFA00001F0AAFD11283BD000283FF4EEAEFAF7BD
:10CFB00049FAEAE62949FFF7BBFC00283FF4CCAD6B
:10CFC00082E6204A204904F10A000123FFF7B4FC5D
:10CFD000024600283FF4C0AD28881C49000440F0F8
:10CFE0000200F9F707FDB7E52A44124D17542888C7
:10CFF0001F49000440F00300F9F7FCFC49E7183032
:10D00000A18803F0DBFC00283FF4CEAEFAF71AFA51
:10D01000CAE60C3095E6074DA0E7FAF713FAB1E738
:10D02000A188144801F068FD00283FF4AEAEBEE7C9
:10D030000C30E5E748350020085403001C54030079
:10D04000E0540300C8540300D05403004C540300C0
:10D0500028530300AC2D0020AE2D002048330020C3
:10D06000A4530300CC53030074530300B02D0020DD
:10D07000F45303007C30002030B5037885B00446BB
:10D080000D2B1FD8DFE803F02F1E391E4B1E252065
:10D090001E2B1E2007200020FCF74AFF90B9FFF747
:10D0A00049FC25492548FFF743FC30F008033FD1F0
:10D0B0000020FDF721FE0321214800F02BFF08B1DD
:10D0C000FAF7C0F905B030BD80680028F8D105B086
:10D0D00030BDFBF7FDFE30F00803F3D0F0E7006948
:10D0E0000028EFD0ECE7174B17491888000440F0F0
:10D0F0000300F9F7DBFA05B030BD124B40881D88FC
:10D1000001F0E4FA2D04227A63881049009245F078
:10D11000030502462846F9F76FFD05B030BD04A9A6
:10D12000002301F8043D408804F01CFD05B030BD2B
:10D13000FAF788F9BCE700BF48330020D054030059
:10D140007C3F00204835002028550300545503003B
:10D1500080B54FF40041B2B00020F9F73BFA08B1B6
:10D16000FAF770F9F9F7C0F9FAF7CCFB08B1FAF75A
:10D1700069F900210320FFF7C1FA08B1FAF762F953
:10D1800007A90020FFF796FB08B1FAF75BF99DF8B5
:10D190001C60FDF739FB08B1FAF754F906F056FFA9
:10D1A00008B1FAF74FF9002307A90120079307F008
:10D1B000ABF808B1FAF746F907A807F059F908B132
:10D1C000FAF740F932AC112304F8C03D964807F055
:10D1D00058FA954982B22046FFF7A8FB08B1FAF742
:10D1E00031F90822002107A807F043FA8F4B079373
:10D1F00007A84FF0C8730893FFF796FB08B1FAF73A
:10D2000021F900218A4803F0AFFA08B1FAF71AF9B8
:10D210001C2200210DEB020007F02BFA00234FF433
:10D22000203203204FF4702507930C934FF6FF71C3
:10D230000892804B8DF82800012207A80995ADF8C7
:10D240002A108DF82C200D9301F070F908B1FAF72F
:10D25000F9F8794801F0D0FB08B1FAF7F3F804F0D7
:10D2600021FC08B1FAF7EEF80522002107A807F023
:10D2700000FA9DF81C309DF81F109DF8202043F007
:10D280000103032003F0F10360F306136FF3C713E8
:10D290000143024307258DF81C3007A810238DF8A1
:10D2A0001F108DF820208DF81D508DF81E3004F0D1
:10D2B00041FC08B1FAF7C6F8604804F01FFC08B159
:10D2C000FAF7C0F85E4B5F48079307A906F098FA93
:10D2D00008B1FAF7B7F85C4B5C48079307A906F06A
:10D2E000BBFD08B1FAF7AEF832AF594B594D47F8CC
:10D2F000C43D05F124082846394603F04DFB0C35A2
:10D3000008B1FAF79FF8A845F5D1032314220021AC
:10D3100020468DF8033007F0ACF94F4A4F48002300
:10D32000214601250DF1030402938DF818308DF884
:10D330000C50CDE9044206F019F808B1FAF782F86A
:10D340001C2200210DEB020007F093F905210023B8
:10D35000414AADF826104248079307A98DF82430BA
:10D36000089206F067FB08B1FAF76CF8AC220021CE
:10D3700007A807F07EF9022201233A488DF81C2005
:10D380000625ADF82C204FF496748DF81E308DF8DC
:10D39000983044F25062344B0C9007A933488DF812
:10D3A0001F50CDE92942309300F03EFD08B1FAF755
:10D3B00049F82F4C2D48012100F032FD20882D49DD
:10D3C000000440F00300F9F771F9022E10D1208813
:10D3D0002949000440F00300F9F768F904F0C6FB9E
:10D3E000F8B9F9F73BFD0028FBD1FDF723FAF8E780
:10D3F0000020FCF79DFD0028F3D1FFF79BFA1F49A1
:10D400001F48FFF795FA30F0080301D0FAF71AF831
:10D410000020FDF771FC0321144800F07BFD00287B
:10D42000DFD0FAF70FF8DCE7E45403000600180039
:10D430003440002041C9020045C9020079D00200F1
:10D440003DCA0200A840002065C90200F440002047
:10D4500031CB0200B44000201100001158400020E0
:10D46000D8400020A42D0020EDCA02007C3F0020FF
:10D4700048350020EC5403000455030048330020D5
:10D48000D05403006DDF704779DF70477DDF704750
:10D4900064DF70472DE9F04F83B004880C9EBDF81F
:10D4A0003490B6F800A0002C39D0984600231746D7
:10D4B0008B4605461C4603E02A880134A24224DD3F
:10D4C0006A6852F82400019000220DF1030101A8BE
:10D4D000FFF7DEFF20BB9DF80320BA42ECD1328873
:10D4E000B91803B389452BDB42440DF1030101A8B0
:10D4F0000123FFF7CDFF98B931889DF803200A4436
:10D5000032802A880134A242DADC43B13388013BFD
:10D51000A3EB0A039BB2FF2B12D808F80A300020B5
:10D5200003B0BDE8F08F02310132894592B207DBCA
:10D53000328008F802B03288013292B23280D3E7EA
:10D540000C2003B0BDE8F08F2DE9F04700231788C9
:10D55000138090F82D3086B0144605460E46002BF9
:10D5600040F0F880AA78002A40F0FA80EA78A2B168
:10D57000D91CB94200F2F0800221F1542388013312
:10D580009BB201212380F15423880B449BB223805A
:10D59000F25423880B449BB223806A68AAB1D91C39
:10D5A000B94200F2D980022192F90020F154238877
:10D5B00001339BB20A212380F154238801339BB2AB
:10D5C0002380F2542388013323802B89002B40F0E1
:10D5D00018812B8A002B40F02C812B8B002B40F0E4
:10D5E00040812B6A002B47D0B4F800E00EF1060210
:10D5F000BA4200F2B1801A88052A40F2FE806FF428
:10D60000486802EB080189B24FF27D30814240F256
:10D61000F4805988052940F2F0806FF4486C8C44FE
:10D620001FFA8CFC844540F2E8804FF6FF7082427E
:10D6300004D0814202D08A4200F2DF80052206F83F
:10D640000E202288013292B212212280B154228807
:10D65000013292B222801988B1543244090A5170C1
:10D660002288023292B222805B88B35432441B0A71
:10D6700053702388023323806B6A002B2FD0998844
:10D68000B4F800C0881C0CF102020244BA4263D80C
:10D69000FE2861D8033106F80C102288013292B2BC
:10D6A000FF212280B1542288013292B2228019884F
:10D6B000B1543244090A51702088023080B220806F
:10D6C0009A8862B199680393002900F096803044EB
:10D6D00006F0ABFF039B9A8823881344238095F8B8
:10D6E0002C30002B40F084802878002835D02B88FF
:10D6F000012B00F08280228802F1020CBC452BD85D
:10D70000012804D16B78023313449F4224D3BB1EFB
:10D710009B1A06A99BB221F8083D06EB0C00FFF707
:10D72000B5FED0B92A78022A00F0FB80012A00F069
:10D7300000810821FE2B0FD82288581CB054228863
:10D74000013292B22280B1542288013213442380E4
:10D75000002002E0082F23D80C2006B0BDE8F08797
:10D760000433BB42F8D804A8FFF78EFE0028F4D19A
:10D770002388BDF810200321F154238801339BB284
:10D7800019212380F154238801339BB2F11823809F
:10D79000F254120A4A70238802339BB22380E5E6D2
:10D7A00004A8FFF76FFE0028D7D113880822CA54B7
:10D7B000238801339BB21B222380CA542088013066
:10D7C00080B22080062208440DF1110106F02DFFE1
:10D7D00023889DF8102006339BB212F0FE0218BF7A
:10D7E00001222380F254238801339BB22380B9E6BF
:10D7F000D5F82880B8F1000F4CD1072006B0BDE85D
:10D80000F08705F108080222CDE90047404611469D
:10D810003346FFF73FFE00289FD1CDE90047404641
:10D82000334610220621FFF735FE00283FF4D1AE23
:10D8300093E705F11008CDE9004740463346022240
:10D840000321FFF727FE002887D1CDE90047404696
:10D85000334610220721FFF71DFE00283FF4BDAE1E
:10D860007BE705F11808CDE9004740463346022220
:10D870001421FFF70FFE00287FF46FAFCDE90047BA
:10D880004046334610221521FFF704FE00283FF4DE
:10D89000A8AE62E7B8F804200232FE2A3FF65CAF79
:10D8A00023884FF000094FF0160A0132F254238802
:10D8B00001339BB2238006F803A0238801339BB277
:10D8C0002380B8F80020F2543344120A5A70238897
:10D8D00002339BB22380B8F80410F0180A4661B1F5
:10D8E000D8F808301946002B87D006F09EFEB8F80D
:10D8F0000420238813449BB2238009F1010995F881
:10D900002C205FFA89F94A4509EB49087FF6ECAE0D
:10D91000AA6A02EB8808B8F804200232FE2AC4D9A9
:10D920001AE7BDF810209342FFF403AF1346092114
:10D9300000E76A789342FFF4FCAE13460821F9E64B
:10D94000A0B1A2B170B41688002403E0055D0135D2
:10D950002C44A4B2B44200EB040502D36D789D427E
:10D9600007D0A142F2D8002070BC70477047104623
:10D970007047A142F7D9A31C1380005D013880B223
:10D9800070BC7047F8B130B4437893421CD0B9B141
:10D990000024234601E0994212D9045D0134234456
:10D9A0009BB2C5181C466D789542F4D1994207D9AF
:10D9B000025D0233012A9BB202D0184430BC70478A
:10D9C000002030BC7047704700242346EEE700BFBC
:10D9D0002AB320B370B54378092B2BD0E9B10024CA
:10D9E000234601E0994218D9045D013423449BB2D7
:10D9F000C5181C466D78092DF4D199420DD9C45C27
:10DA00000233013C9BB2A4B2C61833B12CB110460C
:10DA1000154606F036FEA04203D0002070BD00205F
:10DA2000704722463146284606F0F0FDB0FA80F0F5
:10DA3000400970BD0029F0D0064616F8024B013CA3
:10DA4000A4B2E3E7F0B587B004460D4610461023B4
:10DA500002AA0DF103018DF80330FFF719FD64B33D
:10DA600058BB9DF80320042A5CD0102A28D0022A33
:10DA700024D140F20323ADF8043094F801C09DF89E
:10DA80000400844553D0C5B1002301E09D421CD958
:10DA9000E15C01310B449BB2E11849788142F5D138
:10DAA0009D4205D9E75C0233013F9EB2BFB236BB4F
:10DAB0009DF80500604544D05DB9002007B0F0BD79
:10DAC00040F20763ADF80430D7E79DF805006045E4
:10DAD00034D0002301E09D42EFD9E15C01310B44D9
:10DAE0009BB2E1181E4649788142F4D19D42E4D9A7
:10DAF000A75D0233013F9EB2BFB2002EDDD0002FE2
:10DB0000DBD0002505E09DF803201544ADB2BD42F1
:10DB1000D3D2A819204402A906F078FD0028F2D13A
:10DB20000120CBE740F20543ADF80430A5E7002D16
:10DB3000BED02778013FBFB20226E0E70026334679
:10DB4000D4E7002DF5D1B8E772DF704773DF704777
:10DB500070B5044600F1AA060D46304607220021A2
:10DB600006F087FDE38813B1A378012B6AD0E3792F
:10DB7000002B64D194F8AB30002B74D194F8AC3006
:10DB8000002B70D194F8AD30002B6CD194F8AE30EE
:10DB9000002B68D194F8AF30002B64D194F8B030EA
:10DBA0001A1C18BF01226B1E032B00F23681DFE81E
:10DBB00003F002530A0DA379002B4DD094F82430C2
:10DBC000002B49D12AB9237A002B64D1657A002D24
:10DBD0004DD1A570002384F8B33004F13C05182220
:10DBE0000021284606F045FDE26A0123511E9942B4
:10DBF00084F83C3012D994F8242084F8513092B142
:10DC000084F85230A378002284F85020042B00F2CC
:10DC1000F380DFE803F067426BAA7B0094F82430BE
:10DC200084F851200BBBA378002284F85020042BE9
:10DC300000F2E280DFE803F05631D1C5CB00A378D3
:10DC4000022B97D1636B002B00F0E480012284F853
:10DC5000B120082098478DE7E379002BB3D0002A44
:10DC6000B1D00225B5E701229DE7A36AC8E70422E7
:10DC7000636BA270002BADD06279002AAAD094F811
:10DC8000B220002AA6D1012184F8B42084F8B31070
:10DC900007209847A1E70322EAE700230120022199
:10DCA0008022266484F83100C4F8A430636484F8C8
:10DCB0003C10A4F8482000212A4604F15400FFF744
:10DCC00043FF00B170BD94F8301094F85400FFF792
:10DCD0003DFF0028F6D1636B13B194F831009847EB
:10DCE000002070BD002384F83130F4E7022384F86B
:10DCF00031300723D4E9032184F83C300023266423
:10DD0000A4F84810C4F8A4306264D4E7D4E9072129
:10DD100062640622A4F8481084F83C206279002A44
:10DD200060D094F8B220002A5CD194F8B420002A84
:10DD300058D0022384F850300122B4F89810D4F857
:10DD40009400FFF71FFE08B10423037004F194064A
:10DD500031462A4604F15400FFF7F6FE002854D15C
:10DD60000622A37884F8312041E0D4E905216264D9
:10DD70000622A4F8481084F83C206279002A3ED09C
:10DD800094F8B220DABB94F8B420C2B3022384F82A
:10DD900050300122B4F89810D4F89400FFF7F2FD47
:10DDA00008B10423037004F1940631462A4604F1B5
:10DDB0005400FFF7C9FE40BB0522A37884F8312048
:10DDC00015E0D4E905126164A4F84820D5E7D4E948
:10DDD00007126164A4F84820A0E7022384F83130D8
:10DDE000032387E7042284F8312004F19406C4F861
:10DDF000A460002B3FF46FAFD4F8A4105CE70322BB
:10DE000084F8312004F19406F1E7A378002B3FF465
:10DE100062AFF1E784F8B130ACE60025D9E600BF87
:10DE200080F83010704700BF00294BD0002849D03F
:10DE3000F8B591F87A301BB191F89830002B3FD1AA
:10DE4000D1F8A030042B3BD0D1F89C30042B37D034
:10DE50004FF0000C80F802C001F1780604460F462E
:10DE60000FCE251D0FC50FCE0FC596E8070085E81C
:10DE7000070084F830C0D7F8A4306363D7F8A8301F
:10DE8000A3634FF6FF7504F19403C4F8A430614610
:10DE9000A4F8A850072204F1AA0006F0EAFB2378B0
:10DEA0000BB984F85450224604F155011F25C4F8DB
:10DEB0009410384622F8985FFFF746FB20B1F8BD72
:10DEC0000720F8BD0E207047224604F17401C4F803
:10DED0009C1007F13C0022F8A05FFFF735FB0028FB
:10DEE000EDD1D4E905250123206484F850000146D2
:10DEF000626484F8513084F83C30A4F8485004F14E
:10DF00003C0204F15400FFF71FFE0028D7D1237014
:10DF1000F8BD00BFF8B5057855B104460020A170E2
:10DF20000E46FCF705F828B1012363700020F8BD08
:10DF30000820F8BD04F1AA0701460722384606F07A
:10DF400098FBE38813B1A378012B6BD0E37913B16D
:10DF5000A378022B66D094F8AB3083B994F8AC3038
:10DF60006BB994F8AD3053B994F8AE303BB994F82E
:10DF7000AF3023B994F8B050003518BF0125731E97
:10DF8000032B00F23181DFE803F00235080BA3799F
:10DF900083B394F824306BBB2DB9237A002B61D165
:10DFA000667A002E4AD1A670002384F8B33004F1BB
:10DFB0003C0518220021284606F05BFBE26A01239B
:10DFC000511E994284F83C301BD994F8242084F8DF
:10DFD0005130DAB184F85230A378002284F850200E
:10DFE000042B00F29E80DFE813F066003F00D900AA
:10DFF0009F006A00E379002BCFD0002DCDD0022600
:10E00000D1E794F8243084F85120ABB9A3780022EA
:10E0100084F85020042B00F28480DFE803F04C25C4
:10E02000CFB9B300636B002B00F0DB80012284F8D2
:10E03000B120082098478EE7A36ACBE70422636BE0
:10E04000A270002BB0D06279002AADD094F8B22033
:10E05000002AA9D1012184F8B42084F8B310072044
:10E060009847A4E70322EAE7002301200221802247
:10E07000276484F83100C4F8A430636484F83C1049
:10E08000A4F8482000212A4604F15400FFF75CFD63
:10E0900000287FF44CAF94F8301094F85400FFF748
:10E0A00055FD00287FF443AF636B13B194F8310042
:10E0B00098470020F8BD002384F83130F4E7D4E914
:10E0C000072162640622A4F8481084F83C20627993
:10E0D000002A7ED094F8B220002A7AD194F8B42095
:10E0E000002A76D0022384F850300122B4F8981028
:10E0F000D4F89400FFF746FC08B10423037004F140
:10E10000940631462A4604F15400FFF71DFD00280D
:10E1100065D10622A37884F83120C4F8A460002BCE
:10E12000C2D0D4F8A410AEE7D4E905216264062277
:10E13000A4F8481084F83C206279002A43D094F86F
:10E14000B220002A3FD194F8B420002A3BD0022309
:10E1500084F850300122B4F89810D4F89400FFF7F6
:10E1600011FC08B10423037004F1940631462A46D9
:10E1700004F15400FFF7E8FC88BB0522A37884F87B
:10E180003120CAE7D4E907126164A4F848209EE769
:10E19000D4E905126164A4F84820CDE7022384F88D
:10E1A00031300723D4E9032184F83C30002327646D
:10E1B000A4F84810C4F8A430626463E7022384F82A
:10E1C00031300323EEE7032284F8312004F1940672
:10E1D000A3E7042284F8312004F194069DE7A37894
:10E1E0009DE784F8B130B6E60026DCE670B503881A
:10E1F000112B0C460BD0262B1ED0102B00D070BD3F
:10E20000C37B012BFBD18388A1F8A83070BD00230C
:10E2100081F8B2308288B1F8A8309A42EFD10879FB
:10E220000028ECD10B784BB301258D70FBF780FEF5
:10E23000C0B10123637070BD037A013B012BDED8AE
:10E240000B78DBB18B780E4D0133A5FB0325AD08B0
:10E2500005EB85055B1BDDB28D700020FBF768FECA
:10E260000028E6D129462046FFF772FC0028C6D0D8
:10E27000A36B002BC3D0BDE8704018470820F7E718
:10E28000CDCCCCCC0238012801D84B7803B97047EB
:10E2900070B50B7800200C46487033B18D78FBF7D1
:10E2A00047FE48B10123637070BD0820A36B002BAB
:10E2B000FAD0BDE87040184729462046FFF748FCD1
:10E2C0000028F3D170BD00BF75DF704776DF70475F
:10E2D0007ADF70477BDF704730B51D4B1A8884B2F8
:10E2E000A24283B001D003B030BD1A4D187A297B09
:10E2F00088420FD32A7C00211972E2B96B69002B86
:10E30000F1D00022ADF806408DF8042001A898470E
:10E3100003B030BD104603F10A01FFF7D5FF28B165
:10E320001128E0D0AB69002BF1D1DCE71A7A013279
:10E330001A7203B030BD3B212046FFF7C7FF30F013
:10E340000803DBD0AB69002BD8D09847D6E700BFD5
:10E350001C42002000420020F0B50288112A83B040
:10E36000034649D036D9122A08D0502A04D16C4D20
:10E37000C188EA89914251D003B0F0BD694C8288CE
:10E3800021889142F8D1E1896589B1F5FA7F24BFEE
:10E390006FF4F9700E18588938BF002685424FD89F
:10E3A000A58985424CD39B89B34249D301F2F3112D
:10E3B000994245D35A4B5B694FF480712181002B00
:10E3C000DAD00121ADF806208DF8041001A8984795
:10E3D00003B0F0BD102ACFD1C27B012ACCD1514C61
:10E3E00021884FF6FF7291423CD04D4B9B69002B28
:10E3F000C2D004209847BFE74A4C828823889A42BB
:10E40000BAD16068F9F73AFB18B1454B9B6903B183
:10E4100098474FF6FF73238003B0F0BD028A022AAB
:10E42000AAD1404C86882788B742A5D1123001F086
:10E43000F9F9002856D16068F9F720FB70B99BE71D
:10E44000374D267A6068D5E90131002E08BF19469C
:10E4500000236372F9F7BCFA00288DD0AB69002B5A
:10E46000B5D189E7304D8288228003CDC4F80E10E3
:10E47000E689C4F80A00B6F5FA7F28BF6FF4F9758B
:10E480004FF00001588AB4F80AC0217228BF7119F0
:10E49000234D8445EF8919D8B4F80CC0844515D3B1
:10E4A0009B8A8B4212D306F2F3169E420ED30121B1
:10E4B0006172002F7FF460AF6B69002B3FF45CAF9B
:10E4C0008DF80410ADF8062001A880E700236372E0
:10E4D000002F7FF451AF60686968F9F779FA002876
:10E4E000BCD149E7637A63B9D5E90131267A60681E
:10E4F0003A46002E08BF1946F9F76AFA0028ADD14E
:10E500003AE76B6900222272002B3FF435AF0122FB
:10E51000ADF806608DF8042001A898472CE700BFED
:10E52000004200201C4200203042002000282FD052
:10E53000F8B5054606460FCD164F3C460FC4844637
:10E5400095E80700144B3B6084E80700BCF1000F1E
:10E5500018D06046FFF7BCFE98B932681068516861
:10E5600003C30E4B0E490F4A18464FF6FF7440F88E
:10E57000041F1C800021F9F719FA002814BF03209A
:10E580000020F8BD1846FFF7A5FE0028E9D0F8BD29
:10E590000E20704700420020304200201C42002024
:10E5A00038420020D9E202002DE9F0470388B0F894
:10E5B0000490112B98B059D01A2B804647D0102BBD
:10E5C00002D018B0BDE8F087394A936818A8DB4339
:10E5D00040F8603D5168FAF745FF009B0193019BAD
:10E5E00063B300273C46214601A8FAF7CBFE28B1C9
:10E5F00018AB03EB4703013723F8284C0134142CE4
:10E60000F1D10D970DAE0FCE02AC0FC40FCE0FC4DB
:10E6100096E8070084E8070087B10DF10A0A254E45
:10E620000AEB47073AF8025F234C20462946043498
:10E63000FAF79EFEA642F8D1BA45F3D1B9F1130F0D
:10E640001BD90420F8F7FEFE18B0BDE8F087047A65
:10E650001A482409012C494620D9FAF77FFE022CDA
:10E66000494617481ED0FAF779FEAAE749461548E9
:10E67000FAF77EFE18B0BDE8F08749461148FAF770
:10E680006DFE49460C48FAF769FE98F80F30012BE9
:10E6900097D049460C48FAF761FE92E7FAF768FE10
:10E6A00007484946FAF764FE18B0BDE8F08700BF96
:10E6B00058420020D04200205C42002068420020E6
:10E6C0006C4200206042002064420020132801D9DF
:10E6D0000020704710B5014604460748FAF752FE7D
:10E6E00008B9002010BD21460448FAF74BFE002867
:10E6F00014BF0220012010BD5C42002064420020B3
:10E70000132801D90020704710B501460446064879
:10E71000FAF738FE08B9002010BD21460348BDE8CD
:10E720001040FAF72FBE00BF5C4200206842002074
:10E7300070B50D4B82B002A8DA6840F8082D02AE21
:10E740009968FAF78FFE009B46F8043D00252C4699
:10E7500021463046FAF716FE013400B10135142C7B
:10E76000F6D1284602B070BD5842002008B51821E5
:10E770000248FAF711FEC0B208BD00BF584200209F
:10E7800070B50C4C054620460E46FAF7FBFD08B165
:10E79000132D01D9002070BD2946201DFAF7F2FD86
:10E7A0000028F7D0B01D04EB80002946BDE870407A
:10E7B000FAF7E8BD58420020F8B50F4C0546204650
:10E7C00017460E46FAF7DEFD08B1132D00D9F8BD45
:10E7D0002946201DFAF7D6FD0028F8D0B01D04EB1D
:10E7E000800029461FB9BDE8F840FAF7C1BDBDE871
:10E7F000F840FAF7B3BD00BF58420020F0B5144C02
:10E80000054683B00F46204629461646FAF7BAFD5C
:10E8100018B90025284603B0F0BD043504EB850483
:10E82000A3680193002FF4D0019B002BF1D00025A9
:10E830002C46214601A8FAF7A5FD314610B1A0B239
:10E84000B84701350134142CF3D1284603B0F0BD8C
:10E85000584200209BDF70479DDF70479EDF704766
:10E86000F0B5324B1D6890F8C632A1B01DB3C3EBB2
:10E870000314C3EB84035B00C6182D4CB678A7784D
:10E88000B74240D0012D16D9A779B74241D0022D09
:10E8900011D0A77AB74210D0032D0CD0A77BB74276
:10E8A00025D0042D07D0A77CB74226D0052D02D055
:10E8B000A57DB54233D021B0F0BDB4F808C0C75A29
:10E8C000BC45E9D11B4B1E68002EF4D015460C4602
:10E8D0007C22002101A805F0CCFE012301A8ADF89F
:10E8E000065002948DF80430B04721B0F0BDB4F862
:10E8F0000CC0C75ABC45D4D1E4E7B4F810C0C75A1D
:10E90000BC45D3D1DEE7B4F800C0C75ABC45B9D185
:10E91000D8E7B4F804C0C75ABC45B8D1D2E7A48A36
:10E92000C35A9C42CED021B0F0BD00BFD8420020D7
:10E93000E0450020D04200202DE9F04190F8C64289
:10E9400090F8C532C4EB0415C4EB8504640000EBF9
:10E95000040E03EBC3069EF804C004EB46065D1CE0
:10E960000A36654582B006443AD0634530D2122556
:10E9700015FB034404440CF1FF383589984505F133
:10E98000010610D0658CAE4217D0013DADF806509F
:10E99000ADF8046000230B70104601A9FFF75EFF7D
:10E9A00002B0BDE8F081BEF80860AE4216D0013575
:10E9B000ADF80450ADF80660ECE704F11C065D1CF0
:10E9C000EFB2BC452B4680F8C55204F11204D4D8EE
:10E9D000012300200B7002B0BDE8F0810026EEE7B5
:10E9E0003389BEF808008342F2D00133ADF8043019
:10E9F000ADF80600CEE700BF68B130B4074C084957
:10EA0000084A094D10600023236001240C702B601C
:10EA1000184630BC70470E2318467047D842002075
:10EA2000D4420020D0420020DC45002000283ED007
:10EA30002D4B1B782BB370B42C4C2D4B2268002A25
:10EA400050D081789D788D4233D0012A42D99D796A
:10EA50008D4233D0022A3DD09D7A8D4233D0032A95
:10EA600038D09D7B8D420ED0042A33D09D7C8D42C0
:10EA700013D0052A2ED09D7D8D4213D0042070BC6A
:10EA80007047082070479E890588AE42ECD119492D
:10EA90000968E9B1002070BC70471E8A0588AE4243
:10EAA000E7D1F4E79D8A01888D42E7D1EFE70E2098
:10EAB00070471E880588AE42C7D1E8E79E88058862
:10EAC000AE42C7D1E3E71E890588AE42C7D1DEE773
:10EAD000052AD3D8511C006843F822002160002089
:10EAE00070BC70470121F6E7D4420020D8420020D4
:10EAF000E0450020D0420020B0B31C4B1B7843B34C
:10EB00001B4B1B682BB370B590F8C75204464DBB26
:10EB10000E464FF43372294605F0ABFD154A164BED
:10EB200010682060A4F8CA6284F8C95284F8C652FA
:10EB300084F8C5522246304601211D60FFF78AFE47
:10EB4000112808D020B9012384F8C80284F8C732FC
:10EB500070BD08207047012384F8C73284F8C8329A
:10EB6000284670BD112070BD0E207047D442002091
:10EB7000D8420020E0450020DC45002000B3F9B178
:10EB8000644B1B78E3B12DE9F04F0388113BA7B02C
:10EB900004460D46222B1AD8DFE803F08219191912
:10EBA00019191919191919191919191919191919D5
:10EBB00019191919191919191919192E19231300C5
:10EBC00070478288B1F8CA329A4200F0A78195F85E
:10EBD000C8321BB12388303B1F2B70D927B0BDE84A
:10EBE000F08F8388B1F8CA62B34200F09D8095F837
:10EBF000C822002A66D1F1E78388B1F8CA62B3421D
:10EC0000F5D1C38891F8C612002B00F07382DFF8AB
:10EC10001491D9F80080B8F1000F00F09A85C1EB8B
:10EC20000113C1EB83035B00EA183B4F9278B8787D
:10EC3000904200F05983B8F1010F40F2C085B879D5
:10EC4000904200F0BA83B8F1020F18D0B87A90421F
:10EC500000F0BA83B8F1030F11D0B87B904200F0F6
:10EC6000BA83B8F1040F0AD0B87C904200F0BA839E
:10EC7000B8F1050F03D0B87D904200F0BA8395F843
:10EC8000C9320133DBB2434585F8C932C0F0058390
:10EC9000224B032100225E80197085F8C72296E777
:10ECA0008288B1F8CA329A4298D100234FF6FF7297
:10ECB00081F8C73281F8C832A1F8CA228EE7A3884A
:10ECC000B5F8CA629E4289D14FF4337200212846BA
:10ECD00005F0CFFC104B124C186828600023A5F8F3
:10ECE000CA6285F8C932304685F8C63285F8C53221
:10ECF0002A4601212360FFF7ADFD112800F0C782ED
:10ED000000287FF46BAF012385F8C80285F8C7326D
:10ED100064E700BFD4420020E0450020DC42002030
:10ED2000DC450020D8420020C388002B40F08281BF
:10ED300091F8C662827AC6EB0613C6EB83035800CD
:10ED400001440B791A44062AD5BFD2B206271746CA
:10ED50003A46BB420A7180F0B38027464FF0760CEA
:10ED60000CFB06FC03EBC30257F80C9F0CEB4202B2
:10ED70002A44D7F80480C2F80E80C2F80A903F896E
:10ED800057824FF0000EA2F814E0A2F816E0A2F8A5
:10ED900018E0A2F81AE00A795F1CBA4240F2168223
:10EDA00007EBC70227460CEB420257F816AF2A447E
:10EDB000D7F80490C2F80E90C2F80AA03F89578293
:10EDC000A2F814E0A2F816E0A2F818E0A2F81AE0FF
:10EDD0000A799F1C974280F0F98107EBC70227460A
:10EDE0000CEB420257F820AF2A44D7F80490C2F83F
:10EDF0000E90C2F80AA03F895782A2F814E0A2F848
:10EE000016E0A2F818E0A2F81AE00A79DF1C97428F
:10EE100080F0DC8107EBC70227460CEB420257F873
:10EE20002AAF2A44D7F80490C2F80E90C2F80AA07C
:10EE30003F895782A2F814E0A2F816E0A2F818E081
:10EE4000A2F81AE00A791F1D974280F0BF8107EBF4
:10EE5000C70227460CEB420257F834AF2A44D7F8D2
:10EE60000490C2F80E90C2F80AA03F895782A2F817
:10EE700014E0A2F816E0A2F818E0A2F81AE00A7965
:10EE80005F1D974280F0A281A04607EBC70258F8A9
:10EE90003E9F0CEB42022A44D8F804C0C2F80EC0D0
:10EEA000C2F80A90B8F808C0A2F812C0A2F814E09C
:10EEB000A2F816E0A2F818E0A2F81AE00A790633E0
:10EEC000013B03EBC30305EB4303034408895B8A5F
:10EED000834280F0AF80062A00F0AC8085F8C5221E
:10EEE000A088002A40F00E83CB880A89ADF81E2046
:10EEF00007A9ADF81C30FFF7AFFC00283FF467AE60
:10EF0000002385F8C7320146A2882846FFF7A8FCEF
:10EF1000AF4BA2885A8003221A7058E6C08891F835
:10EF2000C61295F8C57240BB638933B3762606FBDB
:10EF300001F607EBC70306EB43062E442246D389AE
:10EF4000A3F52453082B73D8DFE803F0706C6972C3
:10EF5000727272720500B2F80CC0B38AA6F81AC0B9
:10EF60002BB1F38A1BB1338B0BB1738B2BB9638934
:10EF70000130984202F10602E1D3762202FB0152EF
:10EF80007B1C1279002693428DF81B6040F00A81A9
:10EF900001238DF81B30DFF84092B4F80480D9F8D3
:10EFA0000060002E00F02684762202FB01F2AB18EE
:10EFB000884F9B78B878984200F04482012E40F246
:10EFC0001F84B879984200F07882022E15D0B87A62
:10EFD000984200F0AC82032E0FD0B87B984200F02C
:10EFE000AD82042E09D0B87C984200F0DE82052E56
:10EFF00003D0B87D984200F04C8395F8C9320133B4
:10F00000DBB2B34285F8C932C0F0F981704B0321FD
:10F010000022A3F80280197085F8C722D7E59389EA
:10F02000B3829DE793893383B38A99E79389F38207
:10F03000B38A95E7002785F8C572A2880DF11B01F8
:10F040002846FFF779FC0646002840F0C7809DF867
:10F050001B30002B3FF4BBADDFF87C91B4F804A06B
:10F06000D9F8003095F8C612002B00F0CC83C1EB24
:10F070000112C1EB82025200A818564F807897F80F
:10F0800002C0844500F09882012B40F2C28397F8B9
:10F0900006C0844500F0CB82022B19D097F80AC035
:10F0A000844500F0EE82032B12D097F80EC0844501
:10F0B00000F01E83042B0BD097F812C0844500F09B
:10F0C0002683052B04D097F816C0844500F04883AA
:10F0D00095F8C9220132D2B29A4285F8C922C0F00D
:10F0E00034823B4B03210022A3F802A0197085F85B
:10F0F000C7226CE5C1EB0113C1EB83035B00C2685F
:10F10000EA502B440269C3F8062095F8C52280888E
:10F11000002A40F0AE80DA881B89ADF81E3007A9BE
:10F12000ADF81C20FFF798FB064600283FF44FADD2
:10F13000294A95F8C6321168002285F8C722B4F82A
:10F14000048049B3C3EB0312C3EB82035B00EA18EC
:10F15000204F9278B878904200F0788201291BD92C
:10F16000B879904200F0BD82022915D0B87A904259
:10F1700000F0D58203290FD0B87B904200F0F682D0
:10F18000042909D0B87C904200F01283052903D0ED
:10F19000B97D914200F006830D4B0322A3F8028053
:10F1A0001A7014E585F8C532A2880DF11B012846B6
:10F1B000FFF7C2FB8046002840F0C8809DF81B3056
:10F1C000002B3FF404AD95F8C612E4E63B4677E623
:10F1D000DC420020E0450020D8420020C44B85F8E6
:10F1E000C7721968B4F8048095F8C6320029D3D0E4
:10F1F000C3EB0312C3EB82035B00EA18BD4F9278A6
:10F20000B878904200F052810129C5D9B87990426E
:10F2100000F086810229BFD0B87A904200F0BE810A
:10F220000329B9D0B87B904200F009820429B3D0F9
:10F23000B87C904200F033820529ADD0B97D91426F
:10F24000AAD1BA8AEB5A9A42A6D1AB4B1F68002FBB
:10F25000A2D07C22002107A805F00BFA0123ADF80B
:10F260001E8007A808968DF81C30B847B4F80480B3
:10F2700092E7013AD2B2762602EBC20206FB01F116
:10F2800001EB42022A44528A013292B244E701233E
:10F2900085F8C73285F8C832A0E495F8C632013344
:10F2A000DBB2C3EB0312C3EB82025200A91857F87A
:10F2B000230085F8C632002385F8C532A8500A46D7
:10F2C0000B7130460121FFF7C5FA00283FF47FACEF
:10F2D00085F8C732014632462846FFF7C1FA874B08
:10F2E00003225E801A7072E435F803C038888445C2
:10F2F0007FF4A1AC804B1B680493002B3FF4BFACA0
:10F30000DFF8FCB1DBF800A0BAF1050F3FF6B7ACAF
:10F310007A4B4FEACA12CDE901321344762202FB3E
:10F320000151181D5E80039305F07FF9DDE9033676
:10F33000DE67DDE901300AF1010202214245CBF826
:10F340000020195400F0C080A68898E4684B85F826
:10F35000C7621968A68895F8C63249B3C3EB031291
:10F36000C3EB82035B00EA18624F9278B878904250
:10F3700000F09C8101291BD9B879904200F0C0812E
:10F38000022915D0B87A904200F0F78103290FD0F6
:10F39000B87B904200F0F881042909D0B87C9042F3
:10F3A00000F0F981052903D0B97D914200F00B826C
:10F3B000524B03225E801A7009E435F803C0B88806
:10F3C00084457FF440AC95E735F803C0388984451F
:10F3D0007FF440AC8EE735F803C0B88984457FF4EC
:10F3E00040AC87E735F803C0388A84457FF440ACE9
:10F3F00080E7EB5ABA8A9A427FF441AC7AE795F8F3
:10F40000C6320133DBB2C3EB0312C3EB82025200FC
:10F41000A91857F8230085F8C632002385F8C532AD
:10F42000A8500A460B7140460121FFF713FA002845
:10F430003FF4CDAB014685F8C73242462846FFF778
:10F440000FFAA9E6B7F800C0A85A84457FF4B6AD14
:10F45000294B1868049000283FF4CFADDFF8A0B026
:10F46000DBF800A0BAF1050F3FF6C7AD234B4FEA1A
:10F47000CA12CDE901321344762202FB0151181D54
:10F48000A3F80280039305F0D0F8DDE90330D867D4
:10F49000DDE901300AF101010022B142CBF8001090
:10F4A0001A5400F04381B4F80480A6E535F803C08F
:10F4B000388884457FF4A8AEC7E6B7F804C0A85AD8
:10F4C00084457FF482ADC3E71E464FF0000AF36F18
:10F4D00030469847D9F800300AF1010A9A4506F1FA
:10F4E0008006F4D398460023CBF800302CE700BF09
:10F4F000D8420020E0450020D0420020DC4200201D
:10F50000DC450020531EDBB2762203EBC30302FB73
:10F5100006F606EB43032B445B8A01339BB2E4E41B
:10F5200035F803C0B88884457FF474AE8DE6B7F82B
:10F5300008C0A85A84457FF44EAD89E7B7F80CC0DF
:10F54000A85A84457FF44DAD82E795F8C632013361
:10F55000DBB2C3EB0312C3EB82025200A91857F8C7
:10F56000230085F8C632002385F8C532A8500A4624
:10F570000B7150460121FFF76DF9014600283FF459
:10F5800026AB85F8C73252462846FFF769F9A24BE9
:10F590000322A3F802A01A70FFF719BB35F803C0C5
:10F5A000388984457FF43CAE4FE6B7F810C0A85ABE
:10F5B00084457FF41CAD4BE735F802E0B7F800C096
:10F5C000E6457FF461AD954A12680292002A3FF445
:10F5D0007FADDFF84CB2DBF80080B8F1050F3FF6E5
:10F5E00077AD05938C4B01934FEAC8101A18134658
:10F5F00003907622184602FB0151A3F802A00430C2
:10F60000049305F012F80498019B84460298CCF804
:10F610007C00039800211954059B08F101029342D4
:10F62000CBF8002000F0D580B4F804A050E535F800
:10F6300002E0B7F804C0E6457FF42EADC3E735F825
:10F6400003C0B88984457FF4F1ADFEE535F803C009
:10F65000388884457FF482AD704B1F68002F3FF4DB
:10F660009BAD7C22002107A805F003F80123ADF82B
:10F670001E80089607A88DF81C30B847B4F804809F
:10F680008AE535F802E0B7F808C0E6457FF40BAD2F
:10F6900099E7AB5ABA8A9A427FF4AFACD8E635F80C
:10F6A00003C0388A84457FF4C7ADCEE5B7F800C003
:10F6B000E85A84457FF45EAE584B1F68002F3FF434
:10F6C00077AE7C22002107A804F0D3FF0123ADF818
:10F6D0001E6007A8CDF820808DF81C30B847A6889A
:10F6E00066E635F803C0B88884457FF43DADB3E7DE
:10F6F00035F802E0B7F80CC0E6457FF4DBAC62E712
:10F70000B7F804C0E85A84457FF43AAED4E7B7F8B6
:10F7100010E035F802C0E6457FF4D3AC53E735F886
:10F7200003C0388984457FF425AD95E7DDF8048072
:10F730009246D8F87C3040469847D9F800600AF1E4
:10F74000010AB24508F18008F3D30023CBF800305A
:10F75000A9E695F8C932013385F8C932FFF798BA9E
:10F76000AA5AB88A90427FF4B3AC2CE735F803C0AC
:10F77000B88984457FF404AD6EE7B7F808C0E85A4D
:10F7800084457FF403AE97E7B7F80CC0E85A844588
:10F790007FF402AE90E7B7F810C0E85A84457FF4D2
:10F7A00001AE89E7BA8AEB5A9A427FF4F5AC53E787
:10F7B00035F803C0388A84457FF4E8AC4CE74FF055
:10F7C0000108FFF75CBABA8AEB5A9A427FF4F0ADAF
:10F7D00072E7DDF80480D8F87C3040469847D9F8C5
:10F7E000003001369E4208F18008F4D30022CBF8A5
:10F7F000002019E795F8C932013385F8C93205E4CC
:10F800000126FFF7FABB95F8C932013385F8C932F2
:10F8100067E401235CE400BFDC420020D04200200A
:10F82000DC450020007800F00100704730B5002171
:10F8300087B004462A4802F087FA08B907B030BDFD
:10F84000204600F009FB1128034641D011D9862833
:10F8500031D043F20202904213D1224B2046197854
:10F860000022FEF7A9FF00211D4802F097FA07B019
:10F8700030BD30B91B49024609782046FEF79CFF8F
:10F88000DCE70025CDE904550722CDE901552046E6
:10F890000393ADF806408DF8042000F0A7FDADF805
:10F8A000080001A802F0D6F80E4B2A462046197827
:10F8B000FEF782FFD7E700250623CDE90155204654
:10F8C000ADF80640CDE9035505958DF80430E4E721
:10F8D000044B204619780122FEF76EFFC3E700BFF4
:10F8E000F8450020FA45002070B54FF6FF728AB047
:10F8F00000249042CDE90044CDE902440494ADF8DF
:10F90000020001D10AB070BD054600F0F3FA0B28E1
:10F91000064634D00FD911280BD043F20203984287
:10F9200018D122461D4B28461978FEF745FF0AB02C
:10F9300070BD0122F6E768B90E23BDF802008DF80C
:10F94000003000F053FDADF80400684602F082F884
:10F950003246E7E7002407232846CDE90544079609
:10F960008DF81430ADF81650CDE9084400F03EFD96
:10F97000ADF8180005A802F06DF82246D2E70F2373
:10F98000BDF802008DF8003000F030FDADF8040045
:10F99000684602F05FF82246C4E700BFF945002040
:10F9A00070B5304E86B031780546FEF7E9FE08B1F5
:10F9B00006B070BD0446284600F0F4FA08282DD0A1
:10F9C00029D943F20203984249D043F201439842B5
:10F9D00040D0112843D00023072203902846CDE9C8
:10F9E0000133CDE904338DF80420ADF8065000F062
:10F9F000FDFCADF8080001A802F02CF801221A4B1A
:10FA000028461978FEF7D8FE224631782846FEF7B8
:10FA1000D3FE06B070BD40B10628DCD1284600F008
:10FA2000E5FC00F0DBFA0022E9E710232846CDE9E7
:10FA30000144CDE9034405948DF80430ADF8065037
:10FA400000F0D4FC0124ADF8080001A802F002F88F
:10FA50002246D4E72846FFF747FF0122CFE70122DD
:10FA6000CDE700BFFC450020FB45002070B54FF6F8
:10FA7000FF728AB000249042CDE90044CDE90244EF
:10FA80000494ADF8020001D10AB070BD054600F043
:10FA900031FA0B28064634D00FD911280BD043F287
:10FAA0000203984218D122461D4B28461978FEF7CA
:10FAB00083FE0AB070BD0122F6E768B90E23BDF8D7
:10FAC00002008DF8003000F091FCADF804006846AB
:10FAD00001F0C0FF3246E7E7002407232846CDE9BE
:10FAE000054407968DF81430ADF81650CDE908445A
:10FAF00000F07CFCADF8180005A801F0ABFF224631
:10FB0000D2E70F23BDF802008DF8003000F06EFC44
:10FB1000ADF80400684601F09DFF2246C4E700BF2F
:10FB2000F9450020F0B504788BB00CB10BB0F0BDF6
:10FB3000468800944FF6FF739E420546ADF802607A
:10FB4000CDE90144CDE903440CD1304600F014FA6C
:10FB50000028EBD02A4B688819780122FEF72CFE8A
:10FB60000BB0F0BD304600F0C5F90B28074639D080
:10FB700012D9112834D043F2020398421BD12246F5
:10FB8000204B30461978FEF717FE6E88304600F09D
:10FB9000F3F90028CAD0DDE768B90E23BDF80200EA
:10FBA0008DF8003000F022FCADF80400684601F04A
:10FBB00051FF3A46E4E7002407233046CDE90544E7
:10FBC00007978DF81430ADF81660CDE9084400F0C1
:10FBD0000DFCADF8180005A801F03CFF2246CFE768
:10FBE0000122CDE70F23BDF802008DF8003000F0B0
:10FBF000FDFBADF80400684601F02CFFBFE700BF35
:10FC0000FB450020F9450020F0B50378082B83B0B0
:10FC100007D0224C207822490022FEF7EFFD03B0E6
:10FC2000F0BD417A04460029F3D1057A072D22D090
:10FC3000082D2DD0012DECD16A462946808801F08F
:10FC400037FB06460028E4D1019B1B78002BE0D04F
:10FC5000A08800F0ADFC4FF6FF739842D9D0114F49
:10FC60000E4C39782A46FEF7A7FD324638780E4901
:10FC7000FEF7C4FDCEE78088084C00F099FC4FF6F3
:10FC8000FF739842C6D001222178FEF795FDC1E7A7
:10FC90000648024C02F082F8BCE700BFFA4500209B
:10FCA0002DF80200FB450020A1F90200F8450020D4
:10FCB00070B5FEF75BFD104C104D2070FEF756FD41
:10FCC0002870FEF753FD0E4E3070FEF74FFD23787F
:10FCD0000C4A182B10700DD02B78182B0AD03378C3
:10FCE000182B07D0182805D00121074802F024F866
:10FCF000002070BD032070BDFA450020F9450020AA
:10FD0000FB450020FC450020F845002070B5038825
:10FD10008588522B86B050D0542B26D0502B0DD036
:10FD2000284C294B294918780022FEF767FD2078D6
:10FD300027490022FEF762FD06B070BD037B012B50
:10FD4000EED1827A012AEBD1018942F6021399425F
:10FD5000E6D1204E1B4C31782846FEF72DFD307839
:10FD60001D490022FEF74AFDDBE700261123284645
:10FD7000CDE90166CDE903668DF80430ADF8065093
:10FD8000059600F033FBADF8080000F027F9134B9F
:10FD90000C4C197832462846FEF70EFD32462846AE
:10FDA0002178FEF709FDBDF8060000F01FFBADF855
:10FDB000080001A801F04EFEB3E72846FFF794FDC6
:10FDC000004CAEE7FB450020F94500206DFA02002B
:10FDD000A1F90200FA4500202DF80200FC450020A0
:10FDE000AFDF7047B1DF7047B2DF7047B3DF7047F6
:10FDF00070B5134C23884FF6FF75AB4282B00DD01F
:10FE0000104A92E803006E4686E803000022184676
:10FE1000314601F007FC2388AB420CD102B070BD23
:10FE2000184601F0EFFB00223146208001F0FAFB7A
:10FE30002388AB42F2D01128F2D102B070BD00BFCE
:10FE4000FE450020F4550300024B4FF6FF721A8066
:10FE500000207047FE4500202DE9F04182B00746A2
:10FE600000F0C4FA4FF6FF7398423CD006460124D6
:10FE70004FF003086B4622460821304601F01CFA79
:10FE800003230546F0B9019A3846911D42F8048BC8
:10FE9000FFF7AAFF013403460821D8B10C283046E9
:10FEA00003D1A4B201F0BCFAE4E70821052B18BF86
:10FEB0001D4601F0B5FA002818BF0325284602B0F8
:10FEC000BDE8F081072814BF05460C25284602B07E
:10FED000BDE8F0813246304601F05CFB054628461D
:10FEE00002B0BDE8F08143F20205284602B0BDE849
:10FEF000F08100BF2DE9F04182B0074600F076FAAC
:10FF00004FF6FF73984227D10026354603244FF061
:10FF100001082346324629463846FFF763FF042886
:10FF20000AD008280AD00B280AD0B8F1000F08BF61
:10FF30000B2002B0BDE8F0811120F6E70020F4E7C5
:10FF400014F0020406D195B12646254603244FF04D
:10FF50000008DEE70124FAE76A46082101F0A8F963
:10FF60000028D1D1019DAE882C680635CFE7002E40
:10FF7000DFD02E460324EAE700B585B00DF1070374
:10FF8000039300F033FA02AA012101F091F920B99C
:10FF9000039B187805B05DF804FB002005B05DF800
:10FFA00004FB00BF38B50C4B04461846FFF71EFF94
:10FFB00078B9198843F203054FF6FF722046FFF720
:10FFC0000FFFA84200D038BD1988013189B21980CD
:10FFD000F2E7032038BD00BF0046002010B5074BF4
:10FFE000044693E8030082B06B4683E803000022D6
:10FFF0001946204601F016FB02B010BDFC55030067
:020000023000CC
:1000000046DF70470388102B00D070472DE9F0437E
:10001000041D0FCC9FB007AD0FC50FCC0FC594E8E2
:1000200007009DF8203003F0FE03062B85E807004B
:1000300062D1BDF81C704FF6FF75AF4259D0DFF8A2
:1000400034828B4E98F8001001223846FEF7B4FB3C
:1000500098F800103846FEF793FB002867D000237D
:10006000324602E00133142B61D05188B94202F1CB
:100070000C02F7D1DBB203EB430308AA9B0092E822
:100080000300F41804F10802606022F8021B4FF626
:10009000FF70090CF052678011704FF6FF739D429C
:1000A00027D0BDF81C40734B20461978FEF768FB3B
:1000B00078B16F4E0023324602E00133142B08D092
:1000C0005188A14202F10C02F7D103EB430326F859
:1000D00023501EAC002304F8303DBDF81C30ADF8B1
:1000E0004C502046ADF84A3001F0C8FC2046FFF7DE
:1000F00019FD1FB0BDE8F08300F020FE9DF8203010
:100100005B08012B26D9022B93D105AD0DF1060416
:1001100005E09DF8203003F0FE03042B42D02A4670
:100120002146072000F012FE0028F2D181E7DFF817
:100130004091002402E00134142CAED0B9F8020042
:1001400098F80010FEF71CFB09F10C090028F2D109
:10015000E3B290E705AD0DF106042A4621460720DB
:1001600000F0F4FD00283FF464AF069911F1110F7F
:10017000F3D09DF820304A7C534013F0FE0FECD1B1
:10018000123106220DF1210004F040FA0028E4D1DA
:10019000BDF81C70BDF806504FF6FF739F423FF448
:1001A0007CAF4CE7069E03220DF1210102A804F06A
:1001B0003CFA032209A904A804F037FA337C8DF82D
:1001C0004830F37B8DF84930B37B8DF84A30737B30
:1001D0008DF84B30337B8DF84C30F37A8DF84D3001
:1001E000B37A8DF84E30737A8DF84F30337A8DF8BC
:1001F0005030F3798DF85130B3798DF852307379EE
:100200008DF8533033798DF85430F3788DF85530BC
:10021000B3788DF8563073788DF857300D22002161
:1002200016A804F026FA9DF810109DF811209DF8EC
:1002300012308DF8671012A88DF866208DF86530A1
:10024000FFF7DEFE9DF877209DF876609DF875300B
:100250008DF80C2003A9032202A88DF80D608DF8FB
:100260000E3004F0D3F900287FF459AF90E700BFB7
:100270000446002002460020F8B5102204460D4630
:100280000130013104F1110604F0C0F900284DD10C
:100290006378F3B9A378E3B9E378D3B92379C3B921
:1002A0006379B3B9A379A3B9E37993B9237A83B90D
:1002B000637A73B9A37A63B9E37A53B9237B43B9F9
:1002C000637B33B9A37B23B9E37B13B9277C002F6E
:1002D0002DD06B78002B4DD1AB78002B4AD1EB7829
:1002E000002B47D12B79002B44D16B79002B41D1C6
:1002F000AB79002B3ED1EB79002B3BD12B7A002B35
:1003000038D16B7A002B35D1AB7A002B32D1EB7A16
:1003100083BB2B7B73BB6B7B63BBAB7B53BBEB7B2D
:1003200043BB2F7C003718BF012700E00027637C08
:1003300046B115F1110605D06A7C5A4012F0FE0F45
:100340000CD0002603F0FC03042B05D06B7C03F0DB
:10035000FC03042B18BF37463846F8BD062205F1CA
:10036000120104F1120004F051F9B0FA80F6760996
:10037000637CE7E70127DAE730B585B005460C4630
:1003800000F0DCFC03E0BDF80630A3420BD102AA6A
:100390000DF10601072000F0D9FC0028F3D14FF63B
:1003A000FF7005B030BD03992846FFF765FF0028B0
:1003B000EDD0BDF80600F4E710B50A4B0A4C182240
:1003C000227003F1F0014FF6FF725A800C338B421A
:1003D000FBD1FEF7CBF9182820700CBF03200020BA
:1003E00010BD00BF044600200246002010B50D4B92
:1003F00019780446FEF7C4F980B10B480023024681
:1004000002E00133142B09D05188A14202F10C0201
:10041000F7D103EB430330F8230010BD4FF6FF7014
:1004200010BD00BF024600200446002038B5114B25
:100430000D4619780446FEF7A3F9C0B10E48002313
:10044000024602E00133142B11D05188A14202F17F
:100450000C02F7D103EB430300EB83031A1D58682A
:1004600028601B899279AA71AB80002038BD0520D5
:1004700038BD00BF024600200446002008B50288AF
:100480007AB983786BB9C3785BB903794BB943798F
:100490003BB983792BB9C3791BB9037A0BB9437A7A
:1004A00013B10B88934201D0002008BD023108220D
:1004B000023004F0ABF8B0FA80F0400908BD00BF8C
:1004C00030B585B00446851C00F038FC02AA0DF159
:1004D0000601072000F03AFC00285AD0238803992F
:1004E000002B35D1A278002A57D1E378002B49D1CF
:1004F0002279002A46D16279002A43D1A279002AC2
:1005000040D1E279002A3DD1227A002A3AD1627A9A
:10051000002A37D12379002B2FD1627952B9A379E0
:10052000002B2AD1E2792AB9237A002B3AD1627AB8
:10053000002ACBD04A8D9A42C8D12C3108222846B5
:1005400004F064F80028C1D1BDF8060005B030BD44
:10055000B1F846209A42EDD148310822284604F0ED
:1005600055F80028F0D023880399002BE2D1A27817
:10057000002ADFD1E378002BCCD04A8D00239A42A9
:10058000A4D1DAE7B1F84620002AE5D0002BC1D08B
:10059000F3E74FF6FF7005B030BDB1F84620002AF2
:1005A000DAD0C7E713464A8D9A428FD1C5E700BF1C
:1005B00010B40C4C0023224602E00133142B0CD063
:1005C0001188814202F10C02F7D103EB430304EBE3
:1005D00083035DF8044B588870474FF6FF705DF851
:1005E000044B704704460020038893B9837883B98D
:1005F000C37873B9037963B9437953B9837943B93C
:10060000C37933B9037A23B9407A003018BF012087
:1006100070470120704700BF38B50C4B0D46197864
:100620000446FEF7ADF878B109480023024602E01F
:100630000133142B08D05188A14202F10C02F7D1EA
:1006400003EB430320F8235038BD00BF02460020CF
:1006500004460020F8B51C4C00232546224602E043
:100660000133142B2CD01188814202F10C02F7D1F6
:1006700003EB430305EB83035E8800F08DFD4FF62B
:10068000FF739E42074600D008B13846F8BD0F4BB5
:1006900030461978FEF774F80028F6D03B4602E0A1
:1006A0000133142BF1D06288B24204F10C04F7D16B
:1006B00003EB43034FF6FF7225F823203846F8BDBD
:1006C000BDE8F84000F068BD044600200246002066
:1006D00090DF7047A5DF7047B5DF7047F0B585B094
:1006E00000230C466A4602A9ADF80840ADF80A405E
:1006F000ADF80430039300930646FFF7E9FF054683
:1007000010B9284605B0F0BD134F3C88FAF7D0F871
:10071000240444F001040346324620460F49F6F70C
:10072000E9F9BDF80020BDF8023002B933B13888CC
:100730000B49000440F00100F6F7DCF9BDF8042095
:10074000002ADED038880749000440F00100F6F79F
:1007500051F9284605B0F0BD683500200C5603005D
:100760005856030098560300E0B130B403461B22EC
:1007700000204FF017140C4D196217211C60C3F8AC
:100780000640C3F816401A711A755A751A775A77C7
:100790009872D8729874D8749876D876DD60198279
:1007A00030BC70470E2070471B1B17002DE9F0412D
:1007B0008588022D82B024D80388232B0C4623D0B1
:1007C0004CD93A2B2CD0552B00F08680242B6CD0A2
:1007D000EE00A3199B7AA3B134442846E188FFF7C1
:1007E00079FF00284BD011280BD0664B1C88FAF7F4
:1007F0005FF8240444F00104024663492046F6F7FA
:10080000F9F802B0BDE8F081EE008F19017A3B7B68
:10081000994228BF19462846FFF760FFBB7ADAE7FE
:1008200001EBC5064389F288934228BF1346172B74
:1008300038BF172333810A6A62B1F17A51B140F6A9
:100840007721ADF80010ADF80250ADF80430204625
:10085000694690470023F372B372D2E7102B12D08F
:10086000112BB5D101EBC50400221B234FF017114A
:10087000C4F80610A272E27223736373C1E7012207
:10088000A072E272BDE7EE008F190B793B73C37B58
:10089000012B49D0022B44D0F9883B898B4255D398
:1008A000397B7B7B8B42B9D2B5E7EE008F19027A98
:1008B0007A730B6A002BB1D000204DF67A21ADF887
:1008C0000400ADF80010ADF802508DF80420694620
:1008D00020469847BB7A7EE7EE00C3888F19172B16
:1008E000F98838BF17238B4228BF0B4600223B8173
:1008F000BA722846FFF7F0FEC8B9FB7A002B8DD1FB
:10090000236A002B8AD040F677213A89ADF800108F
:10091000ADF80250ADF80420694620469847BB7AEE
:1009200059E74988F980B8E70988F980B5E7154B98
:10093000B3F80080F9F7BCFF4FEA084848F0010817
:10094000024612494046F6F755F8D6E72846FFF723
:10095000C1FE10B90123FB72A2E7112802D10123C5
:10096000BB729DE7074BB3F80080F9F7A1FF4FEA90
:10097000084848F00108024603494046F6F73AF8AD
:100980008EE700BF68350020F056030024570300AF
:10099000B0DF704766DF704760B159B10378DE2B76
:1009A0000AD00B684360DE224FF6FF73027043806B
:1009B000002070470E2070470820704738B1037838
:1009C000DE2B02D1418000207047082070470E20A6
:1009D000704700BF19B110B10B78DE2B00D0704703
:1009E00030B505464B888088984285B00C4606D0C5
:1009F0002A88012A0DD0512A20D005B030BD0B7AAB
:100A0000002B35D12B88112B48D0512B4DD0012BE9
:100A1000F3D12B7A012BF0D162888242EDD123727F
:100A20000021FFF7B7FF00284ED0112808BF23721E
:100A3000E3D063689847E0E76388A8888342DCD105
:100A4000AA79022AD9D1A97B01F0FD0004282ED071
:100A50000529D2D100206946C1E902000090486012
:100A60008DF800201846FFF793FF0028E1D1C4E776
:100A70000021FFF78FFF0346A8B1112812D0636849
:100A800098472B88112B05D0512BD5D0012BB4D1F1
:100A9000A888BEE7AA8863889A42AED14FF6FF7352
:100AA0006380AAE701232372EBE70346C6E76946A2
:100AB00000204FF4C07548600090C1E902008DF835
:100AC0000020ADF80450CDE7207296E7F0B5002382
:100AD0008BB0224F1946082268463B7003F0C9FDCF
:100AE0004FF6FF7000F03CFE4FF6FF76B0421BD091
:100AF000044607E000F0DEFD204600F031FEB04283
:100B0000044611D0A4F58045ADB228466A4602A934
:100B1000F8F7FAFA0A282046ECD02846F8F7A0F9A8
:100B20000828034602D02BB90BB0F0BD01233B705F
:100B30000BB0F0BD00220721079305A84FF6FF7305
:100B4000CDE90522CDE90822ADF818408DF8141042
:100B5000ADF8163000F02AFA0BB0F0BDFC460020CC
:100B600010B58389047886B003F5804300229BB2D8
:100B7000611ECDE90122CDE90322ADF808300592CE
:100B800004290ED8DFE801F02C2C2C1403001322CA
:100B90004FF0FF3301A88DF80420CDF8063000F0A7
:100BA00005FA294C23780BB1FFF790FF06B010BD72
:100BB00043F6FE729342F4D8C289002AF1D142680A
:100BC000002A3AD00B238DF804301F4C01224FF637
:100BD000FF7301A82270ADF8063000F0E7F9E1E7F5
:100BE00043F6FE729342C1891ED8D0E90132A4F1C6
:100BF0000304B4FA84F464098DF80C108DF80D40E8
:100C00000492BBB99DF8143043F001038DF8143001
:100C100008224FF6FF7301A88DF80420ADF80630C6
:100C2000094C00F0C3F9BDE701F580439BB2934244
:100C3000DBD9B6E705930922EBE718460A238DF8BE
:100C4000043000F037FDC0E7FC46002030B51948FD
:100C500089B0F7F7A9FC48BBF7F7BCFC054608BB11
:100C600000F0E4FC03A80822294603F002FD0DE091
:100C700005A8F7F77FFE019B9C8804F58044A4B289
:100C800005A8F7F79FFE204600F0E6FC05A903AA99
:100C90004CF20700F8F7CAF901A90028E8D0284665
:100CA00009B030BD8625284609B030BD0325284649
:100CB00009B030BD610B0300F0B5FF2887B004D840
:100CC000012906D00C1F042C03D90724204607B0A5
:100CD000F0BD0D4604460021174601A808221E4615
:100CE00003F0C7FCA4F58040A5F5804180B201ABBC
:100CF00003AA89B2F8F728F9B0B901A903A8F7F750
:100D000039FE044680B9019BBD705A883A808EB185
:100D10003368920093420BD37868029903F085FC04
:100D200003A8F7F74FFED1E70524204607B0F0BD32
:100D30000424CBE7029B7B60F2E700BF082200217E
:100D4000014803F096BC00BFF4460020012804D0FF
:100D5000031F042B01D90120704770B5044686B0EB
:100D6000A0F5804015460E4680B203A90D4AF8F75B
:100D70005DF910B1002006B070BD01A903A8F7F716
:100D8000F9FD0028F6D1019BAC705988029A2980A0
:100D90006A609B8803F5804303A83380F7F712FE4F
:100DA0000120E8E7F446002008B58278012A0346CE
:100DB00004D0043A042A01D9072008BD084619883E
:100DC000F7F726FE072805D00928F6D0002818BF17
:100DD000032008BD862008BD00B583B002AB43F8F0
:100DE000040D1846F7F756FE002814BF0320002014
:100DF00003B05DF804FB00BFF0B58BB0FF28019293
:100E000005D88A78012A06D0141F042C03D9072498
:100E100020460BB0F0BDA0F58044A2F5804295B20B
:100E20004F68ADF81250A4B208221E4602A80B88E3
:100E300006930021ADF81040059703F01AFC2946EF
:100E4000204602AB07AAF8F77FF890B9019B2BBBAD
:100E500004A907A8F7F764FF04460E2C22D8DFE8A0
:100E600004F0142121212121211B102121212121E4
:100E70001000019BC3B904A907A8F7F737FE044681
:100E8000EBE7112420460BB0F0BD002EC0D0314658
:100E900007A8F8F7A7F9BBE78624B9E701A8F7F791
:100EA000F9FDD5E70324B3E701AA04A907A8F7F7DA
:100EB000BBFE0446D1E700BF4FF6FF7000F0CCBB8D
:100EC000FF2806D808B500F0E3FBFFF7FFFD002080
:100ED00008BD0720704700BF00F000BC00F008BC50
:100EE00000F03EBC10B582B08278417B04460023FE
:100EF0002C48CDE900338DF8022000F0EDFE0028EB
:100F00003BD0237BA178019003EB83039B004A1E17
:100F1000ADF800308DF80210072A08D8DFE802F09B
:100F200020070707072004301423ADF80030694676
:100F300004F1080362682088FFF75EFF07280DD0E0
:100F400012D9112822D0862817D1A37B164A03F084
:100F5000FD0343F001030121A373117002B010BD22
:100F60000123ADF80030E2E738B9A37B60F3410319
:100F700060F30003A37302B010BD032002B010BDE4
:100F8000838809339B08ADF80030D0E7A37B064A7D
:100F900043F002036FF3000301210020A3731170DB
:100FA00002B010BDA4470020A04700202DE9F04169
:100FB000574DC368AA68934286B0044600F0A580E6
:100FC000AA6905F11006934218BF00262378092B61
:100FD00000F08180132B7CD0082B27D000262046E0
:100FE00000F044FC204602F02DF84A4F2046FEF760
:100FF000FFFE2046FEF708FE3B7813B906B0BDE8B9
:10100000F081AB7B980737D413F0010302D0002E98
:1010100032D13346AA7F910754D4D20750D4002B43
:10102000ECD100233B7006B0BDE8F081677A002F59
:10103000D4D1002ED3D0337B5BB1DFF8E080717B5D
:101040003944C9B2404600F05FFE337B01379F420E
:10105000F5D3B37B03F0FD036FF300034FF6FF728C
:10106000B373FF2100233280B27071733373C6E90A
:1010700001331E46B3E71E462548FFF733FF00281D
:101080003FD000231B014FF6FF72EB5AADF808303A
:101090008628ADF8062036D00390072306AC04F866
:1010A000143D204600F0E2FB204601F0CBFF204635
:1010B000FEF79EFE2046FEF7A7FD06B0BDE8F081D4
:1010C000002EACD01448FFF70DFF002896D0012366
:1010D000D8E7012683E7637A002B7FF47FAF002EE9
:1010E0003FF47DAFB27BB36042F00202B273AA7BE1
:1010F000084F012196073970BDD4AB7F9C0790D56E
:10110000E0E7012386E70623C8E72E465EE700BF37
:10111000B4470020A0470020C4470020A447002077
:1011200030B5184C184BA57BA27F184905F0FD057A
:10113000FF206FF3000585B06073A57300204FF0AA
:10114000500C022502F0FD0260F30002CDE9015CC3
:1011500001250095A2774FF6FF752073C4E90100C1
:101160002077C4E90500A02209482580A5702582C2
:10117000A574657700F048FD002814BF0320002007
:1011800005B030BDB4470020D44700200047002000
:10119000A4470020FFF790BE2DE9F04FDFF808814B
:1011A000B8F80030B8F81060984283B005460DD00A
:1011B000B04274D02846FFF783FE074610B10728D7
:1011C00018BF0327384603B0BDE8F08F0022404621
:1011D0000192354A002702F1100A9D425CD0B542C7
:1011E00005D0002FE6D0384603B0BDE8F08F544656
:1011F00001218078A378834209D05446002936D152
:10120000B5424FF00101F5D0002FECD1D2E7A37B1E
:101210009B07F2D1A368002BEFD16068002834D17E
:101220004FF0000B237B6BB1204E4FF00009617B28
:101230004944C9B2304600F067FD217B09F101093C
:101240008945F4D3A37B002103F0FD03C4E9011118
:101250004FF6FF70BBF1000F6FF300034FF0FF0676
:1012600018BF0327A3732080A07066732173019BAE
:10127000002BB6D1B8F81030AB42B2D10122B8F889
:101280000030019250462E46A7E7FFF7A5FD002843
:10129000C6D04FF0030BC5E7034C0021A9E701229C
:1012A00008F11000019294E7B4470020A447002001
:1012B0000023FFF701BD00BF1BB32DE9F047CC1F92
:1012C000012C02D8541E012C02D90720BDE8F0875A
:1012D0008246984691460F46FFF7FEFD06460028D7
:1012E000F3D04C4D2A88298A924571D08A4557D02F
:1012F0004FF6FF739A4278D0994204D01120BDE88E
:10130000F0870E207047444C0123434903E00C460C
:10131000002BF3D10123A278FF2AF8D1A27B9207F8
:10132000F5D1A268002AF2D1A4F800A0A770617BD1
:10133000FF2916D00026394884F80C9000F0CCFC28
:1013400038B309EB890213019BB29B08A8F800305F
:1013500088F80270C8F804000EB1082F1BD00020D6
:10136000B4E749462D4800F06FFCFF286073014642
:10137000E1D1A37BA07003F0FD0300226FF3000313
:101380004FF6FF71A37321802273C4E9012211205B
:101390009CE703209AE79B00063B8380002095E7AB
:1013A000012005F11004DFF870C003E06446002856
:1013B0009ED10120A378BB42F8D1A37B9B07F5D136
:1013C000A368002BF2D1237B4B45B0D00F207DE7E3
:1013D0008A4518D0AC78BC428AD1AB7B980787D1BC
:1013E000AB682C46002B83D1EDE791420ED0AB7851
:1013F000FF2B83D1AB7B990780D1AB68002B7FF4A7
:101400007DAF044C90E700202C46CCE7014C002334
:101410007BE700BFB4470020C4470020A44700205A
:10142000F8B52A4A1488138A844204D0984237D0E7
:1014300005263046F8BD9C4245D093788B42F7D1C3
:10144000937B9907F4D193681446002BF0D1606820
:1014500000BB0026237B5BB11D4F0025617B294427
:10146000C9B2384600F050FC237B01359D42F5D3CC
:10147000A37B002203F0FD03C4E901224FF6FF71B4
:101480006FF30003FF206073A3732180A1702273A8
:101490003046F8BDFFF7A0FC0028DAD00326D9E7D4
:1014A00002F1100401230B4803E00446002BBFD1D6
:1014B0000123A2788A42F8D1A27B9207F5D1A268D3
:1014C000002AF2D1C3E714460023ECE7B44700201A
:1014D000A4470020C4470020CB1F012B01D90720BF
:1014E000704770B5284A1488138A844282B004D0A9
:1014F000984233D0052002B070BD9C4241D0937811
:101500008B42F7D1937B9807F4D193681446002B54
:10151000F0D1656815B1002002B070BD0E461B48C1
:10152000617B00F0D9FB00958DF80260A0B1237BB0
:10153000019003EB83039B00082EADF8003005BF3C
:101540008388093314239B08211D6846ADF80030B9
:10155000FFF72AFC0928CED10320CCE702F11004C2
:1015600001230B4803E00446002BC3D10123A278DA
:101570008A42F8D1A27B9207F5D1A268002AF2D163
:10158000C7E714460023ECE7B4470020A447002037
:10159000C4470020CB1F012B01D90720704730B46E
:1015A000164C2588238A854204D0984212D0052003
:1015B00030BC70479D421FD0A3788B42F7D1A37BEC
:1015C0009D07F4D1A368002BF1D12280204630BCC6
:1015D000FFF788BC10340123094D03E02C46002B93
:1015E000E5D10123A0788842F8D1A07B8007F5D10E
:1015F000A0680028F2D1E8E70023EDE7B447002017
:10160000C4470020FFF76ABCFFF76ABC10B5148816
:1016100082B002ABA40043F8044DFFF74DFB02B0CB
:1016200010BD00BF13460022FFF7E6BB10B5094C02
:1016300040222046002103F01CF820464FF4807120
:1016400000F07AFB04F120004FF48071BDE81040F7
:1016500000F072BBD84700204FF6FF73984210B5D8
:1016600009D0FF2804460ED80146084800F06CFB5C
:1016700048B1204610BD4FF48071044800F0AEFB25
:10168000B0F5807FF6D14FF6FF7010BDD84700202F
:1016900008B54FF6FF73984207D0FF2805D80146DA
:1016A000034800F051FB00B108BD002008BD00BF99
:1016B000F8470020FF2800D9704710B501460446BE
:1016C000044800F06BFB21460348BDE8104000F0E1
:1016D00065BB00BFD8470020F8470020FF2801D98C
:1016E000002070470146014800F0B4BBD8470020F5
:1016F0004FF6FF73984270B52CD0013084B2FF2CA6
:1017000024D8154D03E09CB2B4F5807F1ED021464D
:10171000284600F09FFB631C0028F4D00F4EA6F172
:1017200020052146304600F095FB88B10134A4B273
:10173000B4F5807F0AD02146284600F08BFB631C5D
:101740000028EED19CB2B4F5807FF4D14FF6FF743F
:10175000204670BD0024D4E7D8470020F847002079
:1017600038B54FF6FF73984216D0013084B2FF2C83
:101770000ED80A4D03E09CB2B4F5807F08D0214614
:10178000284600F067FB631C0028F4D0204638BDD3
:101790004FF6FF74204638BD0024EAE7F8470020E2
:1017A000074B1A7802B9704710B50446FEF72AFCB9
:1017B000204601F0C9FC2046BDE81040FEF7A6BA5D
:1017C0002E4800202DE9F041244B1F7884B027B922
:1017D000234B1F7004B0BDE8F0814FF6FF70FFF798
:1017E00011FF0121002501ABADF8081002AA062166
:1017F00004460195ADF80A500393FFF707FF072849
:10180000E6D02E464FF6FF7870B9019B9D422046E8
:101810009CBFA0461D46FFF7F5FE02AA062104461E
:10182000FFF7F4FE0028F0D0052802D1019600232E
:10183000ECE74FF6FF739C4209D10A4B0A4A1D6040
:10184000074BA2F800801F7004B0BDE8F081044B84
:1018500000271F7004B0BDE8F08100BF2E480020B3
:1018600030480020184800202C4800202DE9F04383
:10187000054687B08088FEF79BFE2B786880083B82
:10188000032B19D8DFE803F0685702285F4C237850
:1018900043B14FF6FF70FFF7B5FE4FF6FF73984266
:1018A000064677D05A4B1B7833B15A4BAA881B880F
:1018B0009A4201D1FFF786FF574E33784BB1574F0D
:1018C000002457F8243028469847337801349C4246
:1018D000F7DB07B0BDE8F0834C4B1A78002AEBD059
:1018E00000240DF104084C4E1C7021461422404681
:1018F00002F0BFFEAA68337803920D214FF0FF3249
:101900008DF80410CDF80620002BE2D0434F57F895
:10191000243028469847337801349C42F7DB002B6B
:10192000D7D0002457F82430404698473378013404
:101930009C42F7DBCDE76B7A002BBDD138490A68B2
:10194000002AB9D0E8688242B6D136480B600268F6
:10195000EB60013A0260AFE76B7A93B930490A68ED
:1019600012B1E86882420FD0294B1B78002BA3D01C
:10197000284BAA881B889A429ED12B7A062B9BD192
:1019800098E7012B98D1EFE7224AA8880B60EB601B
:10199000108091E7FFF738FEB04283D14FF0000985
:1019A0000DF104081C4E84F800904946142240466C
:1019B00002F05FFE33780C214FF0FF328DF80410F7
:1019C000CDF806209BB1154F57F829302846984787
:1019D000337809F101099945F6DB43B1002457F842
:1019E000243040469847337801349C42F7DB084B5B
:1019F0001B78002B3FF46DAF064AAB8812889A42E1
:101A00007FF467AFFFF7DEFE63E700BF1C480020EE
:101A1000304800202C4800202F480020204800207B
:101A2000344800201848002078B1F8B5074E3378C4
:101A300053B1074F0546002457F8243028469847ED
:101A4000337801349C42F7DBF8BD70472F48002003
:101A500020480020F8B5074E337853B1064F0546AD
:101A6000002457F8243028469847337801349C42A4
:101A7000F7DBF8BD2F48002020480020F8B5074EBE
:101A8000337853B1064F0546002457F824302846D2
:101A90009847337801349C42F7DBF8BD2F4800208B
:101AA0002048002038B5FFF7D1F8E8B9FFF738FB38
:101AB000D0B901F0F7FAB8B900F0ECF9A0B9FEF727
:101AC000F7F888B9FEF7C0F970B9FEF775FC58B998
:101AD000064A0749074B084C106001224FF6FF7574
:101AE00008701A70258038BD032038BD34480020A6
:101AF000304800202E4800202C4800200A4B1B783C
:101B00007BB10A4A1378022B09D810B4591C084C2F
:101B1000117044F8230000205DF8044B7047042046
:101B200070470820704700BF2E4800202F48002033
:101B300020480020034B1B780BB101F015BB082097
:101B4000704700BF2E48002008B5054B1B782BB10D
:101B500001F050FB082808BF112008BD082008BD6F
:101B60002E48002009B101F043BB7047F0B5224E6A
:101B7000337887B0002B3BD0204D01234FF6FF7008
:101B80002B70FFF73FFD4FF6FF77B842044628D190
:101B900000241B4E2C702146142201A802F069FD7E
:101BA00033780C214FF0FF328DF80410CDF8062069
:101BB00043B1144D55F8243001A8984733780134C7
:101BC0009C42F7DB0025284607B0F0BD2046FEF713
:101BD00041FD054640B92046FFF714FDB8420446D2
:101BE000F1D03378002BF1D10325284607B0F0BDA2
:101BF0000825284607B0F0BD2E4800201C480020CC
:101C00002F4800202048002038B5059CD0B1C9B12C
:101C1000C3B1069D05FB04F5954213D8049DE21D52
:101C2000B5EBD20F0ED36CB1069A5AB10246C2E997
:101C300000131846069B9460D360A1B200F07CF8B4
:101C4000002038BD072038BDF8B5002840D0036813
:101C50000646002B3CD04068002839D0B368002BE2
:101C600036D00F460025FF240DE0FF2C19BF2B1B9B
:101C7000013301232C469F422BD00135B368EDB2CE
:101C80009D4225D27068294600F05EF80028ECD10C
:101C9000FF2C16D0AC4214D2A4B2336863B1706882
:101CA000E3B248B1FF2B214606D000F0D3F818B1BB
:101CB0002146706800F072F80134A4B2E3B2AB427E
:101CC000EBD30135B368EDB29D424FF0FF04D9D399
:101CD000FF242046F8BD00BF98B138B5036873B142
:101CE000436863B1FF290AD0054618460C4600F048
:101CF000B1F820B1E968286801FB040038BD002074
:101D000038BD0020704700BF70B138B5036853B1CB
:101D1000436843B1FF2906D08DB2044629461846D0
:101D200000F098F808B938BD704729466068BDE8EA
:101D3000384000F033B800BF20B1CA1DD2080021DE
:101D400002F097BC704700BF2DE9F04182B058B156
:101D5000CF0801F007044FF0010808FA04F4C35D4E
:101D6000E4B214EA030604D00026304602B0BDE80F
:101D7000F081054602A800F8016DF5F7B9FEEB5DAC
:101D80001C4202D11C43EC5546469DF80700F5F76E
:101D9000D5FE304602B0BDE8F08100BFE8B170B5B5
:101DA000C1F3C706012501F00701835D8D402B4279
:101DB00082B001D102B070BD044602A8002300F831
:101DC000013DF5F795FEA15D9DF8070021EA0501AB
:101DD000A155F5F7B3FE02B070BD70472DE9F0478D
:101DE000884682B028B321B3074600254FF0010989
:101DF00003E00135ADB2A8451BD0EE0805F007049D
:101E000009FA04F4BB5DE4B2234007EB060AF0D103
:101E10000DF107008DF80730F5F76AFEBB5D1C4237
:101E20000CD001359DF80700ADB2F5F787FEA84547
:101E3000E3D14546284602B0BDE8F0871C439DF833
:101E400007008AF80040F5F779FE284602B0BDE8A1
:101E5000F08700BF58B1CB0801F00701C25C012335
:101E600003FA01F10A4214BF18460020704701200E
:101E7000704700BF7EDF70477FDF704785DF7047A8
:101E800086DF7047024B0A781978FCF795BC00BFD3
:101E9000503300202DE9F0411F4C2378182B37D008
:101EA0001E4D2B78182B2FD01D4E3378182B27D092
:101EB0001C4F3B78182B1FD0DFF86C8098F800007F
:101EC000182814D02378182B0ED02B78182B0BD071
:101ED0003378182B08D03B78182B05D0182814BF5E
:101EE00000200320BDE8F0810320BDE8F081FCF76D
:101EF0003DFC88F80000E5E7FCF738FC3870DBE7CC
:101F0000FCF734FC3070D3E7FCF730FC2870CBE7EB
:101F1000FCF72CFC2070C3E7513300205433002021
:101F20005233002053330020503300202DE9F04F6E
:101F300091B0934605460E46FCF7C8FBDFF8A88132
:101F4000044698F800102846FCF71AFC2022814627
:101F500000210DEB020002F08CFB012C33D0FCB110
:101F600026B33378DB074DD45D4BCDF82CB00F93FF
:101F70004FF6FF7A012C4FF000041AD108AB32461D
:101F800021462846FFF778FF074647B3B9F1000F0F
:101F900008D05046FEF75EFB384611B0BDE8F08F22
:101FA00043F20207384611B0BDE8F08F85244FF6A2
:101FB000FF7A08AB002221462846FFF75DFF07465F
:101FC000002FE3D10BE0474B002219782846FCF79D
:101FD000F3FB002EC5D185244FF6FF7ACEE7002C07
:101FE000D4D1B9F1000FDDD098F8001001222846B5
:101FF000FCF7E2FB28465146FEF70EFB384611B0CF
:10200000BDE8F08F2846FEF7F1F94FF6FF739842CE
:102010008246074631D0012C3CD003AB0122072178
:102020005046FFF749F911280746AFD068BB014673
:102030005022049802F01DFB049A294B1470049955
:10204000CDF82CB001F1340001F118074A1C0890BA
:1020500011312846CDE90C720F93FEF7E7F9A0B9CC
:1020600007215046FFF738FA052807460DD000280B
:1020700080D0B9F1000F95D08BE7FFF78BF8B8420D
:10208000824602D04FF00109C7E70327B9F1000FDC
:1020900088D07EE7134F28463978FCF771FB03ABF5
:1020A0000028BBD1014614221846019302F0E1FA40
:1020B000042228468DF80C20ADF80E50FEF796F954
:1020C000019BADF81000184600F03EFE3978284616
:1020D000FCF756FB019B0028A0D185244EE700BFEA
:1020E0003848002050330020533300202DE9F047BA
:1020F00088B00F4615460646FCF7E8FA01283ED0A0
:102100000228044635D1002F3AD09A4B2A46197836
:102110003046FCF751FB3046FEF768F94FF6FF7387
:1021200098428146824600F0BF80002D78D03A78F0
:1021300012F0010832D0002401AB012207214846E9
:10214000FFF7BAF80546002800F0D480072148467A
:10215000FFF766F9884B1978002800F0F080052811
:1021600000F0ED8030460022FCF726FB032514B179
:10217000B0E043F20205284608B0BDE8F08747B159
:1021800039463046FFF776FE0546284608B0BDE8DA
:10219000F0873D46284608B0BDE8F087A246444691
:1021A00039463046FFF766FE05460028CED1724B11
:1021B000724F197801223046FCF7FEFA704B01226B
:1021C00019783046FCF7F8FA6E4B424619783046DB
:1021D000FCF7F2FA39782A463046FCF7EDFA4FF070
:1021E0000108304603950595ADF80E600495CDE9DC
:1021F00006558DF814A08DF80C80FEF7F7F8ADF8B1
:10220000100003A800F0A0FD002CB4D039783046AF
:102210004246FCF7D1FA49463046FEF7FDF9AAE7F7
:1022200001AA0721FFF744F8002857D1029B93F831
:102230004420D20772D503F1340503F146042A463F
:1022400021463046FFF71AFE4B4BB0FA80F20546A6
:10225000520919783046FCF7AFFA002D8BD1484B64
:102260002A4619783046FCF7A7FA464B2A461978D1
:102270003046FCF7A1FA414B2A4619783046FCF764
:102280009BFA01233046CDE90355CDE90555ADF85C
:102290000E6007958DF80C30FEF7A8F8ADF8100029
:1022A00003A800F051FD66E797F8008018F00108D8
:1022B0003FF474AFFEF76EFF5045814658D10721B9
:1022C000FFF7AEF810B32C4B304619780022FCF71C
:1022D00073FA03254846FEF7BDF94CE7264B05285F
:1022E000197801D011283DD130460022FCF764FA5C
:1022F000112540E707214846FFF7EEF8054600287C
:102300007FF424AF4FF00108C24649E71A4B02465A
:1023100019783046FCF750FA0325DBE703F12A046D
:10232000204603F11805FEF75FF9002887D1124B0C
:10233000024619783046FCF73FFA0B251BE7042DBF
:1023400007D030460022FCF737FA002C3FF413AFD9
:10235000C0E730460022FCF72FFA1125002C3FF48D
:102360000AAFB7E72A463046FCF726FA032502E70C
:102370000124E1E650330020513300205333002084
:1023800054330020523300202DE9F0470388113BDD
:1023900088B004460D2B00F28180DFE813F00E00B8
:1023A0007F00A200C3007F007F007F007F001B0131
:1023B00049017F007F007F008200037A8488C44F38
:1023C0003D2B204641F23D03397814BF4FF4885528
:1023D0001D46FCF7D5F9002860D0BE4B2046197881
:1023E000FCF7CEF90346002800F003822046FDF7F3
:1023F000FDFFB94B064619782046FCF7C1F9B74BEB
:102400000028197820460CBF4FF002094FF001094F
:10241000FCF7B6F98046002840F0D6824FF6FF73ED
:102420009E4200F0CA8230460721FEF7F9FF0028DD
:1024300000F0C382052803AE13D005900723204681
:10244000CDF80C80CDF81080ADF80E40CDE90688AF
:102450008DF80C30FDF7CAFFADF81000304600F0E3
:1024600073FC0023C6E901330393C6E903331A461C
:1024700003233978ADF80E4020468DF81490ADF85E
:1024800016508DF80C30FCF797F9BDF80E00FDF7EB
:10249000ADFFADF81000304600F056FC08B0BDE8C6
:1024A000F087037A8188C3F34002C3F3000400235A
:1024B000059308468DF81440122403938DF81520D7
:1024C0000493CDE90633ADF80E108DF80C40FDF7FE
:1024D0008DFFADF8100003A800F036FC08B0BDE891
:1024E000F0878088FCF7F2F8012800F0298103AE1C
:1024F00034F8042F00230521104604340393B360FD
:102500007360ADF80E20C6E903338DF80C10059406
:10251000FDF76CFFADF81000304600F015FC08B078
:10252000BDE8F08700F110094846FDF7C9FF4FF6F6
:10253000FF739842804600F08E810146A088FEF726
:102540006BF8A588624F284639780122FCF734F9E8
:10255000604B284619780022FCF72EF95E4B28467E
:1025600019780022FCF728F95C4B03AE197828464D
:102570000022FCF721F9002301222846039373600F
:10258000C6E9023333618DF80C20ADF80E50FDF72B
:102590002DFFADF81000304600F0D6FB4FF6FF736C
:1025A000984574D0404601AA0721FEF781FE002815
:1025B0006DD1029D95F84430DB0761D500231A46A2
:1025C00005F13401A088FFF75BFC034600283FF4C7
:1025D00065AF66E090F808808588B8F1000F7FD07D
:1025E0003B4F437A39782846C3F30104FCF7C8F817
:1025F00000283FF453AF374B28461978FCF7C0F852
:102600001FFA88F80346002840F08B81CDE9053396
:102610001A4604930793032303903978ADF80E50BC
:102620002846ADF816808DF818408DF80C30EFE094
:10263000284B80881978FCF7A3F8054600287FF41A
:102640002DAFA088FCF75CF80346002800F0EC8072
:102650001F4BA08819782A46FCF7AEF8A088ADF881
:102660000E0002238DF814508DF815508DF80C30A3
:10267000FDF7BCFEADF8100003A800F065FB0DE708
:10268000494605F14600FDF7F9FE002896D10023E2
:102690001A461946A088FFF7F3FB0346002800F00E
:1026A000DF80A1880022084607240392C6E90122A0
:1026B000C6E90322ADF80E1005938DF80C40FDF726
:1026C00095FEADF81000304600F03EFBE6E600BF98
:1026D0005133002054330020523300205333002064
:1026E0002846FDF783FECC4B07461978424628461C
:1026F000FCF762F8637A13F004065BD1C74B2846F7
:102700001978FCF73DF88046002840F0588103AE68
:10271000637AADF80E5013F0040F0CBF02220122B1
:10272000022328468DF815808DF814208DF80C3082
:10273000FDF75CFEADF81000304600F005FBADE69D
:10274000237AA78813F00105B34B18BF0546197803
:1027500038464FF0010214BFA8464FF00208FCF7BC
:102760002BF8AF4B384619780122FCF725F8AD4B12
:102770002A4619783846FCF71FF8A84B03AE19789B
:1027800038460022FCF718F800230122384603934C
:10279000B3607360C6E90333ADF80E708DF8148032
:1027A0008DF80C20FDF722FEADF81000304600F049
:1027B000CBFA9DE601AB012207213846FEF77CFDEE
:1027C000814600285FD003AE072305902846CDF848
:1027D0000C80C6F80480ADF80E50C6E903888DF869
:1027E0000C30FDF703FEADF81000304600F0ACFAF7
:1027F0008EE7CDE904331A46CDE90633032303906F
:102800003978ADF80E402046ADF816508DF80C30F2
:10281000FBF7D2FFBDF80E00FDF7E8FDADF81000A4
:1028200003A800F091FA39E6A2887B490390CDE92C
:1028300005331046ADF80E2003251A46049307937E
:1028400041F20604012309788DF80C50ADF81640CA
:102850008DF81830DCE7A088FDF7C8FD804670E6EB
:10286000A4880393C6E9013320461A46ADF80E400A
:10287000C6E90333032441F2060339788DF80C408E
:10288000ADF81630FFE54FF6FF710298FDF774FDC5
:102890004FF6FF739842824624D0DFF88C810146C0
:1028A0002846FDF7B9FE98F800102846FBF768FFA8
:1028B00003AE002800F09480524607213846FEF708
:1028C00069FE002840F0B2804FF00108534B2846C3
:1028D0001978FBF755FF00283FF41AAF3846FDF78B
:1028E000B9FE15E73A4638460721FEF753FE0028A1
:1028F00000F0B38003AE072305902846CDF80C9076
:10290000C6F80490ADF80E50C6E903998DF80C3066
:10291000FDF76CFDADF810003046C84600F014FA23
:10292000F6E62846FDF762FD3E4B06461978284636
:10293000FBF726FF394B0028197828460CBF4FF0CB
:10294000020A4FF0010AFBF71BFF8146002842D123
:102950004FF6FF739E423CD030460721FEF760FDE4
:10296000B8B3052803AE13D0059007232846CDF849
:102970000C90CDF81090ADF80E50CDE906998DF879
:102980000C30FDF733FDADF81000304600F0DCF9F7
:102990000023C6E902330393736033611A460323AD
:1029A0003978ADF80E5028468DF814A0ADF8168091
:1029B0008DF818408DF80C3065E503AE51E53846CA
:1029C000FDF748FEB046A2E63046FDF743FE03AEF3
:1029D00047E503AEDCE73046FDF73CFE03AED7E744
:1029E00001461422304601F044FE042328468DF8A7
:1029F0000C30ADF80E50FDF7F9FCADF81000304684
:102A000000F0A2F998F800102846FBF7B9FE8046BE
:102A100000287FF451AF59E7513300205333002091
:102A20005433002052330020503300204FF0000870
:102A30000723C6E9018805902846CDF80C80C6E931
:102A40000388ADF80E508DF80C30FDF7CFFCADF8D3
:102A50001000304600F078F938E74FF0010803AE77
:102A600056E600BFF0B54F4B89B00024CDE90444D1
:102A70001B68039303AE054696E807006F4687E898
:102A80000700052328468DF80C30ADF80E50FDF7F1
:102A9000ADFCADF810003046CDE90547FEF7C4FFA8
:102AA000414B00991A682846FFF740FA862837D02C
:102AB0003E4B0746197822462846FBF77DFE3C4BE5
:102AC000A7F11102B2FA82F2197852092846FBF7EF
:102AD00073FE384B224619782846FBF76DFE364BBD
:102AE000224619782846FBF767FE37F0080301D124
:102AF00009B0F0BD112FFBD02846C6E90044C6E955
:102B000002443461ADF80E50009CFDF76FFC0D2FB0
:102B1000ADF8100030D0072305978DF80C3026E073
:102B2000224B012219782846FBF746FE204B22460D
:102B300019782846FBF740FE1E4B22461978284696
:102B4000FBF73AFE1C4B224619782846FBF734FE69
:102B500028460394C6E90144C6E90344ADF80E5083
:102B6000FDF744FC0623ADF810008DF80C3030461C
:102B7000FEF75AFF09B0F0BD03238DF80C307CB18D
:102B8000237813F0010F0CBF02210121002241F232
:102B900001138DF814108DF81820ADF81630E6E703
:102BA0000221F3E784480020784800205A330020AF
:102BB0005933002058330020573300202DE9F047C7
:102BC0005B4FDFF88081397888B00446FBF7D8FD89
:102BD00098F8001082462046FBF7D2FD06460028F2
:102BE0003ED1544B04901B6803930DF10C090590E2
:102BF00099E807006D46052385E8070020468DF813
:102C00000C30ADF80E40FDF7F1FBADF81000484672
:102C1000CDE90565FEF708FF474BDDF800901B780E
:102C20007BB3524649462046FFF760FA86280546A0
:102C3000424B2BD0197800222046FBF7BDFD404BBC
:102C4000A5F11102B2FA82F2520919782046FBF777
:102C5000B3FD112D07D0002D4AD108B0BDE8F08793
:102C60004FF00009DDE7324698F800102046FBF7E8
:102C7000A3FD524639782046FBF79EFD08B0BDE81B
:102C8000F0879DF80930002BCBD1E6E719780122B7
:102C90002046FBF791FD2A4B002219782046FBF7CE
:102CA0008BFD324698F800102046FBF785FD524612
:102CB00039782046FBF780FD00232046CDE9033319
:102CC000CDE90533ADF80E400793FDF78FFB0D2DD1
:102CD000ADF8100013D0862D0EBF062307230595EF
:102CE0008DF80C3003A8FEF79FFE08B0BDE8F08712
:102CF000112DB2D0082DDFD108B0BDE8F087032335
:102D00008DF80C30B9F1000F10D099F8003013F0A5
:102D1000010F0CBF02210121002241F201138DF8A5
:102D200014108DF81820ADF81630DBE70221F3E718
:102D3000553300208448002081480020583300206B
:102D400057330020563300202DE9F0410378052B3E
:102D500088B0044645D0122B3DD1B04B45881E6843
:102D6000002E00F02C81AE4B017A1B7803F001029B
:102D7000914205D8427AC3F340039A4240F28E80D2
:102D800001270026002231462846FFF7AFF98628A2
:102D90008046A44B00F0FB80197800222846FBF700
:102DA0000BFDA14BA8F11102B2FA82F25209197877
:102DB0002846FBF701FDB8F1110F40F094809B4BC2
:102DC0003A4619782846FBF7F7FC994B28461978BC
:102DD0000022FBF7F1FC2046FEF726FE08B0BDE816
:102DE000F0818E4A4588126803920026CDE9046678
:102DF00003AF97E80700D4F808808DF80C306C46D4
:102E000084E807002846ADF80E50FDF7EFFAADF85C
:102E100010003846CDE90584FEF706FE854B009983
:102E20001A682846FFF782F886280446824B00F08D
:102E30008480197832462846FBF7BEFC7F4BA4F10C
:102E40001102B2FA82F2197852092846FBF7B4FC53
:102E5000744B324619782846FBF7AEFC724B32466B
:102E600019782846FBF7A8FC34F00803B6D0112CDB
:102E7000B4D02846C7E90066C7E90266ADF80E502F
:102E80003E61009DFDF7B2FA0D2CADF8100000F088
:102E9000AC80072305948DF80C3074E04FF00008E7
:102EA000CDE90488039603AF97E807006E4686E8ED
:102EB0000700052328468DF80C30ADF80E50FDF7BD
:102EC00095FAADF810003846CDE90586FEF7ACFD61
:102ED0005B4B009E1B7823B99DF80930002B3FF413
:102EE0007AAF00274EE7B8F1000F3FF474AFB8F1A6
:102EF000110F3FF470AFB8F1080F3FF46CAF03AFA0
:102F00000023284603937B60ADF80E50C7E90233D7
:102F10003B61FDF76BFAB8F10D0FADF8100050D022
:102F2000B8F1860F0EBF06230723CDF814808DF865
:102F30000C303846FEF778FD4DE719780122284617
:102F4000FBF73AFC3D4B324619782846FBF734FC38
:102F5000344B324619782846FBF72EFC324B32466A
:102F600019782846FBF728FC28460396C7E901662E
:102F7000C7E90366ADF80E50FDF738FA0623ADF841
:102F800010008DF80C303846FEF74EFD26E7197814
:102F900028460122FBF710FC234B28461978002213
:102FA000FBF70AFC214B3A4619782846FBF704FC4C
:102FB0001F4B002219782846FBF7FEFB9FE70127ED
:102FC000E0E603238DF80C302EB3337813F0010FB5
:102FD0000CBF02210121002241F201138DF81410CF
:102FE0008DF81820ADF81630A3E703238DF80C30C8
:102FF0007DB12B7813F0010F0CBF022101210022BB
:1030000041F201138DF814108DF81820ADF8163028
:10301000B9E70221F3E70221DDE700BF8448002081
:103020007C480020583300205733002056330020BE
:1030300055330020784800205A33002059330020AF
:103040008148002008B50378082B1DD30B2B0DD920
:10305000132B19D10D4B0E4918780022FBF7CEFB2C
:103060000C4B0D4918780022FBF7C8FB0B4B0849A5
:1030700018780022FBF7C2FB094B07491878002299
:10308000BDE80840FBF7BABB08BD00BF5A330020BB
:10309000652A030058330020BD2B0300593300205C
:1030A0005733002010B5224C2378182B15D0214C13
:1030B0002378182B18D0204C2378182B1BD01F4CAA
:1030C0002378182B1ED01E4C2378182B21D01D4C92
:1030D0002378182B24D0002010BDFBF747FB20706D
:1030E000144C2378182BE6D1FBF740FB2070124CD0
:1030F0002378182BE3D1FBF739FB20700F4C237892
:10310000182BE0D1FBF732FB20700D4C2378182BE5
:10311000DDD1FBF72BFB20700A4C2378182BDAD17A
:10312000FBF724FB1828207008BF0320D3D110BD63
:1031300057330020583300205533002056330020E9
:10314000593300205A33002008B5FFF71DF9044B0E
:10315000044918780022BDE80840FBF74FBB00BFC8
:1031600057330020BD2B03000346002833D00278DC
:1031700002F0820180292CD0C2F30211042928D840
:1031800002F0F201322924D041788078814220D89F
:1031900006291ED910281CD8D978480719D41879BF
:1031A00010F0040F15D10143080712D4D20701F023
:1031B00003010CD569B10B4A186810601B790A48E5
:1031C0000A491371012302600B7000207047002927
:1031D000F1D0072070470449044A086001211170AA
:1031E000704700BF7C4800208448002081480020B0
:1031F000FEF748BE2DE9F0433E4B89B00027CDE9EC
:1032000004771B68039303AE8046894696E807005F
:103210006D4685E8070005244046ADF80E808DF820
:103220000C40FDF7E3F8ADF810003046CDE9057528
:10323000FEF7FAFB304B00991B7813B99DF8093063
:1032400043B34A464046FEF751FF862804462B4BBF
:1032500024D0197800224046FBF7AEFA284BA4F19F
:103260001102B2FA82F2520919784046FBF7A4FA29
:103270000B2C0FD038D9112C2BD1224B00221978CE
:103280004046FBF799FA204B4A4640461978FBF72F
:1032900093FA0024204609B0BDE8F083197840462F
:1032A0000122FBF789FA164B404619780022FBF7FA
:1032B00083FA144B404619780022FBF77DFA124B33
:1032C00040464A461978FBF777FA204609B0BDE830
:1032D000F08343F202039C42DCD00D2CDAD00324AD
:1032E000204609B0BDE8F083002CD3D0082CF6D1DD
:1032F000D0E700BF844800208148002058330020D8
:10330000573300205633002055330020A8DF704784
:10331000AADF7047AEDF70470388112B21D0502BF6
:1033200005D0102B00D0704783880B847047C2886B
:103330008B899A42F7D1038A022BF4D10B68002BB8
:10334000F1D010B5123082B00C46FCF76BFA02A92E
:1033500080F0010001F8040D23682046984702B070
:1033600010BD4FF6FF730B84704700BF2DE9F04787
:103370000E4696B03368036016A941F60D0321F896
:103380004C3D337943714FF6FF7200234FF0010932
:103390001427028480F82230A0F84C3080F84E7058
:1033A000821D054648468DF80E90FFF7AFFF044694
:1033B00018B1204616B0BDE8F0870DF1040840466C
:1033C0000322214601F055F99DF80630327B8DF835
:1033D000052069F342034FF0110C1C2221460FA86F
:1033E0008DF806308DF804C001F043F99DF83C30AB
:1033F000CDF850800DF1080843F0100342F6372C49
:103400000322214640468DF83C30ADF810C01094A0
:10341000CDE9124415948DF8129001F02AF99DF827
:103420000A30727B96F80EC08DF8082069F34203CB
:1034300064F3C30364F30413DBB23A460DEB0700F5
:1034400043EA090321468DF80A308DF809C001F0DE
:1034500010F96B7995F82220B5F84C00CDF818805A
:10346000002B15BF0423002306270227002A08BFCC
:103470001F4604AB8DF82940059320B395F84EE024
:10348000BEF1030F47F01007024640F29B800DF19A
:103490002808424605F1220C042102E08E45C0F0C6
:1034A00081803CF8023F937001341B0AA042D37024
:1034B0005FFA81F902F1020201F10201EED11FFA75
:1034C00089F984B204E004464FF002090DF128089E
:1034D000041B4FF0140AA5F84C4005F10803002422
:1034E0000DEB0A020FA9E888ADF81E408DF8287090
:1034F000ADF81C90CDF82480ADF820A0FFF708FFB0
:10350000044600287FF455AFB368002B3FF451AF59
:1035100001461C220FA801F0ACF89DF83C30109435
:10352000012743F0020342F6382C2146032204A867
:10353000CDE91244CDE914448DF83C30ADF814C007
:103540008DF8167001F095F89DF81230F27B96F820
:1035500010C08DF8102067F3420364F3C30364F3D3
:10356000041364F300035246214640468DF812309E
:103570008DF811C001F07DF8B4680E940DEB0A04CB
:103580000A94E8880C9704AC42460FA905F1100391
:103590000B94ADF83470FFF7BBFE0446204616B01E
:1035A000BDE8F08704F11201021B1FFA89F94900F6
:1035B000A4B25200294405F1240001F041F8B5F805
:1035C0004C0085E74FF0020924210DF12808F0E7AF
:1035D000028C4FF6FF739A427ED02DE9F047437973
:1035E00090F82220002B15BF042300230627022772
:1035F000002A08BF1F46FF298AB0CBB235D8B0F8E1
:103600004C908DF815304FF002084146C446042412
:103610000646B9F1000F3AD14C4605ADA9EB0404BA
:10362000A6F84C401022002101A88DF81470ADF8C6
:103630000280012401F01DF83789308C04950022A6
:103640000DF1020301A9ADF804708DF80640ADF844
:1036500008200393FFF75EFE20B9BDF80230434512
:1036600018BF0C200AB0BDE8F087B0F84C908DF878
:103670001530090A4FF003088DF8161047F00107BE
:103680004146C44605240646B9F1000FC4D096F859
:103690004EA0A24547F010074A4630D30CF1020273
:1036A00006F12200002405AD01E0524516D830F89D
:1036B000023F6B5405EB010E5FFA82FC01341B0ADA
:1036C00061464C4501F102028EF80130EDD11FFA3E
:1036D0008CF81FFA89F4A1E70820704704F112035F
:1036E000A9EB04021FFA81F8A4B259005200314438
:1036F00006F1240000F0A4FFB6F84C908EE70024F9
:10370000242105ADF2E700BFA1DF7047A3DF7047BA
:103710000B78002B5AD170B502464868374C20F020
:103720007F40A0428CB001D00CB070BD087A4C88AC
:10373000ADF8024001258DF80050A8B3CE8942F6BD
:103740003724A64244D001282ED00B8CA3424AD065
:10375000022829D04B8EA34247D0032824D0B1F8A9
:103760004430A34243D004281ED0B1F8564042F65C
:1037700037239C423DD0052816D0B1F868409C42C2
:1037800025D0062810D0B1F87A409C4233D01C4690
:103790000D46062303E0B5F87A60A64218D001333F
:1037A000834205F11205F6D311884FF6FF73994253
:1037B00006D0538823B9938813B90198C2F8020040
:1037C00010469368694698470CB070BD7047052352
:1037D00003EBC30301EB4301088BCB8AADF8040074
:1037E000ADF80630E0E72B46F2E70223F0E70323CB
:1037F000EEE70423ECE70623EAE700BF0D1801001B
:10380000B8B1B1B100B583B0034602A841F60D02CC
:1038100020F8042D0A689A604FF6FF7100221960A3
:103820009A8001238DF80630FBF700F903B05DF8AC
:1038300004FB0E20704700BF59B150B1F0B50388AA
:10384000382B8DB006D0392B2BD0112B1FD00DB0BB
:10385000F0BD70470A8883889A42F8D1324D334BC5
:103860002C681B689C42F2D0314904EB84039B0016
:10387000CE18C85AB278002A50D1B188FFF744FF59
:103880000028E4D1631C03F007032B60DFE7828884
:103890000B889A42DBD14FF6FF7200230A608B80BF
:1038A000D5E70A8883889342D1D144898A88944293
:1038B000CDD1047CADF80230E5074FF002034FF0A4
:1038C00000028DF800308DF8062048BF837C427CD2
:1038D0004ABF42EA032292B20323ADF80420E20673
:1038E00017D5C789C2180DF1060500240AE0567CD9
:1038F000107C013440EA0620142C25F8020F02F156
:10390000020204D09F4203F10203F0D8E4B28DF822
:1039100006408B6808466946984798E7083319447B
:10392000FFF7F4FEACE700BF284900202C49002037
:1039300088480020002832D070B51D4E1D4D3268D9
:103940001D4C02EB82039B00013202F0070102884A
:103950004088EA52EA1804332B4431601361266828
:1039600050810223D381002393815371B1424FF0E0
:1039700001031372137193700FD006EB86039B0043
:10398000E9188A786AB98988E85AFFF7BDFE20B934
:10399000013606F00706266070BD002070BD0E20BF
:1039A000704703F108012944E85AFFF7AFFEEEE73C
:1039B0002C490020884800202849002030B101808F
:1039C00012B11368C0F80230002070470E20704713
:1039D000A8DF7047AADF7047AEDF704739B130B15A
:1039E0000388112B04D0502B09D0102B04D0704722
:1039F0004FF6FF73CB8270478388CB827047C288B3
:103A00004B899A42F3D1038A022BF0D10B68002B29
:103A1000EDD010B5123082B00C46FBF703FF02A9BF
:103A200080F0010001F8040D23682046984702B099
:103A300010BD00BF2DE9F04397B0002800F00481CD
:103A4000002900F001810E464FF6FF7233680360D3
:103A500016A9C28241F61403044621F84C3D012701
:103A600073890383221D38468DF80E70FFF7B0FF6F
:103A7000054618B1284617B0BDE8F0830DF10408DB
:103A800029460322404600F0F4FD9DF806303279C5
:103A90008DF8052067F342034FF0110C29461C22D4
:103AA0000FA88DF806308DF804C000F0E2FD9DF8F7
:103AB0003C30109543F0100342F6532C2946032264
:103AC00002A8CDE9125515958DF83C30ADF810C01F
:103AD000CDF850808DF8127000F0CBFD9DF80A30C3
:103AE00072798DF8082067F3420365F3C30365F329
:103AF0000413DBB23B4329461422B5798DF80A3012
:103B000005A88DF8095000F0B4FD328A238B8DF89A
:103B1000292002A80690100A04AAB17C059213EA93
:103B200007028DF82A008DF82B1040F092800420B7
:103B300017464FF0080E02464FF0020C990714D5B5
:103B4000717B91B1B1690025080A61F3070560F343
:103B50000F2516AF080C3A4460F31745090E61F3C0
:103B60001F657046674642F8305C5B0704D5B37B3F
:103B700013B147F00407FFB24FF014090025ADF868
:103B80001C000DF12808A31D0DEB09020FA9A08848
:103B9000ADF81E508DF82870ADF82090CDF8248037
:103BA000FFF718FF054600287FF464AF01461C228A
:103BB0000FA800F05EFD9DF83C30109543F0020325
:103BC00042F6542C29460127032204A8CDE91255B8
:103BD000CDE914558DF83C30ADF814C08DF8167051
:103BE00000F047FD9DF81230F27996F808C08DF884
:103BF000102067F3420365F3C30365F3041365F311
:103C0000000329464A4640468DF812308DF811C00F
:103C100000F02FFD7389A0888DF808301D0A04F18B
:103C20000E030DEB09040A9404AC02260B944246E1
:103C30000FA902AC8DF809500E940C96ADF83460C3
:103C4000FFF7C8FE054615E70E25284617B0BDE864
:103C5000F083327B002A3FF46AAFB28A8DF82C20C1
:103C60000620120A8DF82D204FF00A0E02464FF062
:103C7000030C63E700284ED000294CD0C28A4FF6CF
:103C8000FF739A4245D0F0B58BB08B88048B8DF8CA
:103C900015301B0A8A798DF8163014F001038DF85F
:103CA000172002D00B78002B4CD104252A464FF068
:103CB000080C0227A60701D54E7876BB620704D50B
:103CC0008A7812B143F00403DBB2044610220021CB
:103CD00001A88DF81430ADF8025000F0CAFCE3885A
:103CE000E08AADF80430012600240DF1020205AB94
:103CF00001A98DF80660ADF80840CDE90323FFF770
:103D00006BFE20B9BDF80230AB4218BF0C200BB0DF
:103D1000F0BD082070470E207047CB6800261D0AB2
:103D200063F3070665F30F260DF1280E1D0C65F3EE
:103D300017461B0E724463F31F6665463B4642F806
:103D4000146CBBE70B898DF8183006251B0A8DF81B
:103D500019302A464FF00A0C03270123AAE700BFB7
:103D6000A1DF7047A3DF70470B78002B5AD170B5E5
:103D700002464868374C20F07F40A04286B001D010
:103D800006B070BD087A4C88ADF80640A8B3CD895E
:103D900042F65324A54247D001282ED00B8CA342D3
:103DA0004DD0022829D04B8EA3424AD0032824D0DC
:103DB000B1F84430A34246D004281ED0B1F8564092
:103DC00042F653239C4240D0052816D0B1F86840F3
:103DD0009C4228D0062810D0B1F87A409C4236D0B8
:103DE0001C460D46062303E0B5F87A60A6421BD0B8
:103DF0000133834205F11205F6D311884FF6FF73A4
:103E0000994206D0538823B9938813B90298C2F80F
:103E1000020006A9012301F8143D10469368984753
:103E200006B070BD7047052303EBC30301EB4301EC
:103E3000088BCB8AADF80800ADF80A30DDE7012326
:103E4000F2E70223F0E70323EEE70423ECE706237F
:103E5000EAE700BF14180100B8B1B1B100B583B0F2
:103E6000034602A841F6140220F8042D0A689A605D
:103E70004FF6FF71002219609A8001238DF80630F9
:103E8000FAF7D4FD03B05DF804FB0E20704700BFC5
:103E900030B1018012B11368C0F8023000207047C1
:103EA0000E20704759B150B170B50388382B86B0D9
:103EB00006D0392B2BD0112B1FD006B070BD704708
:103EC0000A8883889A42F8D1364D374B2C681B6894
:103ED0009C42F2D0354904EB84039B00CE18C85AAB
:103EE000B278002A58D1B188FFF73AFF0028E4D110
:103EF000631C03F007032B60DFE782880B889A427C
:103F0000DBD14FF6FF7200230A608B80D5E70A8869
:103F100083889342D1D144898A889442CDD1027C4E
:103F2000867C447CADF8063002F00105C2F3400304
:103F3000C2F3800244EA06248DF80A200226C27CDD
:103F40008DF809308DF80850DBB2ADF80C408DF8D3
:103F500004608DF80E20E5B1447D027D42EA042222
:103F6000ADF810200C25062473B100F10A022A4492
:103F7000204493785478007CD2781B0443EA0423CD
:103F8000034343EA026305938B68084601A99847F7
:103F900093E70A250424E7E708331944FFF7E2FE14
:103FA000A4E700BFD0490020D449002030490020B8
:103FB00000283FD001884FF6FF73994231D070B589
:103FC0001D4D46882A681D481D4C02EB82039B004C
:103FD0000132C152C118043302F0070203442A60BF
:103FE0000B6125684E810223CB8100238B814B71AD
:103FF000AA424FF001030B720B718B700FD005EBCF
:1040000085039B00C1188A786AB98988C05AFFF76E
:10401000A7FE20B9013505F00705256070BD002019
:1040200070BD0820704703F108010144C05AFFF732
:1040300099FEEEE70E207047D44900203049002059
:10404000D049002010DF704711DF704770B53E4D3A
:104050002B7884B0002B68D13C4E3D49012302A847
:104060003370F6F70FFC039B002B54D1394902A89B
:10407000F6F708FC039B4BB1D3E9002100209047E1
:1040800002A8F6F709FC039B002BF5D1324A002366
:1040900012688DF8083002A80192F3F729FD2F4924
:1040A00001A8FFF7CFFFB0FA80F304465B099DF843
:1040B00008002B70F3F742FD002C33D1284A294920
:1040C0003470E0230C7082F8163382F8153392F8BE
:1040D00016335B09012B2CD9042B2AD0224B99686B
:1040E00061BB4FF4800313601A4902A8F6F7CAFBBC
:1040F000039BBBB1D3E900210120904702A8F6F74A
:10410000CBFB039B002BF5D10CE002A8F6F7C4FB18
:10411000039B002BAAD0D3E9002100209047002860
:10412000F3D10446204604B070BD0824204604B0F4
:1041300070BD42F20200F3F785F9D5E71A6842F440
:1041400080021A60D0E700BFD9490020D84900207A
:1041500080570300985703007C57030065740200E2
:1041600000E100E0DA490020DC490020F0B5314DE3
:104170002B7883B0002B54D02F4E30490123684652
:104180003370F6F77FFB019B002B40D12C4968462A
:10419000F6F778FB019B4BB1D3E900210220904751
:1041A0006846F6F779FB019B002BF5D1002768469E
:1041B0008DF80070F3F79CFCFFF746FF04469DF86E
:1041C00000002F70F3F7BAFC44BB1E4B34709A68A2
:1041D0005ABB1D4B4FF48002C3F880201849684633
:1041E000F6F750FB019BCBB1D3E9002103209047A8
:1041F0006846F6F751FB019B002BF5D1204603B032
:10420000F0BD6846F6F748FB019B002BBED0D3E912
:104210000021012090470028F3D10446204603B036
:10422000F0BD0824204603B0F0BD1A6822F48002D5
:104230001A60D3E7D9490020D849002080570300ED
:1042400098570300DC49002000E100E0054B1B7893
:1042500033B1054B1B780BB9FFF7F8BEFFF786BFEC
:1042600008207047D8490020D9490020014B187810
:10427000704700BFD949002000B583B0684608499F
:10428000F6F700FB019B43B1D3E900209047684655
:10429000F6F702FB019B002BF6D103B05DF804FB9F
:1042A0008C57030060DF704769DF704761DF70473C
:1042B000134B1B781BB330B5124D91B034240DF164
:1042C000020103A8ADF80240FFF7F0FF88B92946C4
:1042D00001A8F6F7D7FA029B002BF0D0D3E9002112
:1042E00003A8904701A8F6F7D7FA029B002BF5D157
:1042F000E5E7052801D0F3F7A5F811B030BD704708
:10430000DB490020E4590300002900F0A18070B5CA
:10431000504B0B6084B00C4605460C22002101A8CE
:1043200000F0A7F90326062301A922688DF804509E
:1043300020208DF80660ADF80830FFF7B5FF0028A3
:1043400079D10C22002101A800F093F90225012364
:1043500022688DF8053001A940208DF807308DF8CE
:104360000650FFF7A1FF002858D10C22002101A818
:1043700000F07FF9002322688DF8043001A90120A4
:10438000FFF792FF00283CD10C22002101A800F089
:1043900070F94FF4B0632268019301A9A120FFF7DF
:1043A00083FF08BB0C22002101A800F062F99DF8F0
:1043B000043022686FF3000301A9A0208DF80430B7
:1043C000FFF772FF08B904B070BD234B1C88F6F7E5
:1043D0006FFA240444F00104024620492046F2F713
:1043E00009FB002004B070BD1B4B1D88F6F760FA76
:1043F0002D0445F00105024619492846F2F7FAFA5C
:10440000D0E7154B1D88F6F753FA2D0445F001054A
:10441000024614492846F2F7EDFAB5E70E4B1D881F
:10442000F6F746FA2D0445F0010502460E492846E6
:10443000F2F7E0FA99E7084B1D88F6F739FA2D04F0
:1044400045F00105024609492846F2F7D3FA78E714
:104450000E207047582D002074350020E0580300CE
:104460008C58030040580300F4570300AC57030076
:10447000F8B504460668FFF715FF2368B342054602
:1044800005D83DBB1B4B01221A702846F8BD1A4FB8
:104490001A493888000440F00200F2F707F938881A
:1044A000236817490004324640F00200F2F722FB6D
:1044B0004FF080533888D3F80C31226811499B02A1
:1044C000000403F1005340F002009A1AF2F792FA46
:1044D000002DD7D0084B28461C88F6F7E9F92404AC
:1044E00044F00104024608492046F2F783FA2846C0
:1044F000F8BD00BFDB4900207435002034590300AB
:104500006459030098590300C45903004BDF7047F6
:1045100010B5114C84B001A8FFF7F8FFA8B92146E7
:1045200002A8F6F7AFF9039B002BF4D0D3E90021E2
:104530000198904702A8F6F7AFF9039B002BF5D13D
:1045400001A8FFF7E3FF0028E9D0052801D0F2F722
:1045500079FF04B010BD00BFFC59030008B5074B3C
:10456000044613B10021AFF30080054B1868836A3D
:1045700003B19847204600F099F800BF0000000002
:10458000145A030070B50D4E0D4CA41BA410002549
:10459000A54209D10B4E0C4C00F00AFAA41BA41042
:1045A0000025A54205D170BD56F825309847013544
:1045B000EEE756F8253098470135F2E72C35002014
:1045C0002C3500202C35002030350020044B054AC6
:1045D0001B681B6A002B08BF1346D3F8EC0070471A
:1045E0005C330020C033002082B001B901A942B180
:1045F0004BB113780B601278101C18BF012002B069
:1046000070471046FBE76FF00100F8E730B5002473
:10461000A24201D1002007E0035D01340D1915F815
:10462000015CAB42F4D0581B30BD10B5431E0A44A8
:10463000914200D110BD11F8014B03F8014FF7E78B
:10464000884210B501EB020307D8421E99420AD0F6
:1046500011F8014B02F8014FF8E78342F5D98118B0
:10466000D21AD34200D110BD13F8014D01F8014D0B
:10467000F7E702440346934200D1704703F8011B59
:10468000F9E7034613F8012B002AFBD1181A013869
:10469000704749B1FF2A85BF8A2303600A704FF033
:1046A000FF3098BF0120704708467047FEE700BF03
:1046B00053B94AB9002908BF00281CBF4FF0FF3189
:1046C0004FF0FF3000F072B9ADF1080C6DE904CE87
:1046D00000F006F8DDF804E0DDE9022304B07047DD
:1046E0002DE9F047089E04468846002B4BD18A42AC
:1046F000154667D9B2FA82F24AB1C2F1200701FA2F
:1047000002F320FA07F7954047EA030894404FEA7E
:10471000154E230CB8FBFEF71FFA85FC0EFB17881D
:1047200043EA084307FB0CF1994209D9EB1807F15A
:10473000FF3080F01B81994240F21881023F2B44E8
:104740005B1AA4B2B3FBFEF00EFB103344EA034441
:1047500000FB0CFCA44509D92C1900F1FF3380F0B3
:104760000781A44540F2048102382C4440EA074006
:10477000A4EB0C0400271EB1D4400023C6E900437B
:104780003946BDE8F0878B4209D9002E00F0EB8056
:104790000027C6E9000138463946BDE8F087B3FA7C
:1047A00083F7002F47D18B4202D3824200F2FA8076
:1047B000841A61EB030301209846002EE0D0C6E97D
:1047C0000048DDE702B9FFDEB2FA82F2002A40F0CB
:1047D0008F80491B4FEA154E1FFA85F80127B1FB60
:1047E000FEFC230C0EFB1C1143EA014308FB0CF1F9
:1047F000994207D9EB180CF1FF3002D2994200F22E
:10480000CD808446591AA3B2B1FBFEF00EFB101402
:1048100043EA044408FB00F8A04507D92C1900F12D
:10482000FF3302D2A04500F2B6801846A4EB08047C
:1048300040EA0C409FE7C7F1200CBB4022FA0CFE77
:104840004EEA030E01FA07F420FA0CF521FA0CF3F4
:104850004FEA1E482543B3FBF8F92C0C08FB19332B
:104860001FFA8EFA44EA034309FB0AF49C4202FA57
:1048700007F200FA07F10BD91EEB030309F1FF3031
:1048800080F087809C4240F28480A9F10209734441
:104890001B1BADB2B3FBF8F008FB103345EA034431
:1048A00000FB0AFAA24508D91EEB040400F1FF330D
:1048B0006BD2A24569D90238744440EA0940A0FB92
:1048C0000289A4EB0A044C45C2464B4654D351D04E
:1048D000002E69D0B1EB0A0564EB030404FA0CFC6A
:1048E000FD40FC404CEA0505C6E90054002747E7B7
:1048F000C2F1200320FA03F7954001FA02F021FAF1
:1049000003F34FEA154E3843010CB3FBFEF71FFAD1
:1049100085F80EFB173341EA034107FB08F38B428E
:1049200004FA02F407D9691807F1FF3C2FD28B4231
:104930002DD9023F2944CB1A81B2B3FBFEF00EFB06
:10494000103341EA034100FB08F38B4207D9691891
:1049500000F1FF3C17D28B4215D902382944C91AFD
:1049600040EA07473BE73746304609E70746E7E6B0
:104970001846FBE64145ABD2B8EB020A69EB0E02E2
:1049800001381346A4E76046E9E7184695E767460D
:10499000D1E781467CE702382C4447E7ACF1020CB2
:1049A0002B442FE7384608E73746E9E6704700BF53
:1049B000F8B500BFF8BC08BC9E467047F8B500BF0C
:1049C000F8BC08BC9E467047FFFFFFFFFFFFFFFFDC
:1049D000FFFFFFFFFFFFFFFF0000000000000000DF
:1049E0000000D60107010000D56302004164020007
:1049F000D16302004261636B656E647320666C75FF
:104A000073686564000000006170700062616C6C26
:104A10006F632E6C6F675F6D656D706F6F6C0000FC
:104A2000784A0300A44A0300584A0300AC4A030032
:104A3000B44A0300BC4A0300C44A0300CC4A030042
:104A4000D44A0300202530327800000020202000C6
:104A50007C000000256300001B5B313B33316D009F
:104A600025734C6F67732064726F707065642028C3
:104A700025642925730D0A001B5B306D00000000C2
:104A8000257300003C25733E2025733A200000006A
:104A900000000000DC4A0300E44A0300EC4A030083
:104AA000F44A03001B5B313B33306D001B5B313B31
:104AB00033326D001B5B313B33336D001B5B313B8D
:104AC00033346D001B5B313B33356D001B5B313B79
:104AD00033366D001B5B313B33376D006572726F8F
:104AE000720000007761726E696E6700696E666FB2
:104AF000000000006465627567000000F83A00205D
:104B0000466174616C206572726F720053797374C0
:104B1000656D207265736574000000000000000080
:104B20000338FDD8704700000000FFFFDEC0ADDE97
:104B3000FE011EF1DEC0ADDEFF011EF1617466698B
:104B4000666F2E6D5F7175657565000030313233AB
:104B50003435363738394142434445466E72665FD4
:104B60006673746F726167655F696E6974000000D7
:104B70006E72665F6673746F726167655F77726984
:104B8000746500006E72665F6673746F726167654C
:104B90005F65726173650000616464725F69735F71
:104BA000706167655F616C69676E656428705F66D8
:104BB000732C20706167655F616464722900000076
:104BC000616464725F69735F77697468696E5F625C
:104BD0006F756E647328705F66732C2070616765F3
:104BE0005F616464722C20286C656E202A20705FDF
:104BF00066732D3E705F666C6173685F696E666F89
:104C00002D3E65726173655F756E697429290000B8
:104C1000705F667300000000257320636865636B36
:104C2000206661696C656420696E202573282920DF
:104C3000776974682076616C756520307825782EE8
:104C400000000000705F617069000000705F6465C3
:104C5000737400006C656E00616464725F69735FF9
:104C6000616C69676E656433322873726329000072
:104C7000616464725F69735F77697468696E5F62AB
:104C80006F756E647328705F66732C207372632C6B
:104C9000206C656E29000000705F66732D3E705FAA
:104CA00061706900705F73726300000021286C6599
:104CB0006E202520705F66732D3E705F666C617399
:104CC000685F696E666F2D3E70726F6772616D5FAF
:104CD000756E697429000000616464725F69735FB6
:104CE000616C69676E65643332286465737429008A
:104CF000616464725F69735F616C69676E65643378
:104D000032282875696E7433325F7429705F73724C
:104D100063290000616464725F69735F7769746816
:104D2000696E5F626F756E647328705F66732C20A6
:104D3000646573742C206C656E2900006E72665F6A
:104D40006673746F726167650000000000100000F8
:104D50000400000001000000E59F0200C59F020062
:104D6000B59F0200A9A1020019A20200899F0200BA
:104D70008D9F0200919F020061746669666F2E6DBF
:104D80005F6669666F000000405B0300405B0300E4
:104D9000040000007077725F6D676D7400000000A2
:104DA000556E6B6E6F776E206572726F7220636FD7
:104DB0006465000000000000DC4E030001000000FC
:104DC000E84E030002000000084F0300030000004B
:104DD0002C4F030004000000404F030005000000BA
:104DE000544F030006000000684F03000700000056
:104DF000804F030008000000984F030009000000E6
:104E0000B04F03000A000000CC4F03000B0000006D
:104E1000E44F03000C000000FC4F03000D000000F5
:104E2000105003000E000000245003000F0000008B
:104E3000345003001000000048500300110000002F
:104E400060500300120000007050030013000000C7
:104E500088500300800000009C5003008100000087
:104E6000C050030082000000DC50030083000000FB
:104E7000F850030084000000185103008500000072
:104E80003C510300860000006451030090000000C4
:104E90007C510300910000009C510300920000002F
:104EA000BC51030000820000D451030001820000C5
:104EB000F45103000282000010520300008400003D
:104EC0002C520300018400005052030002840000B1
:104ED0007C52030003840000A45203004E52465F3C
:104EE00053554343455353004E52465F4552524F2C
:104EF000525F5356435F48414E444C45525F4D49C3
:104F00005353494E470000004E52465F4552524FA0
:104F1000525F534F46544445564943455F4E4F54A4
:104F20005F454E41424C4544000000004E52465FF2
:104F30004552524F525F494E5445524E414C00002B
:104F40004E52465F4552524F525F4E4F5F4D454D58
:104F5000000000004E52465F4552524F525F4E4F86
:104F6000545F464F554E44004E52465F4552524F95
:104F7000525F4E4F545F535550504F52544544006A
:104F80004E52465F4552524F525F494E56414C4930
:104F9000445F504152414D004E52465F4552524F80
:104FA000525F494E56414C49445F53544154450069
:104FB0004E52465F4552524F525F494E56414C4900
:104FC000445F4C454E475448000000004E52465F37
:104FD0004552524F525F494E56414C49445F464CF0
:104FE000414753004E52465F4552524F525F494E21
:104FF00056414C49445F4441544100004E52465F83
:105000004552524F525F444154415F53495A450003
:105010004E52465F4552524F525F54494D454F558F
:10502000540000004E52465F4552524F525F4E555B
:105030004C4C00004E52465F4552524F525F464F15
:105040005242494444454E004E52465F4552524FEB
:10505000525F494E56414C49445F4144445200001E
:105060004E52465F4552524F525F425553590000CF
:105070004E52465F4552524F525F434F4E4E5F4332
:105080004F554E54000000004E52465F4552524F5D
:10509000525F5245534F5552434553004E52465F5F
:1050A0004552524F525F4D4F44554C455F4E4F5401
:1050B0005F494E495449414C495A4544000000005B
:1050C0004E52465F4552524F525F4D555445585FC0
:1050D000494E49545F4641494C4544004E52465F53
:1050E0004552524F525F4D555445585F4C4F434BBC
:1050F0005F4641494C4544004E52465F4552524F2F
:10510000525F4D555445585F554E4C4F434B5F468B
:1051100041494C45440000004E52465F4552524FB3
:10512000525F4D555445585F434F4E445F494E4979
:10513000545F4641494C4544000000004E52465FD2
:105140004552524F525F4D4F44554C455F414C5272
:10515000454144595F494E495449414C495A454497
:10516000000000004E52465F4552524F525F53546A
:105170004F524147455F46554C4C00004E52465FEA
:105180004552524F525F4150495F4E4F545F494D17
:10519000504C454D454E5445440000004E52465F2C
:1051A0004552524F525F464541545552455F4E4F0E
:1051B000545F454E41424C45440000004E52465F0C
:1051C0004552524F525F494F5F50454E44494E47FA
:1051D000000000004E52465F4552524F525F44520B
:1051E000565F5457495F4552525F4F56455252558C
:1051F0004E0000004E52465F4552524F525F44529D
:10520000565F5457495F4552525F414E41434B00F0
:105210004E52465F4552524F525F4452565F54576A
:10522000495F4552525F444E41434B004E52465FE8
:105230004552524F525F424C455F495053505F5266
:10524000585F504B545F5452554E434154454400AF
:105250004E52465F4552524F525F424C455F495055
:1052600053505F4348414E4E454C5F414C5245417F
:1052700044595F4558495354530000004E52465F0D
:105280004552524F525F424C455F495053505F4C1C
:10529000494E4B5F444953434F4E4E45435445445A
:1052A000000000004E52465F4552524F525F424C42
:1052B000455F495053505F504545525F52454A45FE
:1052C00043544544000000000D0E0F10111213143A
:1052D000636C6F636B000000434C4F434B00000056
:1052E0004750494F544500005052530055415254C5
:1052F0000000000055415254450000000D0003001D
:105300003DC302000E0003003DC302000F00030076
:105310003DC30200100003003DC30200F43E002024
:10532000143F0020343F00200D1801001418010024
:105330005065726970686572616C20636F6E6E652E
:10534000637465640000000050657269706865727E
:10535000616C20646973636F6E6E6563746564006D
:1053600043656E7472616C20636F6E6E6563746505
:1053700064000000417474656D707420746F206661
:10538000696E6420485253206F7220525343206F3D
:105390006E20636F6E6E5F68616E646C652030783E
:1053A000257800004852532063656E7472616C204A
:1053B000646973636F6E6E656374656420287265DB
:1053C00061736F6E3A202564290000005253432018
:1053D00063656E7472616C20646973636F6E6E6571
:1053E000637465642028726561736F6E3A2025646A
:1053F00029000000746172676574206E616D652D0F
:105400003E2025730D0A0000746172676574206E7A
:10541000616D652D3E204E2F410D0A00746172674B
:105420006574206D61632D3E20253032783A253039
:1054300032783A253032783A253032783A2530328F
:10544000783A253032780D0A00000000436F6E6E06
:10545000656374696F6E205265717565737420465B
:1054600061696C65642C20726561736F6E202564C0
:1054700000000000436F6E6E656374696F6E2052AA
:105480006571756573742074696D6564206F7574DA
:105490002E00000048525320646973636F76657272
:1054A0006564206F6E20636F6E6E5F68616E646C02
:1054B000652030782578000048656172742052615B
:1054C0007465203D2025640006001800000090014E
:1054D00005018813640000000000000000000000C7
:1054E0000000000052656C617900000052656C613B
:1054F00079206578616D706C652073746172746574
:10550000642E0000457261736520626F6E647321C2
:1055100000000000466173742061647665727469EE
:1055200073696E672E000000436F6E6E656374656D
:105530006420746F20612070726576696F75736C7A
:105540007920626F6E646564206465766963652E98
:1055500000000000436F6E6E656374696F6E2073A8
:105560006563757265643A20726F6C653A202564D4
:105570002C20636F6E6E5F68616E646C653A2030DC
:105580007825782C2070726F6365647572653A2097
:1055900025642E0052756E6E696E672053706565C6
:1055A0006420616E6420436164656E636520736589
:1055B000727669636520646973636F76657265648A
:1055C000206F6E20636F6E6E5F68616E646C652025
:1055D0003078257800000000537065656420202035
:1055E0002020203D20256400626C655F64625F645A
:1055F000697363000100010004560300010001000B
:1056000008560300010000000000000073645F62A0
:105610006C655F6761705F646174615F6C656E6724
:1056200074685F75706461746528292028726571DB
:105630007565737429206F6E20636F6E6E65637479
:10564000696F6E20307825782072657475726E658A
:10565000642025732E000000546865207265717502
:1056600065737465642054582F5258207061636BC1
:105670006574206C656E67746820697320746F6F41
:10568000206C6F6E672062792025752F2575206F3D
:1056900063746574732E00005468652072657175BB
:1056A000657374656420636F6D62696E6174696FA0
:1056B0006E206F6620545820616E6420525820700E
:1056C00061636B6574206C656E67746873206973C1
:1056D00020746F6F206C6F6E6720627920257520B3
:1056E0006D6963726F7365636F6E64732E00000083
:1056F00073645F626C655F67617474635F65786330
:1057000068616E67655F6D74755F726571756573ED
:105710007428292072657475726E65642025732E55
:105720000000000073645F626C655F67617474738E
:105730005F65786368616E67655F6D74755F7265DC
:10574000706C7928292072657475726E65642025E5
:10575000732E00006E72665F626C655F67617474C1
:1057600000000000626C655F6872735F6300000098
:10577000626C655F727363735F6300000100000712
:10578000705C0300785C030008000000605C0300AC
:10579000705C030008000000505C0300605C0300C4
:1057A000080000006E72665F7364680073645F6275
:1057B0006C655F6366675F73657428292072657422
:1057C00075726E6564202573207768656E2061743C
:1057D00074656D7074696E6720746F2073657420D2
:1057E000424C455F434F4E4E5F4346475F474150F3
:1057F0002E00000073645F626C655F6366675F73B1
:10580000657428292072657475726E65642025732D
:10581000207768656E20617474656D7074696E6759
:1058200020746F2073657420424C455F4741505F80
:105830004346475F524F4C455F434F554E542E00F1
:1058400073645F626C655F6366675F736574282964
:105850002072657475726E656420257320776865A3
:105860006E20617474656D7074696E6720746F204A
:1058700073657420424C455F434F4D4D4F4E5F431F
:1058800046475F56535F555549442E0073645F6227
:105890006C655F6366675F73657428292072657441
:1058A00075726E6564202573207768656E2061745B
:1058B00074656D7074696E6720746F2073657420F1
:1058C000424C455F47415454535F4346475F415400
:1058D00054525F5441425F53495A452E0000000024
:1058E00073645F626C655F6366675F7365742829C4
:1058F0002072657475726E65642025732077686503
:105900006E20617474656D7074696E6720746F20A9
:1059100073657420424C455F47415454535F43467E
:10592000475F534552564943455F4348414E4745BB
:10593000442E0000496E73756666696369656E740E
:105940002052414D20616C6C6F6361746564206608
:105950006F722074686520536F667444657669635E
:10596000652E00004368616E67652074686520528B
:10597000414D207374617274206C6F636174696F40
:105980006E2066726F6D203078257820746F20301D
:105990007825782E000000004D6178696D756D20C6
:1059A00052414D2073697A6520666F722061707074
:1059B0006C69636174696F6E206973203078257833
:1059C0002E00000073645F626C655F656E61626CDF
:1059D0006528292072657475726E65642025732EA2
:1059E00000000000405B0300A05B03000800000013
:1059F0006E72665F7364685F626C6500285B0300AB
:105A0000405B0300080000006E72665F7364685FAD
:105A1000736F6300603300204300504F53495800B8
:105A20002E00002020202020202020202828282888
:105A3000282020202020202020202020202020205E
:105A400020202088101010101010101010101010AE
:105A500010101004040404040404040404101010BE
:105A6000101010104141414141410101010101016A
:105A700001010101010101010101010101011010F8
:105A8000101010104242424242420202020202023E
:105A900002020202020202020202020202021010CA
:105AA00010102000000000000000000000000000B6
:105AB00000000000000000000000000000000000E6
:105AC00000000000000000000000000000000000D6
:105AD00000000000000000000000000000000000C6
:105AE00000000000000000000000000000000000B6
:105AF00000000000000000000000000000000000A6
:105B00000000000000000000000000000000000095
:105B10000000000000000000000000000000000085
:085B200000000000000000007D
:105B280025A402000000000085AE0200000000006D
:085B380085E202007C3F002021
:105B4000A9E502000000000009C8020000000000F2
:105B50007DEB0200B02D00207DEB02007C300020A8
:105B6000EDE102007C3F0020AD070300344000203F
:105B700059E3020000000000A1170300000000002C
:105B8000D5090300B4400020D5090300C04000201F
:105B9000D5090300CC40002035CB020000000000F6
:105BA000D852030000000000E05203000000000093
:105BB000E852030000000000EC5203000000000067
:105BC000F452030000000000084A03000000030331
:105BD000784D0300000000033C4B0300000000036D
:105BE0000C4A030000000003E85503000000030313
:105BF0006457030000000303705703000000030311
:105C0000D0520300000000005457030000000303BB
:105C10003C4D030000000303A457030000000303EE
:105C2000F059030000000303085A030000000303B7
:085C3000944D03000000000088
:105C3800FC350020C4360020CC3600200436002075
:085C4800543500201800000093
:105C500085A2020000000000ADAE020000000000BE
:105C6000B1420300000000001145030000000000E5
:085C7000A19F020000000000EA
:085C7800C805FF7F01000000D8
:105C80000000000000200040000000000020004054
:105C900000000000E84903000000000000000000D0
:105CA00000000000000000000000000000000000F4
:105CB000503500200000000000000000000000003F
:105CC000000000004C3500200090D0030D180100AA
:105CD00014180100FFFFFFFF00000000000000009B
:105CE00000000000000000000000000000000000B4
:105CF00000000000000000000000000000000000A4
:105D00000000000000000000000000000000000093
:105D10000000000000000000000000000000000083
:105FA0000000FFFF000000000000000000000000F3
:105FB00000000000000000000000000000000000E1
:105FC00000000000000000000000000000000000D1
:105FD00000000000000000000000000000000000C1
:105FE00000000000000000000000000000000000B1
:1062700000410020FF0000001818181818181818FE
:106280001818180060330020000000000000000013
:1062900000000000000000000000000000000000FE
:1062A00000000000000000000000000000000000EE
:1062B00000000000000000000000000000000000DE
:1062C00000000000000000000000000000000000CE
:1062D00000000000000000000000000000000000BE
:1062E000000000000000000043000000000000006B
:1062F000000000000000000000000000000000009E
:10630000000000000000000043000000000000004A
:10631000000000000000000000000000000000007D
:10632000000000000000000043000000000000002A
:10633000000000000000000000000000000000005D
:10634000000000000000000043000000000000000A
:10635000000000000000000000000000000000003D
:1063600000000000000000004300000000000000EA
:10637000000000000000000000000000000000001D
:1063800000000000000000004300000000000000CA
:1063900000000000000000000000000000000000FD
:1063A00000000000000000004300000000000000AA
:1063B00000000000000000000000000000000000DD
:1063C000000000000000000093460300E9450300C0
:1063D00000000000225A0300205A0300215A030043
:1063E000215A0300215A0300215A0300215A0300B5
:1063F000215A0300215A0300215A0300215A0300A5
:10640000FFFFFFFFFFFFFFFFFFFFFFFFFFFF00009A
:106410000100415343494900000000000000000012
:10642000000000000000000000000000000000006C
:1064300000004153434949000000000000000000F3
:10644000000000000000000000000000000000004C
:0C64500000000000256202000162020052
:10645C000000000000000000000000000000000030
:10646C000000000000000000000000000000000020
:10647C000000000000000000000000000000000010
:10648C000000000000000000000000000000000000
:0C649C00000000000000000000000000F4
:1064A8000000000000000000A185020000000000BC
:0464B80000000000E0
:04000003200062B5C2
:00000001FF
